:100000000C949D220C94C5220C94C5220C94C522FC
:100010000C94C5220C94C5220C94C5220C94C522C4
:100020000C94C5220C94C5220C94B92A0C94282B4C
:100030000C94C5220C94C5220C94C5220C94C522A4
:100040000C94C5220C94C5220C94C5220C94C52294
:100050000C94C5220C94C5220C94C5220C945A2DE4
:100060000C94C5220C94C5220C94C5220C94C52274
:100070000C94C5220C94C5220C94C5220C94C52264
:100080000C94A42D0C94C5220C94C5220C94C5226A
:100090000C94C5220C94C5220C94C5220C94C52244
:1000A0000C94C5220C94C5220C94C5220B02770136
:1000B000930277014B02BB004B02BB00BA027701EF
:1000C000930277010B0277014B02770188017701D8
:1000D0000B027701930277014B02BB004B02BB007E
:1000E000BA027701930277010B0277014B023202C9
:1000F0000000BB000B027701930277014B02BB00AB
:100100004B02BB00BA027701930277010B02770121
:100110004B027701880177010B0277010B0277010F
:100120000B02BB000B02BB000B027701EE01770153
:100130000B0277010B0232020080930288009302C7
:1001400088009302880093028800930210019302B2
:100150001001930210014B0210010B0221029302C5
:10016000880093028800930288009302880093021B
:10017000100193021001930210014B0210010B02B7
:100180002102930288009302880093028800930260
:1001900088009302100193021001930210014B0298
:1001A00010010B0210010B021001880110010B025B
:1001B0001001EE0110014B0210010B0210010B02A5
:1001C00010010B02DD01008088019A0288019A0269
:1001D0000B024D010B02A6000B02A60088014D0187
:1001E0000000A6008801A6000B02A6000B02A600D4
:1001F0000B02A6000B02A6008801A6000000A600C4
:100200008801A6008801A6000B024D010B02A60082
:100210000B02A6004B024D010B024D010B02A60082
:10022000EE01A600EE01A600EE01A600EE01A6007A
:100230000000A600B801A600B801A600EE014D011D
:10024000EE01A600EE01A60088014D010000A60007
:100250008801A600EE01A600EE01A600EE01A600B0
:10026000EE01A6008801A6000000A6008801A600F5
:100270008801A6004B024D014B02A6004B02A600CE
:1002800093024D014B024D014B02A6000B02A6004A
:100290000B02A6000B02A6000B024D01008000001D
:1002A000FA000B02FA009302F4014B02F4010B0274
:1002B000F4010B02F4014B0277010B027701EE010E
:1002C000EE020000F4019302FA009302FA004B02DE
:1002D000F4010B02FA000B02FA000B02F4014B02CC
:1002E00077010B027701EE01EE020000FA00EE0149
:1002F000FA009302F4014B02F4010B02F4010B0229
:10030000F4014B0277010B027701EE01F401880141
:10031000F401B801E80300800B020902930209020C
:100320004B0204014B028200880104018801040190
:10033000880182000B0204010B02040193020401F4
:10034000930204014B0204014B028200880109025E
:10035000000082000B020902930209024B02040111
:100360004B028200BA020401BA020401BA028200FE
:1003700010030401BA020401930204014B020401B8
:10038000930204014B0282000B0209020080100359
:10039000FA001003FA00BA02FA009302F401000016
:1003A000F4011003F4011003FA007003F401930246
:1003B000F4010000F401BA02FA009302F4014B02C6
:1003C000F4010000F401BA02FA00BA02FA00930242
:1003D000F4014B02F40100808801E6000B02CD011C
:1003E0000B02E6008801CD018801E6008801E600E5
:1003F0008801E6004B02CD014B02E6008801CD01E9
:100400008801CD010B02CD010B02E6009302E6004C
:100410009302E6009302E6004B02E6000B02CD01D8
:100420004B02CD010B02B40200800B0260010B02F3
:1004300060014B0260014B020801000058000B02F2
:1004400060010B0260014B0260014B0208010000D9
:1004500058000B0260010B0260014B0260014B026D
:100460000801000058000B02B0000000B0000B02B1
:10047000B000930260014B02B0000B0208010000C3
:100480005800930260010B022204000060010B027D
:10049000B000930260014B02B0000B0208010000A3
:1004A0005800930260010B022204000060010B025D
:1004B000B000930260014B02B0000B020801000083
:1004C0005800930260010B022204000060010B023D
:1004D000B000100360011003B00010036001BA0205
:1004E00060019302220400800000CD010B02E600AF
:1004F0000000E600EE01E6000B02E6000000D10A73
:100500000B02E6000000E6004B02E6000B02E600EC
:1005100000800B0296000B0296000B0296000B0265
:1005200096000B022C010B0296000B0296006E0245
:100530002C010B022C0100005802D2019600D201BE
:100540009600D2019600D2019600D2012C01D20170
:100550009600D2019600D20196000B022C010B02EC
:100560002C010000C2010B0296000B0296000B0248
:1005700096000B0296000B022C010B0296000B0258
:1005800096006E022C01BA022C010B022C010B0208
:1005900096000B02960010032C01BA022C016E0289
:1005A0002C01D2019600D2019600D20196000B02D6
:1005B0002C010B022C0100800B0210010000100125
:1005C0000B021001000010016E0210016E02880083
:1005D0000B021001000088000B021001D201100173
:1005E000D2011001EE018800000088000B022102F8
:1005F000000032030B021001000010010B02100179
:10060000000010016E0210016E0288000B02100142
:10061000000088000B02100110031001BA02100143
:100620006E0210010B02210200800B02100100007B
:1006300088009302100100008800100310014B0293
:10064000100100008800BA02100100008800700349
:100650001001930210010000880010031001000037
:100660008800970410011704210200800000FA009E
:100670000601FA008801FA0088017D008801FA006D
:1006800088017D00B801FA004A01FA000601FA006B
:100690000000FA000601FA008801FA0088017D00D6
:1006A0008801FA0088017D00B801FA004A01F401CE
:1006B0000000FA000601FA008801FA0088017D00B6
:1006C0008801FA0088017D00B801FA004A01FA00A9
:1006D0000601FA000000FA000601FA00F700FA002D
:1006E000F7007D00F700FA00F7007D000601F40135
:1006F00000800B02FA000B02F4018801FA00880165
:10070000FA008801FA00B801FA000B02FA00B801F9
:10071000FA000B02E8030000EE020B02FA000B02E3
:10072000F4018801EE02B801FA000B02FA00B801E8
:10073000FA008801E8030000EE020B02FA000B0247
:10074000F4018801FA008801FA008801FA00B80172
:10075000FA000B02FA00B801FA000B02F4010B02D6
:10076000FA000B02FA000B02F4018801FA0088017A
:10077000FA008801FA009302FA004B02FA000B0219
:10078000FA000B02F40100800B02CD018801E600A3
:100790000B02CD018801CD014B02CD018801E6009D
:1007A0008801E6008801E600B801E600B801E6002D
:1007B0008801E6000000E6000B02CD018801E6009A
:1007C0000B02CD018801CD014B02CD018801E6006D
:1007D0008801E6008801E600B801E600B801E600FD
:1007E0008801E6000000E6000B02CD018801E6006A
:1007F0000B02CD018801CD014B02CD018801E6003D
:100800008801E6008801E600B801E600B801E600CC
:100810008801E6005D01E6004A01E6004A01E600C3
:100820004A01E6005D01E6002601E6002601E60039
:100830002601E6004A01E60006019B0300800B0248
:100840009D01D201CE000B029D016E029D01D201DD
:100850006C020000D9040B029D01D201CE000B02F4
:100860009D016E029D01D2016C0200003B030B0250
:100870009D010B029D01D201CE000B029D016E0273
:10088000CE009302CE00BA026C026E02CE000B02C2
:100890006C0200009D010B02CE000B02CE000B0289
:1008A000CE000B02CE00D201CE00EE019D010B0264
:1008B0006C0200808801E600000073004A01E60037
:1008C000000073005D017300000073008801730075
:1008D000000073000601E6000601E6000000E600E5
:1008E0002601E600000073004A01E60000007300E4
:1008F00026017300000073000601730000007300FE
:10090000C400E600C400E6000000E6008801E6003E
:10091000000073004A01E600000073005D017300EF
:100920000000730088017300000073000601E600F8
:100930000601E6000000E6002601E6000000730064
:100940004A01E600000073002601730000007300F6
:100950000601E6000080880142040B0288000B02B9
:1009600088000B0288000B028800880110018801B2
:1009700010014A0110014A0110010601100106018F
:1009800010010601880006018800060188000601A2
:100990008800260110010601100106012102000055
:1009A0002102060110010601100126011001260195
:1009B0008800260188004A0110014A0110015D01EA
:1009C0009901060188004A01100106011001260163
:1009D0001001F7001001060121020B021001008036
:1009E00000008E0088018E0088018E0088018E0034
:1009F00093021D0100001D014B021D0100008E002D
:100A00000B028E004B028E000B02AC0100008E0028
:100A10000B028E000B028E000B028E00BA028E00BB
:100A20004B028E004B028E004B028E004B028E005A
:100A30000B028E000B028E000B028E00BA028E009B
:100A40004B028E004B028E004B028E004B028E003A
:100A500088018E0088018E0088018E0093021D019E
:100A600000001D014B021D0100008E000B028E00D4
:100A70004B028E000B021D0100800B02CD010B0208
:100A8000E6000B02E600B801CD018801CD010B02A2
:100A9000E6000B02E6000B02E600B801CD0188017A
:100AA000CD010B02B4020B02E6000B02E600B80116
:100AB000CD018801CD019302E6009302E600930286
:100AC000E6004B02CD010B02CD0100800000770152
:100AD0000B02BB000B02BB000B02BB000B02BB00F6
:100AE0000B02BB006E0277010B027701000032029D
:100AF0000B02BB000B02BB006E02BB006E02BB0010
:100B00006E02BB006E0277010B0277010000BB0092
:100B10001003BB001003BB001003BB0010037701E0
:100B20000B02770100801704AC011704AC0110031D
:100B3000AC010000D600970482029704AC011003B8
:100B4000AC010000AC011704AC011704AC011003A8
:100B5000AC010000D600930282029302AC010B02AA
:100B6000AC010000AC011704AC011704AC01100388
:100B7000AC010000D600970482029704AC01100378
:100B8000AC011704590300800B02CD010B02CD010B
:100B90008801E6008801CD014B02B4024B02CD0171
:100BA0008801CD018801E6008801E6000B02CD0135
:100BB0000B02CD018801E6008801CD014B02B40291
:100BC0009302CD018801CD010000CD010B02CD01C2
:100BD0000B02CD018801E6008801CD014B02B40271
:100BE0004B02CD018801CD018801E6008801E600B5
:100BF0000B02E6000B02E6000B02E6000B02E60029
:100C00000B02E6000B02E6000B02E6000B02E60018
:100C1000EE01E600EE01E600EE01E600EE01E60080
:100C20000B02CD0100800B029D000B023B01000076
:100C30009D0088019D0088013B014B023B014B0256
:100C40003B014B029D0088019D0088013B01000093
:100C50009D000B029D000B023B0100009D008801DE
:100C60009D0088013B014B023B014B023B014B02C3
:100C70009D0088019D0088013B0100009D000B0242
:100C80009D000B023B0100009D0088019D00880132
:100C90003B014B023B014B023B014B029D00880193
:100CA0009D0088013B0100009D00EE013B010B020D
:100CB0003B0100003B014B023B010B023B0100806A
:100CC0001003E6001003E600BA02E6009302CD012D
:100CD0000000CD011003CD011003E6001003E60073
:100CE0007003CD011003E6009302CD011003E6006E
:100CF0001003E600BA02E6009302CD010000CD0128
:100D00001003CD011003E6001003E6007003CD01CF
:100D10001003E6009302E6009302E600BA02E60042
:100D20009302CD014B02CD010000CD014B02E60044
:100D3000BA02E6009302CD014B02CD010000CD01C5
:100D40004B02E600BA02E6009302CD014B02CD0150
:100D50000000CD014B02E600BA02E6000000E6000A
:100D60009302E6000000E6000B02E600008010039C
:100D7000F4019302FA000B02EE020000F4014B02B0
:100D8000F401EE01FA008801EE020000F401100304
:100D9000F4019302FA000B02F4010B02FA000B02B9
:100DA000FA000B02FA004B02F4019302F4010B0269
:100DB000F4010000F4011003F4019302FA000B02A5
:100DC000EE020000F4014B02F401EE01FA0088018A
:100DD000EE020000FA008801FA00B801FA000B02E6
:100DE000FA00B801FA008801FA00B801FA000B0213
:100DF000FA000B02FA008801FA009302F4014B0298
:100E0000F4010B02F40100800B0288000B02880041
:100E10000B0288000B0288008801100188018800FD
:100E20004A0188004A0188004A0188004A01880076
:100E30000601990106018800060188000601880064
:100E400006018800060188000601880026011001BD
:100E50000601100106012102008057484F27532048
:100E60004D590A4C4954544C450A4441494B494E4A
:100E70004920424142590057484F2753204D590AB3
:100E80004C4954544C4520424142590A424952442B
:100E9000005748454E20594F552752450A444F4E5A
:100EA0004520574954480A594F55522048414D0A48
:100EB000594F55205448524F572049540A4F4E20FD
:100EC0005448452047524F554E44005745275245F8
:100ED0000A414C4D4F535420484F4D450057452033
:100EE0004152450A4452455353494E472055500AF2
:100EF000415320412046414D494C590A4F46205309
:100F00004B454C45544F4E530057415348494E476B
:100F10000A594F5552204641434500285745204223
:100F200055494C442049540A555020414E442054C0
:100F300048454E0A5745204255494C442049540AD9
:100F4000444F574E2920544849530A544F574E2076
:100F500048415320474F540A41204C4F54204F469C
:100F60000A434F4E535452554354494F4E00284D57
:100F70002041204D2041290A5448415427532048FC
:100F80004F570A594F55205350454C4C0A4D414D2F
:100F900041005354524545540A5357454550455214
:100FA0000050555454494E47204F4E0A594F555200
:100FB0002050414E54530A4C494B4520410A424966
:100FC0004720424F5900504F4F5020535455434BE8
:100FD0000A544F20412042555454004F4E4520544E
:100FE000574F2054485245450A464F5552204649CE
:100FF0005645205349580A534556454E20454947C2
:1010000048540A4E494E452054454E004D59204201
:101010004142590A4C4F56455320544F0A474F20DE
:10102000504F4F5059004D59204241425920495389
:101030000A412050554E4348494E470A4D414348C6
:10104000494E4521004D522E205354414E44494EA5
:10105000470A2857484F2753204D590A4C495454A2
:101060004C450A5354414E44494E4720424F59295A
:10107000004C4554275320474F205045450A5749B7
:101080005448204441440049205448494E4B0A41A9
:10109000204C4F542041424F55540A52494E534917
:1010A0004E4720544841540A434F46464545205038
:1010B0004F540049204D414B4520410A4C4954545E
:1010C0004C45205441434F004920474F5420412074
:1010D000524F434B0A494E204D5920504F434B45E8
:1010E000540047555920494E20410A434F50204350
:1010F00041520A52554E4E494E4720410A524544EC
:10110000204C494748540047455454494E472050C5
:101110004150410A534F4D4520434F4646454500F7
:101120004441444120444F0A284D414D41204D4FF8
:101130002900425945204259450A425542424C45F0
:10114000530A425945204259450A424154485741A1
:1011500054455200425542424C45530A4255424280
:101160004C45530A2857484F275320474F540A5499
:10117000484520425542424C45532900424F554E66
:1011800043494E4720410A42414C4C2C0A424F559C
:101190004E43494E4720410A424F554E4359204243
:1011A000414C4C004241425920534B494E00414E64
:1011B00059204B494E44204F460A43415220414E4C
:1011C0004420414E590A4B494E44204F4620545228
:1011D00055434B0A28414E59204B494E44204F4617
:1011E0000A414E59204341520A414E44205452551F
:1011F000434B29000B027701930277014B02BB009E
:101200004B02BB00BA027701930277010B02770110
:101210004B027701880177010B0277019302770176
:101220004B02BB004B02BB00BA027701930277016D
:101230000B0277014B0232020000BB000B02770168
:10124000930277014B02BB004B02BB00BA0277014D
:10125000930277010B0277014B0277018801770136
:101260000B0277010B0277010B02BB000B02BB00E4
:101270000B027701EE0177010B0277010B023202BC
:10128000008057484F2753204D590A4C4954544C1D
:10129000450A4441494B494E492042414259009335
:1012A00002880093028800930288009302880093CA
:1012B00002100193021001930210014B0210010B66
:1012C000022102930288009302880093028800930F
:1012D0000288009302100193021001930210014B47
:1012E0000210010B022102930288009302880093EE
:1012F0000288009302880093021001930210019368
:101300000210014B0210010B0210010B02100188A8
:101310000110010B021001EE0110014B0210010B34
:101320000210010B0210010B02DD01008057484F33
:101330002753204D590A4C4954544C4520424142B0
:10134000590A424952440088019A0288019A020BC4
:10135000024D010B02A6000B02A60088014D010000
:1013600000A6008801A6000B02A6000B02A6000B37
:1013700002A6000B02A6008801A6000000A60088B5
:1013800001A6008801A6000B024D010B02A6000B6E
:1013900002A6004B024D010B024D010B02A600EE0E
:1013A00001A600EE01A600EE01A600EE01A60000D7
:1013B00000A600B801A600B801A600EE014D01EE9E
:1013C00001A600EE01A60088014D010000A60088DC
:1013D00001A600EE01A600EE01A600EE01A600EEB9
:1013E00001A6008801A6000000A6008801A60088CA
:1013F00001A6004B024D014B02A6004B02A6009332
:10140000024D014B024D014B02A6000B02A6000B40
:1014100002A6000B02A6000B024D010080574845B2
:101420004E20594F552752450A444F4E45205749A3
:1014300054480A594F55522048414D0A594F55209A
:101440005448524F572049540A4F4E205448452083
:1014500047524F554E44000000FA000B02FA009329
:1014600002F4014B02F4010B02F4010B02F4014BF4
:101470000277010B027701EE01EE020000F4019306
:1014800002FA009302FA004B02F4010B02FA000B7D
:1014900002FA000B02F4014B0277010B027701EE16
:1014A00001EE020000FA00EE01FA009302F4014B93
:1014B00002F4010B02F4010B02F4014B0277010B61
:1014C000027701EE01F4018801F401B801E803009C
:1014D0008057452752450A414C4D4F535420484FA1
:1014E0004D45000B020902930209024B0204014B15
:1014F0000282008801040188010401880182000B36
:101500000204010B02040193020401930204014B43
:101510000204014B02820088010902000082000BD4
:10152000020902930209024B0204014B028200BA33
:10153000020401BA020401BA02820010030401BAD3
:10154000020401930204014B020401930204014BC3
:101550000282000B02090200805745204152450AD1
:101560004452455353494E472055500A4153204158
:101570002046414D494C590A4F4620534B454C4556
:10158000544F4E53001003FA001003FA00BA02FA47
:10159000009302F4010000F4011003F4011003FAB7
:1015A000007003F4019302F4010000F401BA02FA9E
:1015B000009302F4014B02F4010000F401BA02FAB4
:1015C00000BA02FA009302F4014B02F401008057C2
:1015D000415348494E470A594F55522046414345C9
:1015E000008801E6000B02CD010B02E6008801CD68
:1015F000018801E6008801E6008801E6004B02CD83
:10160000014B02E6008801CD018801CD010B02CD1E
:10161000010B02E6009302E6009302E6009302E665
:10162000004B02E6000B02CD014B02CD010B02B4D0
:10163000020080285745204255494C442049540A0D
:10164000555020414E44205448454E0A57452042AB
:1016500055494C442049540A444F574E2920544878
:1016600049530A544F574E2048415320474F540A7C
:1016700041204C4F54204F460A434F4E535452552D
:101680004354494F4E000B0260010B0260014B02B4
:1016900060014B020801000058000B0260010B02C0
:1016A00060014B0260014B020801000058000B0270
:1016B00060010B0260014B0260014B020801000057
:1016C00058000B02B0000000B0000B02B000930203
:1016D00060014B02B0000B020801000058009302A9
:1016E00060010B022204000060010B02B0009302B3
:1016F00060014B02B0000B02080100005800930289
:1017000060010B022204000060010B02B000930292
:1017100060014B02B0000B02080100005800930268
:1017200060010B022204000060010B02B0001003F4
:1017300060011003B00010036001BA02600193025F
:1017400022040080284D2041204D2041290A544880
:101750004154275320484F570A594F55205350455D
:101760004C4C0A4D414D41000000CD010B02E600FA
:101770000000E600EE01E6000B02E6000000D10AE0
:101780000B02E6000000E6004B02E6000B02E6005A
:1017900000805354524545540A53574545504552CD
:1017A000000B0296000B0296000B0296000B0296AD
:1017B000000B022C010B0296000B0296006E022C0D
:1017C000010B022C0100005802D2019600D20196B2
:1017D00000D2019600D2019600D2012C01D20196CE
:1017E00000D2019600D20196000B022C010B022CB4
:1017F000010000C2010B0296000B0296000B02963C
:10180000000B0296000B022C010B0296000B0296B5
:10181000006E022C01BA022C010B022C010B029665
:10182000000B02960010032C01BA022C016E022C50
:1018300001D2019600D2019600D20196000B022C33
:10184000010B022C01008050555454494E47204F43
:101850004E0A594F55522050414E54530A4C494B51
:101860004520410A42494720424F59000B021001CE
:10187000000010010B021001000010016E021001A7
:101880006E0288000B021001000088000B0210019C
:10189000D2011001D2011001EE0188000000880081
:1018A0000B022102000032030B02100100001001A4
:1018B0000B021001000010016E0210016E02880080
:1018C0000B021001000088000B0210011003100130
:1018D000BA0210016E0210010B0221020080504F6B
:1018E0004F5020535455434B0A544F2041204255EA
:1018F0005454000B021001000088009302100100F4
:10190000008800100310014B02100100008800BA8B
:101910000210010000880070031001930210010002
:1019200000880010031001000088009704100117C0
:1019300004210200804F4E452054574F20544852F6
:1019400045450A464F555220464956452053495869
:101950000A534556454E2045494748540A4E494E7C
:10196000452054454E000000FA000601FA008801A7
:10197000FA0088017D008801FA0088017D00B80125
:10198000FA004A01FA000601FA000000FA00060116
:10199000FA008801FA0088017D008801FA008801B8
:1019A0007D00B801FA004A01F4010000FA000601C6
:1019B000FA008801FA0088017D008801FA00880198
:1019C0007D00B801FA004A01FA000601FA000000A1
:1019D000FA000601FA00F700FA00F7007D00F700B0
:1019E000FA00F7007D000601F40100804D59204205
:1019F0004142590A4C4F56455320544F0A474F20F5
:101A0000504F4F5059000B02FA000B02F4018801AD
:101A1000FA008801FA008801FA00B801FA000B0206
:101A2000FA00B801FA000B02E8030000EE020B0214
:101A3000FA000B02F4018801EE02B801FA000B0271
:101A4000FA00B801FA008801E8030000EE020B0278
:101A5000FA000B02F4018801FA008801FA008801FB
:101A6000FA00B801FA000B02FA00B801FA000B0202
:101A7000F4010B02FA000B02FA000B02F4018801D8
:101A8000FA008801FA008801FA009302FA004B027A
:101A9000FA000B02FA000B02F40100804D592042BB
:101AA0004142592049530A412050554E4348494E1E
:101AB000470A4D414348494E4521000B02CD01885C
:101AC00001E6000B02CD018801CD014B02CD01885A
:101AD00001E6008801E6008801E600B801E600B8EA
:101AE00001E6008801E6000000E6000B02CD018857
:101AF00001E6000B02CD018801CD014B02CD01882A
:101B000001E6008801E6008801E600B801E600B8B9
:101B100001E6008801E6000000E6000B02CD018826
:101B200001E6000B02CD018801CD014B02CD0188F9
:101B300001E6008801E6008801E600B801E600B889
:101B400001E6008801E6005D01E6004A01E6004A80
:101B500001E6004A01E6005D01E6002601E60026F6
:101B600001E6002601E6004A01E60006019B0300AB
:101B7000804D522E205354414E44494E470A285717
:101B8000484F2753204D590A4C4954544C450A5349
:101B900054414E44494E4720424F5929000B029D63
:101BA00001D201CE000B029D016E029D01D2016C9B
:101BB000020000D9040B029D01D201CE000B029D50
:101BC000016E029D01D2016C0200003B030B029DDD
:101BD000010B029D01D201CE000B029D016E02CECF
:101BE000009302CE00BA026C026E02CE000B026CB1
:101BF0000200009D010B02CE000B02CE000B02CEB4
:101C0000000B02CE00D201CE00EE019D010B026C52
:101C10000200804C4554275320474F205045450A29
:101C20005749544820444144008801E600000073AD
:101C3000004A01E600000073005D017300000073BC
:101C40000088017300000073000601E6000601E64B
:101C5000000000E6002601E600000073004A01E6ED
:101C6000000000730026017300000073000601737A
:101C70000000007300C400E600C400E6000000E6B7
:101C8000008801E600000073004A01E600000073CE
:101C9000005D017300000073008801730000007391
:101CA000000601E6000601E6000000E6002601E667
:101CB00000000073004A01E6000000730026017373
:101CC00000000073000601E60000804920544849E6
:101CD0004E4B0A41204C4F542041424F55540A521A
:101CE000494E53494E4720544841540A434F4646B3
:101CF000454520504F5400880142040B0288000BD8
:101D00000288000B0288000B0288008801100188FD
:101D10000110014A0110014A0110010601100106DB
:101D200001100106018800060188000601880006EE
:101D300001880026011001060110010601210200A0
:101D400000210206011001060110012601100126E2
:101D5000018800260188004A0110014A0110015D36
:101D6000019901060188004A0110010601100126AF
:101D7000011001F7001001060121020B0210010001
:101D80008049204D414B4520410A4C4954544C4513
:101D9000205441434F0000008E0088018E008801CE
:101DA0008E0088018E0093021D0100001D014B0270
:101DB0001D0100008E000B028E004B028E000B02F4
:101DC000AC0100008E000B028E000B028E000B0295
:101DD0008E00BA028E004B028E004B028E004B0228
:101DE0008E004B028E000B028E000B028E000B0247
:101DF0008E00BA028E004B028E004B028E004B0208
:101E00008E004B028E0088018E0088018E008801B2
:101E10008E0093021D0100001D014B021D010000F8
:101E20008E000B028E004B028E000B021D01008003
:101E30004920474F54204120524F434B0A494E20DE
:101E40004D5920504F434B4554000B02CD010B021E
:101E5000E6000B02E600B801CD018801CD010B02BE
:101E6000E6000B02E6000B02E600B801CD01880196
:101E7000CD010B02B4020B02E6000B02E600B80132
:101E8000CD018801CD019302E6009302E6009302A2
:101E9000E6004B02CD010B02CD01008047555920D1
:101EA000494E20410A434F50204341520A52554E59
:101EB0004E494E4720410A524544204C4947485418
:101EC00000000077010B02BB000B02BB000B02BB42
:101ED000000B02BB000B02BB006E0277010B027706
:101EE00001000032020B02BB000B02BB006E02BB02
:101EF000006E02BB006E02BB006E0277010B027720
:101F0000010000BB001003BB001003BB001003BBAB
:101F100000100377010B02770100804745545449B4
:101F20004E4720504150410A534F4D4520434F46A4
:101F3000464545001704AC011704AC011003AC0181
:101F40000000D600970482029704AC011003AC0194
:101F50000000AC011704AC011704AC011003AC0184
:101F60000000D600930282029302AC010B02AC0186
:101F70000000AC011704AC011704AC011003AC0164
:101F80000000D600970482029704AC011003AC0154
:101F90001704590300804441444120444F0A284D0E
:101FA000414D41204D4F29000B02CD010B02CD01C7
:101FB0008801E6008801CD014B02B4024B02CD013D
:101FC0008801CD018801E6008801E6000B02CD0101
:101FD0000B02CD018801E6008801CD014B02B4025D
:101FE0009302CD018801CD010000CD010B02CD018E
:101FF0000B02CD018801E6008801CD014B02B4023D
:102000004B02CD018801CD018801E6008801E60080
:102010000B02E6000B02E6000B02E6000B02E600F4
:102020000B02E6000B02E6000B02E6000B02E600E4
:10203000EE01E600EE01E600EE01E600EE01E6004C
:102040000B02CD010080425945204259450A4255B4
:1020500042424C45530A425945204259450A4241A1
:1020600054485741544552000B029D000B023B015E
:1020700000009D0088019D0088013B014B023B014F
:102080004B023B014B029D0088019D0088013B01F2
:1020900000009D000B029D000B023B0100009D0013
:1020A00088019D0088013B014B023B014B023B0133
:1020B0004B029D0088019D0088013B0100009D00AE
:1020C0000B029D000B023B0100009D0088019D005A
:1020D00088013B014B023B014B023B014B029D003F
:1020E00088019D0088013B0100009D00EE013B013D
:1020F0000B023B0100003B014B023B010B023B0189
:102100000080425542424C45530A425542424C459A
:10211000530A2857484F275320474F540A544845DD
:1021200020425542424C455329001003E60010035B
:10213000E600BA02E6009302CD010000CD011003D3
:10214000CD011003E6001003E6007003CD0110037B
:10215000E6009302CD011003E6001003E600BA0288
:10216000E6009302CD010000CD011003CD01100364
:10217000E6001003E6007003CD011003E6009302B1
:10218000E6009302E600BA02E6009302CD014B029C
:10219000CD010000CD014B02E600BA02E600930239
:1021A000CD014B02CD010000CD014B02E600BA0289
:1021B000E6009302CD014B02CD010000CD014B02A0
:1021C000E600BA02E6000000E6009302E600000026
:1021D000E6000B02E6000080424F554E43494E4751
:1021E00020410A42414C4C2C0A424F554E43494E25
:1021F0004720410A424F554E43592042414C4C0022
:102200001003F4019302FA000B02EE020000F40145
:102210004B02F401EE01FA008801EE020000F40125
:102220001003F4019302FA000B02F4010B02FA000E
:102230000B02FA000B02FA004B02F4019302F401C4
:102240000B02F4010000F4011003F4019302FA0000
:102250000B02EE020000F4014B02F401EE01FA0061
:102260008801EE020000FA008801FA00B801FA00C5
:102270000B02FA00B801FA008801FA00B801FA006E
:102280000B02FA000B02FA008801FA009302F40133
:102290004B02F4010B02F4010080424142592053E9
:1022A0004B494E000B0288000B0288000B0288008D
:1022B0000B02880088011001880188004A0188000B
:1022C0004A0188004A0188004A01880006019901F4
:1022D00006018800060188000601880006018800C2
:1022E0000601880006018800260110010601100180
:1022F000060121020080414E59204B494E44204F97
:10230000460A43415220414E4420414E590A4B490E
:102310004E44204F4620545255434B0A28414E59B3
:10232000204B494E44204F460A414E5920434152CA
:102330000A414E4420545255434B290000B000003E
:10234000A170E150964F26900F1D070C0096690072
:102350004AE44A0048444000806810000F99FB8F0F
:102360009DBDBBFB77D4D4DF1F1A1AFE7F5D5DFFD6
:10237000805A0000A0A4AA0010BA3400FF5953F3F9
:10238000FF9B9B9EFFB9B996FF9595D19FF4940F43
:10239000FC295F91FF1838F8FF9294FFFF95D5F75D
:1023A000BFB5DDD7F18F81F1F788C8F779C64679D7
:1023B00009FD9B090196F8008281828050716200BC
:1023C0007756560076763700A2B77301077206007B
:1023D0007827500073347400775176007F55F700EA
:1023E00047711000324772007364730015A27500C4
:1023F00061679400009F6060F4F2F6F2D5F08D14EE
:10240000A1C881CFD9F1AF2000F0F89C8E878387D7
:102410008E9CF8F00000FEFF0303030303070EFC8D
:10242000F80000FEFF0303030303070EFCF800009F
:10243000FFFF00000000000000FFFF0000FEFF8320
:1024400083838383C7EE7C380000F8FC0E07030308
:1024500003070EFCF800003F7FE0C08080C0E07FF3
:102460003FFFFF01010101010101FFFF0000FFFF2C
:102470000C0C0C0C1C3E77E3C100007FFFC0C0C0F9
:10248000C0C0E0703F1F00001F3F70E0C0C0C0E050
:10249000703F1F00007FFFC1C1C1C1C1E3773E1C77
:1024A00000001F3F70E0C0C0C0E0703F1F00000090
:1024B000000001FFFF01000000AE11A4117C1154C7
:1024C00011321120110711E210C810B310871071DA
:1024D00010451026100C10DB0FC60FA10F920F6EC7
:1024E0000F1B0F090FDD0ECB0E910E770E5A0E2F1C
:1024F000000704060F0000000000060F00060000A1
:1025000000060F0006000906323032340A44414406
:102510004100534F4E47530A464F520A4445534DCC
:102520004F4E44005C40000000000000000000002E
:1025300000000000000000000000000080808040DB
:10254000404040808080000000000000000000004B
:10255000000000000000000000000000000000007B
:10256000000000000000000000000000000000006B
:10257000000000000000000000000000000000005B
:1025800000000000000000000000000000000080CB
:10259000E0F0E8F4FAFEFDFFBE7E3B04040000001C
:1025A00000000101010102040810E0000000000029
:1025B000000000000000000000000000000000001B
:1025C000000000000000000000000000000000000B
:1025D00000000000000000000000000000000000FB
:1025E000000000000000000000F07E3D1F1F0F876C
:1025F000C7E3E0F0F0F8F8F8F8F8F8F8F0F0E0E009
:10260000800000000080F00F0000000000000000CB
:1026100000000000000000000000000000000000BA
:1026200000000000000000000000000000000000AA
:10263000000000000000000000000000000000009A
:10264000000000F0FF0000000000E8FF7F7F5F7FD8
:102650007F3F7FFFFFFFFF7F3FFFFFFFFFC000C007
:10266000740F0100000000000000000000000000E6
:10267000000000000000000000000000000000005A
:10268000000000000000000000000000000000004A
:10269000000000000000000000000000000000003A
:1026A000030C102040C3FFFFFFFFFFFF7F7E7FFF73
:1026B000FFFFFFFFFFFFFFFFFF1B07010000000000
:1026C000000000000000000000000000000000000A
:1026D00000000000000000000000000000000000FA
:1026E00000000000000000000000000000000000EA
:1026F00000000000000000000000000080402030CA
:10270000080701070B1367EFEEEEFEFFFFFFFFFF69
:10271000FF0F0B11102020408080000000000000FF
:1027200000000000000000000000000000000000A9
:102730000000000000000000000000000000000099
:102740000000000000000000000000000000000089
:102750000000C020180C0201000000000000000072
:102760000000000001010103030303430000000017
:10277000000000000000030438C00000000000005A
:102780000000000000000000000000000000000049
:102790000000000000000000000000000000000039
:1027A000000000000000000000000000F80700002A
:1027B0000000000000000000000000000000000019
:1027C00000000000000000003EFC000000000000CF
:1027D000000000000001FE000000000000000000FA
:1027E00000000000000000000000000000000000E9
:1027F00000000000000000000000000000000000D9
:1028000000000000000000000000000000000000C8
:10281000000080C040A020201090B0301010101098
:102820003010102020404080000000000000000018
:102830000000000000000000000000000000000098
:102840000000000000000000000000000000000088
:102850000000000000000000000000000000000078
:10286000000000000000000000C070ECF6EDFE6704
:102870004B020805010100000000000000000000FC
:102880000000000001020CF0000000000000000049
:102890000000000000000000000000000000000038
:1028A0000000000000000000000000000000000028
:1028B0000000000000000000000000000000000018
:1028C000000000003CC30E0707030100C0F8FCFC39
:1028D000FEFEFFFFFEFFFFFFFEFEFEFCF8F0000025
:1028E0000000F00F000000000000000000000000E9
:1028F00000000000000000000000000000000000D8
:1029000000000000000000000000000000000000C7
:1029100000000000000000000000000000000000B7
:10292000001FE000000000F8D7C0CBCBCFC7CFFF1F
:10293000FFFFFFEFEFEFEFFFFFFFFFA0E01E010043
:102940000000000000000000000000000000000087
:102950000000000000000000000000000000000077
:102960000000000000000000000000000000000067
:102970000000000000000000000000000000000156
:10298000020C1CBF7FFFFFFFCBDBDB9BFFFFFFFFCA
:10299000FFFFF7FFFF1F0F0700000000000000000F
:1029A0000000000000000000000000000000000027
:1029B0000000000000000000000000000000000017
:1029C0000000000000000000000000000000000007
:1029D000000000000000000080C020100808060170
:1029E000000000000D193B3B7B7F7F7F7F7F3F070F
:1029F00000010101020404080830408000000000CA
:102A000000000000000000000000000000000000C6
:102A100000000000000000000000000000000000B6
:102A200000000000000000000000000000000000A6
:102A3000C0380C030100000000000000000000008E
:102A400000000000000000000008C00000000000BE
:102A500000000000000000000718E0000000000077
:102A60000000000000000000000000000000000066
:102A70000000000000000000000000000000000056
:102A80000000000000000000000000F80700000047
:102A90000000000000000000000000000000000036
:102AA0000000000000000F3F0000000000000000D8
:102AB00000000000000003FC000000000000000017
:102AC0000000000000000000000000000000000006
:102AD00000000000000000000000000000000000F6
:102AE00000000000000000000000000000000000E6
:102AF000000000000000000000000080C0404040D6
:102B00002020602020202020602020404080800065
:102B100000000000000000000000000000000000B5
:102B200000000000000000000000000000000000A5
:102B30000000000000000000000000000000000095
:102B40000000000000000000000000000000000085
:102B50000000E0D8ECC20502050000000000000003
:102B6000000000000000000000000101020C708065
:102B70000000000000000000000000000000000055
:102B80000000000000000000000000000000000045
:102B90000000000000000000000000000000000035
:102BA000000000000000000000000000F08F0C0793
:102BB000000200C0E0E8F8FCFCFEFEFEFEFEFEFCAB
:102BC000FCF8F8F0C00000000000F00F000000006A
:102BD00000000000000000000000000000000000F5
:102BE00000000000000000000000000000000000E5
:102BF00000000000000000000000000000000000D5
:102C000000000000000000003FC0000000F0FEC710
:102C1000CBCBCBC3C7CFFFFFFFFFDFCFDFDFFFFF94
:102C2000FF008060180700000000000000000000A6
:102C30000000000000000000000000000000000094
:102C40000000000000000000000000000000000084
:102C50000000000000000000000000000000000074
:102C6000000000000001060CBEDFFFFFFFE7DBDF16
:102C70009B9BFFFFFFFFFFFFFFFFFF6F1F06030090
:102C80000000000000000000000000000000000044
:102C90000000000000000000000000000000000034
:102CA0000000000000000000000000000000000024
:102CB000000000000000000000000080C060201044
:102CC00008040603010000000A04193B7B7F7F7F94
:102CD000FFFF7F3F0703050E0C183020C080000067
:102CE00000000000000000000000000000000000E4
:102CF00000000000000000000000000000000000D4
:102D000000000000000000000000000000000000C3
:102D1000000000C0380E03010000000000000000A9
:102D20000000000000000000000000000290C00051
:102D300000000000000000000001020C7080000094
:102D40000000000000000000000000000000000083
:102D50000000000000000000000000000000000073
:102D60000000000000000000000000000000FC0364
:102D70000000000000000000000000000000000053
:102D80000000000000000000000F3F0000000000F5
:102D9000000000000000000000FF00000000000034
:102DA0000000000000000000000000000000000023
:102DB0000000000000000000000000000000000013
:102DC0000000000000000000000000000000000003
:102DD0000000000000000000000000000080808073
:102DE0004040C04040404040C04080808080000063
:102DF00000000000000000000000000000000000D3
:102E000000000000000000000000000000000000C2
:102E100000000000000000000000000000000000B2
:102E200000000000000000000000000000000000A2
:102E30000000C0B0D8F4FACF010E0000000000007E
:102E40000000000000000000000101020C18E080FA
:102E50000000000000000000000000000000000072
:102E60000000000000000000000000000000000062
:102E70000000000000000000000000000000000052
:102E800000000000000000000000000000FF391FEB
:102E90000F070781C0C0F0F8F8FCFCFCFCFCFCFC50
:102EA000F8F8F8F0E00000000000F80F0000000063
:102EB0000000000000000000000000000000000012
:102EC0000000000000000000000000000000000002
:102ED00000000000000000000000000000000000F2
:102EE0000000000000000000007F80000000E0FE05
:102EF000AD87878F8F8FFFFFFFFFFF9FFFDFFFFFF4
:102F0000FFF88040300F00000000000000000000CB
:102F100000000000000000000000000000000000B1
:102F200000000000000000000000000000000000A1
:102F30000000000000000000000000000000000091
:102F400000000000000003061830FF3FFFFFDF8F86
:102F5000B7B7B7FFFFFFFFFFFFFFFFFF7F3F070090
:102F60000000000000000000000000000000000061
:102F70000000000000000000000000000000000051
:102F80000000000000000000000000000000000041
:102F900000000000000000000000000000000080B1
:102FA000402010080C0601000001011B33777777E1
:102FB000F7FFFFFFFF3F0307020C0810206040806F
:102FC0000000000000000000000000000000000001
:102FD00000000000000000000000000000000000F1
:102FE00000000000000000000000000000000000E1
:102FF000000000000000E0180C02010000000000CA
:1030000000000000000000000000000000000010B0
:10301000800000000000000000000001030CF00030
:1030200000000000000000000000000000000000A0
:103030000000000000000000000000000000000090
:103040000000000000000000000000000000000080
:1030500000FF010000000000000000000000000070
:103060000000000000000000000000007F200000C1
:103070000000000000000000000000FF0000000051
:103080000000000000000000000000000000000040
:103090000000000000000000000000000000000030
:1030A0000000000000000000000000000000000020
:1030B00000000000000000000000000000808040D0
:1030C0004040202020202020206020404040C08020
:1030D00000000000000000000000000000000000F0
:1030E00000000000000000000000000000000000E0
:1030F00000000000000000000000000000000000D0
:1031000000000000000000000000000000000000BF
:1031100000000000E0D8ECFAA5420000000000002A
:103120000000000000000000000000000102041880
:10313000E0000000000000000000000000000000AF
:10314000000000000000000000000000000000007F
:10315000000000000000000000000000000000006F
:103160000000000000000000000000000000E0FF80
:103170000E07030301C0E0E8F8FCFCFEFEFCFEFEC7
:10318000FEFCFCFCF8F08000000000F007000000EE
:10319000000000000000000000000000000000002F
:1031A000000000000000000000000000000000001F
:1031B000000000000000000000000000000000000F
:1031C000000000000000000000003FF78000000049
:1031D000F8F7C2C3C3C3C7DFFFFFFFFFCFCFEFFFC7
:1031E000FFFFFF40C0701E01000000000000000053
:1031F00000000000000000000000000000000000CF
:1032000000000000000000000000000000000000BE
:1032100000000000000000000000000000000000AE
:1032200000000000000000000306183AFF7F7F7FC7
:10323000E3CDCFCFABFFFFFFFFFFFFFFFF3F060157
:10324000000000000000000000000000000000007E
:10325000000000000000000000000000000000006E
:10326000000000000000000000000000000000005E
:1032700000000000000000000000000000000080CE
:10328000402010080406020100000000001D1D3B44
:103290003B7B7F7F7F7F3F010307060C08103020B8
:1032A000C00000000000000000000000000000005E
:1032B000000000000000000000000000000000000E
:1032C00000000000000000000000000000000000FE
:1032D00000000000000000C0300C030000000000EF
:1032E00000000000000000000000000000000000DE
:1032F00008C00000000000000000000000030EF005
:1033000000000000000000000000000000000000BD
:1033100000000000000000000000000000000000AD
:10332000000000000000000000000000000000009D
:1033300000E01E030000000000000000000000008C
:10334000000000000000000000000000001F180046
:10335000000000000000000000000000FF0000006E
:10336000000000000000000000000000000000005D
:10337000000000000000000000000000000000004D
:10338000000000000000000000000000000000003D
:10339000000000000000000000000000008040402D
:1033A000202020201010101010101020202060402D
:1033B000808000000000000000000000000000000D
:1033C00000000000000000000000000000000000FD
:1033D00000000000000000000000000000000000ED
:1033E00000000000000000000000000000000000DD
:1033F00000000000C030EC160100010000000000D9
:1034000000000000000000000000000000010306B2
:1034100038C00000000000000000000000000000B4
:10342000000000000000000000000000000000009C
:10343000000000000000000000000000000000008C
:10344000000000000000000000000000000000FC80
:103450000303010100A0F038F8FEFEFFFFFFFFFFAD
:10346000FFFEFEFEFCF8E000000080E03C030000F0
:10347000000000000000000000000000000000004C
:10348000000000000000000000000000000000003C
:10349000000000000000000000000000000000002C
:1034A00000000000000000000000001F608000001D
:1034B000FEFFF1F0F1E1E1E3FFFFFFFFE7F7F7FFC8
:1034C000FFFFFF8060180601000000000000000000
:1034D00000000000000000000000000000000000EC
:1034E00000000000000000000000000000000000DC
:1034F00000000000000000000000000000000000CC
:1035000000000000000000008081864A7F6F1F3BA2
:103510003176E7E7FFFFFFFFFFFFFFBFFF0B07016C
:10352000000000000000000000000000000000009B
:10353000000000000000000000000000000000008B
:10354000000000000000000000000000000000007B
:1035500000000000000000000000000080C02010FB
:1035600008040201010000000000000203060E0E24
:103570000E1F1F1F1F070000010303060C183060F9
:1035800080000000000000000000000000000000BB
:10359000000000000000000000000000000000002B
:1035A000000000000000000000000000000000001B
:1035B000000000000080F00E01000000000000008C
:1035C00000000000000000000000000000000000FB
:1035D000F8000000000000000000000001077880F3
:1035E00000000000000000000000000000000000DB
:1035F00000000000000000000000000000000000CB
:1036000000000000000000000000000000000000BA
:10361000C03F0100000000000000000000000000AA
:103620000000000000000000000000000302000095
:1036300000000000000000000000001FE00000008B
:10364000000000000000000000000000000000007A
:10365000000000000000000000000000000000006A
:10366000000000000000000000000000000000005A
:1036700000000000000000000000008040A0D0D04A
:10368000E8E8FCF4F4BC040404040C040C0808107E
:10369000302040800000000000000000000000001A
:1036A000000000000000000000000000000000001A
:1036B000000000000000000000000000000000000A
:1036C00000000000000000000000000000000000FA
:1036D000000000C030ECFB7F7F3F1F0F858380C060
:1036E000C0C0C0C0C080800000000000000000C159
:1036F0003E0000000000000000000000000000008C
:1037000000000000000000000000000000000000B9
:1037100000000000000000000000000000000000A9
:1037200000000000000000000000000000F807009A
:103730000301000080F85C3F7FFFFFFFFFFFFFFFFA
:10374000FFFFFFFFFFF8000040E01C030000000047
:103750000000000000000000000000000000000069
:103760000000000000000000000000000000000059
:103770000000000000000000000000000000000049
:103780000000000000000000043F6080008080FE18
:10379000FFFEFDFDFDFDF9F8FFFFFFFFF9FDFDFD5B
:1037A000FFFFF01C0300000000000000000000000C
:1037B0000000000000000000000000000000000009
:1037C00000000000000000000000000000000000F9
:1037D00000000000000000000000000000000000E9
:1037E00000000000000000808142473F1F0F4F9FF4
:1037F0009C3D3979FDFDFFFFFF7F3F6F9F03000078
:1038000000000000000000000000000000000000B8
:1038100000000000000000000000000000000000A8
:103820000000000000000000000000000000000098
:103830000000000000000000000000806030180C54
:103840000602010000000000000101030307070F4A
:103850000F0F0F0F070000000101030604081020DE
:10386000C000000000000000000000000000000098
:103870000000000000000000000000000000000048
:103880000000000000000000000000000000000038
:1038900000000000C03C0F0100000000000000001C
:1038A000000000000000000000000000000000FC1C
:1038B00000000000000000000000000000073CC005
:1038C00000000000000000000000000000000000F8
:1038D00000000000000000000000000000000000E8
:1038E000000000000000000000000000000000F8E0
:1038F00007000000000000000000000000000000C1
:1039000000000000000000000000000300000000B4
:103910000000000000000000000000FF00000000A8
:103920000000000000000000000000000000000097
:103930000000000000000000000000000000000087
:103940000000000000000000000000000000000077
:103950000000000080C0205028040602010102017E
:10396000000000000000000100010202040C081029
:1039700020C0000000000000000000000000000067
:103980000000000000000000000000000000000037
:103990000000000000000000000000000000000027
:1039A0000000000000000000000000000000E01C1B
:1039B0007B3E030300000080C0C0C0E0E0E0E0E028
:1039C000E0E0C0C0C08000000000000000017E00F8
:1039D00000000000000000000000000000000000E7
:1039E00000000000000000000000000000000000D7
:1039F00000000000000000000000000000000000C7
:103A000000000000000000000000FF0000000000B7
:103A1000E07E3E3EBF7F7FFFFFFFFFFFFFFFFFFF18
:103A2000FFFFFFF800000080780F0000000000009A
:103A30000000000000000000000000000000000086
:103A40000000000000000000000000000000000076
:103A50000000000000000000000000000000000066
:103A6000000000000000031C608080FFFFFDFCFCE4
:103A70007CBCF8787FFFFFFFFDFDFDFDFFFFFFFF32
:103A8000E0300E0100000000000000000000000017
:103A90000000000000000000000000000000000026
:103AA0000000000000000000000000000000000016
:103AB0000000000000000000000000000000000006
:103AC000000000008081434D3F0F0F9CBD7B7B7B3E
:103AD000FFFFFFFFFFFFFF3F7FFF47830000000066
:103AE00000000000000000000000000000000000D6
:103AF00000000000000000000000000000000000C6
:103B000000000000000000000000000000000000B5
:103B1000000000000000000000C0201008040201A6
:103B2000000000000000010203070F0F0F0F0F1F1E
:103B30000F07030000000000010102040C1830C050
:103B400080000000000000000000000000000000F5
:103B50000000000000000000000000000000000065
:103B60000000000000000000000000000000000055
:103B70000080780601000000000000000000000046
:103B8000000000000000000000000000F8F000004D
:103B9000000000000000000000000000030EF00024
:103BA0000000000000000000000000000000000015
:103BB0000000000000000000000000000000000005
:103BC000000000000000000000000000F01F0000E6
:103BD00000000000000000000000000000000000E5
:103BE00000000000000000000107000000000000CD
:103BF00000000000000000000000017E80000000C6
:103C000000000000000000000000000000000000B4
:103C100000000000000000000000000000000000A4
:103C20000000000000000000000000000000000094
:103C30000000000000000000000000000000008004
:103C40004020D0E8ECF6FAFAFC7DBE3C1C0D0501E4
:103C500000000101010000020102040830C0000060
:103C60000000000000000000000000000000000054
:103C70000000000000000000000000000000000044
:103C80000000000000000000000000000000000034
:103C9000000000000000E0100CE2F9FD7F3F1F0F64
:103CA000078180C0C0E1E1E0E0E0E0E0E0C0C0808A
:103CB0000000000000000000C03807000000000005
:103CC00000000000000000000000000000000000F4
:103CD00000000000000000000000000000000000E4
:103CE00000000000000000000000000000000000D4
:103CF000F00F0000030100000000FCFEFFFFFFFFCB
:103D0000FFFFFFFFFFFFFFFFFFFFFFFFFFFC0000C4
:103D1000A0701C070100000000000000000000006F
:103D20000000000000000000000000000000000093
:103D30000000000000000000000000000000000083
:103D40000000000000000000000000000F70800074
:103D5000000000F8FEFFFFF7E5E5E4E5E5E3E3FF3B
:103D6000FFFFFFFFF7F7F7FFFFCF38070100000065
:103D70000000000000000000000000000000000043
:103D80000000000000000000000000000000000033
:103D90000000000000000000000000000000000023
:103DA00000000000000000000000010304068E9FD8
:103DB0007FBF7FFFFFFFEFDFDDDFDFFFFFFFFFFFE5
:103DC000FFFFFFFF7F070000000000000000000071
:103DD00000000000000000000000000000000000E3
:103DE00000000000000000000000000000000000D3
:103DF00000000000000000000000000000000000C3
:103E000000804020100804060201010000000106A5
:103E10000C1C39393B7B7F7F7F7F7F1F03030407A7
:103E20000C0810302040800000000000000000005E
:103E30000000000000000000000000000000000082
:103E40000000000000000000000000000000000072
:103E50000000000000000000807018060300000051
:103E60000000000000000000000000000000000052
:103E700000000000000010800000000000000000B2
:103E80000000010678800000000000000000000033
:103E90000000000000000000000000000000000022
:103EA0000000000000000000000000000000000012
:103EB0000000E01C03000000000000000000000003
:103EC00000000000000000000000000000000000F2
:103ED0000000001F7E000000000000000000000045
:103EE00000FF0000000000000000000000000000D3
:103EF00000000000000000000000000000000000C2
:103F000000000000000000000000000000000000B1
:103F100000000000000000000000000000000000A1
:103F20000000000000000000000000000000008011
:103F3000C06030100808040402020281C1E1F1F9F6
:103F40007D7C1E170703030602000000000000002E
:103F5000000000000000000000000000000000C1A0
:103F60007E000000000000000000000000000000D3
:103F70000000000000000000000000000000000041
:103F80000000000000000000E03806010000000012
:103F900000002030181C0F0707C3C1E0E0F0F0F864
:103FA000F8F8FCFCFCFCFCFCF8F8F8F0F0E0C000D1
:103FB00000000000000080C070180E030000000028
:103FC00000000000000000000000000000000000F1
:103FD00000000000000000000000000000000000E1
:103FE0000000E03E010000000000000000000000B2
:103FF0008080D0FEFFFFFFFFFFFFFFFFFFFFFFFFFF
:10400000FFFFFFFFFFFFFFFFFFFFFFFFA070380C68
:104010000603010000000000000000000000000096
:104020000000000000000000000000000000000090
:104030000000000000000000000000000000073841
:10404000C00000000000000080F8FEFFFFFFFFFF3F
:10405000FFE7E7E7C4CCCCCDC1C1C3E7FFFFFFFF5B
:10406000FFDFDFDFFFFFF70F0100000000000000AF
:104070000000000000000000000000000000000040
:104080000000000000000000000000000000000030
:104090000000000000000000000000000001060C0D
:1040A000143E7EEE7EFFFFFFFFFFFFFFFFFFFFFFDF
:1040B0007F7FFFEFEFEFEFEFFFFFFFFFFFFFFFFF60
:1040C000FFFF7F0000000000000000000000000073
:1040D00000000000000000000000000000000000E0
:1040E00000000000000000000000000000000000D0
:1040F0000000000000008040603018040602020149
:104100002344C09123E3C383878F8F9FBEBEFEFCF1
:10411000FCFAFEFEFE7F7FBFFFBF0F07030100001A
:10412000000000000000000000000000000000008F
:10413000000000000000000000000000000000007F
:104140000000000000000000000000804030180C5B
:104150000601000000000000000000000000000157
:10416000030205070F0F1F1F1F1F1F1F1F00000047
:1041700000000000010103060C18F0000000000020
:10418000000000000000000000000000000000002F
:10419000000000000000000000000000000000001F
:1041A00000000000E01C070100000000000000000B
:1041B00000000000000000000000000000000000FF
:1041C0000000000000000000080818800000000047
:1041D00000000000000007FC0000000000000000DC
:1041E00000000000000000000000000000000000CF
:1041F00000000000000000000000000000000000BF
:1042000000000000000000000000000000000000AE
:10421000000000000000000000000000000000009E
:10422000000080601C04020100000000000000008B
:10423000000000000000000000000000000000007E
:10424000000000000000000000000000000000006E
:10425000000000000000000000000000000000005E
:10426000000000000000000000000000000000004E
:10427000000000000000000000000000F00E03003D
:10428000000000000000000000000000000000002E
:10429000000000000000000000000000000000001E
:1042A000000000000000000000000000000000000E
:1042B00000000000000000000000000000000000FE
:1042C00000000000000000000000000000000000EE
:1042D00000000000000000FF0000000000000000DF
:1042E00000000000000000000000000000000000CE
:1042F00000000000000000000000000000000000BE
:1043000000000000000000000000000000000000AD
:10431000000000000000000000000000000000009D
:10432000000000000000000000000000000000008D
:104330000000000F30C0000000000000000000007E
:10434000000000000000000000000000000000006D
:1043500000000000C0E000000000000000000000BD
:10436000000000000000000000000000000000004D
:10437000000000000000000000000000000000003D
:10438000000000000000000000000000000000002D
:1043900000000306183060C080000000000080802C
:1043A00040C000000000000000000000000001FF0D
:1043B000FFFF0000000000000000000000000000FF
:1043C00000000000000000000000000000000000ED
:1043D00000000000000000000000000000000000DD
:1043E00000000000000000000000000000000000CD
:1043F000000080808041423D4C0001010303030323
:104400000000000000000000000000070707000097
:10441000000000000000000000000000000000009C
:10442000000000000000000000000000000000008C
:10443000000000000000000000000000000000007C
:104440000000000000000000E0300C02010100004C
:10445000000000000000000000000000000000005C
:10446000000000000000000000000000000000004C
:10447000000000000000000000000000000000003C
:10448000000000000000000000000000000000002C
:1044900000000000000000000000000000C020102C
:1044A000080C0201010000000000000000000000F4
:1044B00000000000000000000000000020207078D4
:1044C00078FCFCFEFEFC080B00020202000009045E
:1044D0000000010202000005240010010524010172
:1044E00001042402060524060001070581031000CB
:1044F0004009040100020A00000007050202400012
:1045000000070583024000000403090412010002B1
:10451000EF02014041233680000101020301417294
:104520006475696E6F204C4C430041726475626F14
:1045300079000030003A0000382E11241FBECFEF62
:10454000DAE0DEBFCDBF13E0A0E0B1E0E8EBFBE6D0
:1045500002C005900D92AC30B107D9F727E0ACE06E
:10456000B3E001C01D92A73BB207E1F712E2CDE92B
:10457000D2E204C02197FE010E94D435CC39D10784
:10458000C9F70E94812E0C94DA350C9400008091BA
:104590000C030895480F592F511D1416150684F564
:1045A000803891056CF597FF02C090E080E04138BB
:1045B000510514F040E850E0481BFB01E770FF276D
:1045C00021E001C0220FEA95EAF777FF02C0695F98
:1045D0007F4FFB0133E0F595E7953A95E1F7F695C6
:1045E000FE2FEE27F795E795E80FF91FEF56FC4FE2
:1045F000415030F08191DF011197822B8C93F8CFDD
:1046000008958F929F92AF92BF92CF92DF92EF92D6
:10461000FF920F931F93CF93DF93DC01FA01F49085
:104620003196949131964F2D50E02223E1F001E034
:1046300010E0892F877011F410E000E0C92FC695B3
:10464000C695C695C00FD12FD11DC49F8001C59FAF
:10465000100DD49F100D1124209FE001219FD00D3B
:104660001124EC0FFD1F4A0F5B1F141615060CF0EA
:10467000A5C09B01290F311D121613060CF09EC018
:10468000603471050CF09AC0309709F497C0062F7A
:1046900007709B0177FF02C0295F3F4F83E035958C
:1046A00027958A95E1F7122F77FF04C0002311F0B8
:1046B0001FEF120F222733272A1B3B0BB7FD02C027
:1046C00030E020E0403851050CF470C050E85A1B2F
:1046D000521B612F012E000C770BE62EE0941F3F3A
:1046E0000CF0E12C41E0892F877009F440E09695A9
:1046F00096959695940F690F711D6930710514F0A8
:1047000098E0911B4E2D410F60E84603E001112413
:10471000AC0FBD1FA20FB31FC02F002E000CDD0B6E
:10472000AF2CA51AFE9C200D311D11242E0F3F1F0A
:104730006FEF70E0002E02C0660F771F0A94E2F759
:1047400060957095962E872E910FA50EBB24BB1CED
:104750009417A1F1FD01EF56FC4F7F01D12CC12C24
:10476000C51630F5F901EC0DFD1D649170E00C2EBD
:1047700002C0660F771F0A94E2F747FD05C0F701F4
:1047800080818921862B8083002349F047303CF4C7
:10479000F701E058FF4F80818821872B8083FFEF4E
:1047A000CF1ADF0A6FEFE61AF60ADACF5F2D90CF45
:1047B0004F5F2A0D3B1DA058BF4FCACFDF91CF914D
:1047C0001F910F91FF90EF90DF90CF90BF90AF902F
:1047D0009F908F900895E1E9F3E0A0E0B8E00080B9
:1047E0000EBC8111012C1197A0FDFDCF0192B9F7EC
:1047F0000DB40895FC0180914003882311F13FB767
:10480000F89482E08093E9002091F200822F90E0FA
:104810001816190614F481E090E0882339F02898DE
:1048200044E640933F034091F1004083222339F056
:104830002091F200211103C02BE62093E8003FBF36
:1048400008958FEF9FEF08952FB7F89483E080933A
:10485000E9009091E800892F807295FF04C0909143
:10486000F20080E4891B2FBF0895809137038111E6
:104870000DC082E08093330384E080933403109270
:1048800036031092350381E08093370383E393E08E
:104890000895CF93DF931F92CDB7DEB76983DC0114
:1048A000ED91FC910280F381E02D41E050E0BE01EA
:1048B0006F5F7F4F09950F90DF91CF91089583E04F
:1048C0008093E9008091F200882319F08AE38093B5
:1048D000E80008950E94242490E00895CF93DF9388
:1048E0001F92CDB7DEB7FC018485958597FD08C082
:1048F0002FEF3FEF358724870F90DF91CF910895F9
:10490000CE0101960E94FA23019719F4898190E063
:10491000F3CF8FEF9FEFF0CF0F931F93CF93DF93E2
:104920001F92CDB7DEB78C01FC018485958597FF7A
:104930000BC0CE0101960E94FA23019771F4898180
:1049400090E0F80195878487F801848595850F901C
:10495000DF91CF911F910F9108958FEF9FEFF1CFCE
:10496000FC018485958597FD0BC09FB7F89482E084
:104970008093E9008091F2009FBF90E00196089536
:104980009FB7F89482E08093E9008091F2009FBF86
:1049900090E0089540912D0350912E0320912B0318
:1049A00030912C0342175307B4F49091E8009570AE
:1049B000E1F39091E80092FD19C08093F10080919D
:1049C0002D0390912E0301968F739927892B19F44B
:1049D0008EEF8093E80080912D0390912E03019635
:1049E00090932E0380932D0381E0089580E0089535
:1049F000DF92EF92FF920F931F93CF93DF93D82E06
:104A00008A01EB017B01E40EF51ECE15DF0559F09E
:104A1000D7FE12C0FE0184910E94CA242196811102
:104A2000F4CF0FEF1FEFC801DF91CF911F910F91CE
:104A3000FF90EF90DF9008958881EECF0F931F9342
:104A4000CF93DF931F92CDB7DEB782E0898342E434
:104A500050E066EC74E480E80E94F8240E9435245B
:104A6000DC0112960D911C910115110589F0D801F8
:104A7000ED91FC910280F381E02DBE016F5F7F4FCD
:104A8000C801099597FD04C0F80100851185ECCF98
:104A900089810F90DF91CF911F910F9108956150FF
:104AA00030F02091F100FC0120830196F8CF289886
:104AB00084E680933F030895AF92BF92CF92DF9236
:104AC000EF92FF920F931F93CF93DF936C017B01C3
:104AD0008B01040F151FEB015E01AE18BF08C01754
:104AE000D10759F06991D601ED91FC910190F081C7
:104AF000E02DC6010995892B79F7C501DF91CF918A
:104B00001F910F91FF90EF90DF90CF90BF90AF90EB
:104B100008953FB7F8948091200390912103A091CC
:104B20002203B091230326B5A89B05C02F3F19F09F
:104B30000196A11DB11D3FBFBA2FA92F982F88271D
:104B4000BC01CD01620F711D811D911D42E0660FF8
:104B5000771F881F991F4A95D1F708958F929F92CA
:104B6000AF92BF92CF92DF92EF92FF926B017C01E6
:104B70000E9489254B015C01C114D104E104F104B8
:104B8000B9F00E948925681979098A099B09683E4C
:104B900073408105910580F321E0C21AD108E10834
:104BA000F10888EE880E83E0981EA11CB11CE4CFAA
:104BB000FF90EF90DF90CF90BF90AF909F908F903D
:104BC00008958F929F92AF92BF92CF92DF92EF9211
:104BD000FF920F931F93CF93DF936C017B018A01A8
:104BE00080910C01882309F45CC0809140038823E4
:104BF00009F457C08091320380FF05C08091E00026
:104C000082608093E000E801B12C8AEFA82E93E047
:104C1000892E2AE3922E209711F4BB20D9F10E940D
:104C2000242481110AC0AA94AA20D9F161E070E07D
:104C300080E090E00E94AE25EECF8C171D0611F0AB
:104C40000CF08C2F9FB7F8948092E9002091E80037
:104C500025FD02C09FBFDFCF282F30E0C21BD30B42
:104C6000F701815020F041914093F100FACFE20E1C
:104C7000F31EBB2021F09092E800B12CEBCF809185
:104C8000E80085FDE7CF9092E800BB24B39420971D
:104C900009F3F3CF5D9884E6809331031016110673
:104CA0003CF081E090E0F6019383828310E000E025
:104CB000C801DF91CF911F910F91FF90EF90DF908E
:104CC000CF90BF90AF909F908F9008952FB7F8949A
:104CD00060911C0370911D0380911E0390911F032E
:104CE0002FBF089580911601882351F00E946626F7
:104CF0002091100130911101CB01821B930B08957B
:104D000090E080E008956F927F928F929F92AF9291
:104D1000BF92CF92DF92EF92FF920F931F93CF93A8
:104D2000DF934C017B01C22F102F98E0A92EB12CEC
:104D3000642E669466946694712CCA0187709927D4
:104D4000892B79F5D40117962D913C91C7019927AC
:104D5000B9010E94C035269DF001279DF00D369DBA
:104D6000F00D11248E0F9F1FD4011596ED91FC912B
:104D7000E80FF91F2081111112C0C095C223C08312
:104D8000DF91CF911F910F91FF90EF90DF90CF9027
:104D9000BF90AF909F908F907F906F900895C22B9F
:104DA000EECFD0E04770C42ED12C83E0660C771C88
:104DB0008A95E1F79E0101C0220F4A95EAF7012F7B
:104DC000A301B701C4010E948326A301485F5F4F7E
:104DD000C5018C199D0902C0D595C7958A95E2F742
:104DE000A7CF5F926F927F928F929F92AF92BF9266
:104DF000CF92DF92EF92FF920F931F93CF93DF93A7
:104E0000EC016A30F1F48D859E859C878B878C89B7
:104E10002F853889820F932F911D988B8F8781E082
:104E200090E0DF91CF911F910F91FF90EF90DF9075
:104E3000CF90BF90AF909F908F907F906F905F903A
:104E40000895AB84BC84693031F429E0A20EB11C12
:104E5000BC86AB86E4CF3DEFA3163FEFB3060CF460
:104E60005DC08F819885A816B9060CF057C0CF8415
:104E7000D8888DEFC8168FEFD8060CF44FC08985FF
:104E80009A85C816D9060CF049C0603208F46FE75D
:104E900080EE860F9FE9960F9A3118F49FEFC91A9A
:104EA000D90A8C3011F08B3119F42FEFC21AD20AC3
:104EB000869534E0839FC00111249C01245C3C4D05
:104EC0007901912C812C162F1170F701E80DF91D35
:104ED000549011112DC0352D3F70532E3501680CA3
:104EE000791C8C81882361F001E089899A89892B5A
:104EF00009F000E02FE0A601B301CE010E94832655
:104F00000989252DA601B301CE010E9483268FEFCA
:104F1000881A980A94E089169104B9F68B8990E072
:104F200004962B853C85820F931F9C878B8777CFB8
:104F300052948FE05822D2CF0F931F93CF93DF93D9
:104F40008C01D0E0C0E0F801EC0FFD1F64916623F6
:104F500041F082EA97E00E94F126892B11F0219618
:104F6000F2CFCE01DF91CF911F910F910895209143
:104F70001403E0911203F0911303CF010296909372
:104F8000130380931203222319F0859194910895BD
:104F9000808191810895E1E7F0E080818D7F8083B9
:104FA0001092910046984798109211030895CF925D
:104FB000DF92EF92FF92CF93DF930E94B727811584
:104FC00020E8920741F4DF91CF91FF90EF90DF90BE
:104FD000CF900C94CB2721E020931103813020E85F
:104FE000920751F480910F03909110039093130353
:104FF000809312030E94B72797FD05C020910E03EE
:10500000222309F45BC020910D03211157C021E038
:1050100020931503EC01DF77209709F052C081E05F
:105020008093160346983FE9C32E3FE0D32EE12C30
:10503000F12CCAEFD0E0E0919F07F091A00709950D
:10504000811103C081E080931603809115038823AA
:1050500029F080911603882309F446C047980E94DE
:10506000B727009709F444C09C01DE010E94013477
:10507000DC01CB0129E0B595A795979587952A95F1
:10508000D1F7109290002AE020939100D0929900DD
:10509000C09298008093170390931803A09319036C
:1050A000B0931A0380917100826080937100DF9148
:1050B000CF91FF90EF90DF90CF900895109215035D
:1050C000A9CF9E0150E040E060E472E48FE090E000
:1050D0000E94AD3369017A0181E0C81AD108E10864
:1050E000F10810921603A7CF4699B8CF479AB7CFC9
:1050F0008FEF9FEFDC01C5CF2D9A0895BC0190E0A2
:1051000080E00C94AE258FB18095807F669B88608F
:105110001C9B8460089510920C033E983F9808955C
:105120003E9A3F9A81E080930C0308959091290361
:10513000982329F490912A03982381E009F480E0D0
:105140000895CF93DF93FC01460F572F511D77FF32
:1051500002C070E060E030E1CA014134510514F052
:1051600080E490E068177907ECF4E038F105A0F4EA
:10517000EB0181E0C1FD84E0C0FD880FC2FD829596
:10518000C87F3C9FD0011124AE0FAF56BC4F9C91FD
:10519000222329F0982B9C936F5F7F4FDDCF809562
:1051A0009823F9CFDF91CF910895EF92FF920F935B
:1051B0001F93CF93DF937C018B01C42FD22F6034D8
:1051C000710510F40E94CA22B8016D0F711D615063
:1051D00071096034710520F44C2FC7010E94CA2266
:1051E00021E04D2FB801C7010E94A128C7018C0FF3
:1051F000911D21E04D2FB8010197DF91CF911F91B3
:105200000F91FF90EF900C94A128CF92DF92EF9234
:10521000FF920F931F93CF93DF936B01122FEC013B
:105220007C01E40EF11CCE15DF0544F4202F412F44
:10523000B601CE010E94A1282196F5CFDF91CF9132
:105240001F910F91FF90EF90DF90CF9008950895F8
:1052500090E080E00895CF93DF93CDE0D1E0EA8144
:105260000E2E000CFF0BED50FE4FE08188E0E802AF
:10527000F0011124E25FFD4F22813381E1E7F0E08C
:1052800080818D7F808381E08093140330931303AA
:10529000209312033093100320930F030E94D7270B
:1052A0000E9466266B837C838D839E83DF91CF91E2
:1052B000089597FF16C010921501109214010E94D4
:1052C0008B2880911401909115010297E9F081E0FB
:1052D00010920D0310920E038130C1F480930D03E0
:1052E0000895833091054CF082E090E09093150191
:1052F000809314010E949028E4CF9093150180932D
:105300001401892BB9F7DBCF82E0E2CF81E08093F3
:105310000E03089580E80E949628882339F0809132
:1053200014019091150101960C94592980E10E9475
:105330009628882331F080911401909115010197EE
:10534000F3CF089580930F018091160181110C9481
:105350002B290895CF93DF93CDE0D1E09983888303
:105360000E9466266B837C838D839E8319861092B0
:10537000A10780E0DF91CF910C94A229CF92DF9218
:10538000EF92FF9289E0C82ED12CE12CF12C0E94E3
:105390003F33A70196010E94AD338091A107861784
:1053A000B1F36093A107FF90EF90DF90CF90089545
:1053B0008F929F92AF92BF920F931F93CF93DF93E1
:1053C000CDB7DEB7A1970FB6F894DEBF0FBECDBF45
:1053D00019A2423008F44AE08E010F5D1F4F842E5F
:1053E000912CB12CA12CA50194010E94DF33E62F52
:1053F000B901CA01EA3044F5E05DD801EE938D01B0
:10540000232B242B252B79F790E080E0109769F06F
:10541000FD0101900020E9F73197AF014A1B5B0BBA
:10542000BD0182EA97E00E945C25A1960FB6F89430
:10543000DEBF0FBECDBFDF91CF911F910F91BF9007
:10544000AF909F908F900895E95CD7CFEF92FF9235
:105450000F931F93CF93DF93C82F9B01CB0168EE6F
:1054600073E00E94AC358B010C2E000CDD0BD09349
:10547000B007C093AF07D093AE07C093AD0788E3E2
:1054800090E09093B2078093B10761E070E020361E
:105490003A4E10F470E060E090E080E04AE00E9454
:1054A000D829CE0104969093B0078093AF079093CC
:1054B000AE078093AD0788E3E82EF12CF092B20797
:1054C000E092B10785E395E40E949C272796D0934C
:1054D000B007C093AF07D093AE07C093AD07F0926B
:1054E000B207E092B10782E395E40A30110510F4A7
:1054F00083E395E40E949C27B80190E080E04AE0B5
:10550000DF91CF911F910F91FF90EF900C94D829CC
:10551000CF92DF92EF92FF92CF93DF936C01092E2F
:10552000000CEE08FF0897FF19C06DE282EA97E0D1
:105530000E94F126EC0166277727CB016C197D09C3
:105540008E099F094AE00E94D8298C0F9D1FDF9188
:10555000CF91FF90EF90DF90CF9008954AE0C70180
:10556000B601DF91CF91FF90EF90DF90CF900C9438
:10557000D8291F920F920FB60F9211248F939F93E9
:105580008091E1009091E100937F9093E10083FF8F
:105590000FC01092E90091E09093EB001092EC00A4
:1055A00092E39093ED001092400398E09093F00006
:1055B00082FF22C093E09093E9009091F20099233A
:1055C00019F09AE39093E80090913103992341F008
:1055D00090913103915090933103911101C05D9AE4
:1055E00090913F03992341F090913F039150909304
:1055F0003F03911101C0289A84FF18C08091E200F6
:105600008E7E81608093E2008091E1008F7E8093A6
:10561000E100809132038E7E8061809332039F91FE
:105620008F910F900FBE0F901F90189580FFF7CFAE
:105630008091E2008E7E80618093E2008091E100A3
:105640008E7E8093E100809132038E7E8160E5CF73
:105650001F920F920FB60F921124CF92DF92EF920A
:10566000FF920F931F932F933F934F935F936F93EB
:105670007F938F939F93AF93BF93EF93FF93CF93BA
:10568000DF93CDB7DEB76C97DEBFCDBF1092E900D8
:105690008091E80083FF25C068E0CE0145960E9416
:1056A0004F2582EF8093E8008D8987FF39C0909164
:1056B000E80090FFFCCF982F907609F034C19E89C6
:1056C0004F89588D2F89F88C911131C0803861F540
:1056D000809130038093F1001092F1008EEF80935F
:1056E000E8006C960FB6F894DEBF0FBECDBFDF9119
:1056F000CF91FF91EF91BF91AF919F918F917F914A
:105700006F915F914F913F912F911F910F91FF905A
:10571000EF90DF90CF900F900FBE0F901F901895D5
:105720009EEF9093E800C7CF1092F100D5CF913053
:1057300059F48111D3CF4130510581F68091300366
:105740008D7F80933003CACF933049F48111C6CF47
:105750004130510519F6809130038260F2CF9530C7
:1057600041F48091E80080FFFCCF20682093E300A3
:10577000B5CF963009F0A9C00B8D1C8D22E0109298
:10578000E90010922E0310922D03F2122EC01092F7
:105790002C0310922B030E941E251F8299E09983EF
:1057A000FA8291E09E8390EA98879AEF99872091F8
:1057B0002D0330912E03275F3F4F3C832B838D8336
:1057C0001092E90010922E0310922D0310932C03D7
:1057D00000932B0349E050E0BE016F5F7F4F80E0F4
:1057E0000E94F8240E941E2579CF10932C03009369
:1057F0002B030E943524DC0112960D911C9101159A
:10580000110509F451C1D801ED91FC910480F58195
:10581000E02DBE016B5E7F4FC8010995009709F02E
:105820003EC1F80100851185EACFF3E0FF120EC0FA
:105830008F89882309F440C0823061F440E867E032
:105840008AE295E40E94052E811148CF81E280937F
:10585000EB0047CF813029F440E86BE08EE195E41E
:10586000F1CF833099F70E943524DC011296ED9038
:10587000FC908E010F5F1F4F6801E114F10479F075
:10588000D701ED91FC910680F781E02DB801C701A9
:105890000995080F111DF701E084F184EECFD801BE
:1058A0001C92F60101900020E9F73197BF016C19B5
:1058B0007D0940E0C601C6CF68E075E4FB01449174
:1058C00050E080E80E94F82409CF973009F4BECF59
:1058D000983021F481E08093F10000CF993009F0F5
:1058E000FDCE837009F0B2CFE7EEF2E081E031E067
:1058F00096E32191222371F08093E9003093EB002D
:10590000DF0111972C912093EC009093ED008F5FB5
:10591000873079F78EE78093EA001092EA008F894A
:1059200080934003DBCE8B8D9C8D1092E90010920A
:105930002E0310922D0390932C0380932B03898DBB
:10594000811192C08E899D89913A49F4813209F082
:105950007DCF47E050E065E071E080E0B3CF913269
:1059600009F074CF833269F48F89988DB0E0A0E09C
:105970008093010190930201A0930301B09304016D
:10598000ADCE803269F48091E80082FFFCCF67E001
:1059900085E091E00E944F258BEF8093E8009ECE3A
:1059A000823209F09BCE8F8980930C01EEEFFFE7E6
:1059B000859194918B3F9C4D51F1E0E0F8E080910E
:1059C000050190910601A0910701B0910801803B6B
:1059D0009440A105B105F1F480910C0180FD1AC03D
:1059E000EE3F8AE0F80789F587E797E791838083A0
:1059F0008091600080932F0388E19BE00FB6F894BC
:105A0000A895809360000FBE9093600067CEEEEF84
:105A1000FAE0D5CF808191818737974709F05ECE34
:105A2000A8958091600088618093600080912F0329
:105A300080936000EE3F2AE0F20789F08091FE0A31
:105A40009091FF0A9183808349CE8081918187372D
:105A5000980751F29093FF0A8093FE0AC5CF1092E7
:105A6000FF0A1092FE0A3ACE0E943524DC011296FB
:105A70000D911C910115110509F4E8CED801ED91A5
:105A8000FC910190F081E02DBE016B5E7F4FC8015B
:105A90000995811123CEF80100851185EBCF1816E9
:105AA00019060CF41BCED2CEF1E0FF12BECE6CE094
:105AB00075E404CF1F920F920FB60F9211242F930B
:105AC0003F938F939F93AF93BF9380911C039091CB
:105AD0001D03A0911E03B0911F0330911B0323E00F
