:100000000C949D1B0C94C51B0C94C51B0C94C51B18
:100010000C94C51B0C94C51B0C94C51B0C94C51BE0
:100020000C94C51B0C94C51B0C942E250C949D257B
:100030000C94C51B0C94C51B0C94C51B0C94C51BC0
:100040000C94C51B0C94C51B0C94C51B0C94C51BB0
:100050000C94C51B0C94C51B0C94C51B0C94CF278A
:100060000C94C51B0C94C51B0C94C51B0C94C51B90
:100070000C94C51B0C94C51B0C94C51B0C94C51B80
:100080000C9419280C94C51B0C94C51B0C94C51B0F
:100090000C94C51B0C94C51B0C94C51B0C94C51B60
:1000A0000C94C51B0C94C51B0C94C51B0B0277014B
:1000B000930277014B02BB004B02BB00BA027701EF
:1000C000930277010B0277014B02770188017701D8
:1000D0000B027701930277014B02BB004B02BB007E
:1000E000BA027701930277010B0277014B023202C9
:1000F0000000BB000B027701930277014B02BB00AB
:100100004B02BB00BA027701930277010B02770121
:100110004B027701880177010B0277010B0277010F
:100120000B02BB000B02BB000B027701EE01770153
:100130000B0277010B0232020080930288009302C7
:1001400088009302880093028800930210019302B2
:100150001001930210014B0210010B0221029302C5
:10016000880093028800930288009302880093021B
:10017000100193021001930210014B0210010B02B7
:100180002102930288009302880093028800930260
:1001900088009302100193021001930210014B0298
:1001A00010010B0210010B021001880110010B025B
:1001B0001001EE0110014B0210010B0210010B02A5
:1001C00010010B02DD01008088019A0288019A0269
:1001D0000B024D010B02A6000B02A60088014D0187
:1001E0000000A6008801A6000B02A6000B02A600D4
:1001F0000B02A6000B02A6008801A6000000A600C4
:100200008801A6008801A6000B024D010B02A60082
:100210000B02A6004B024D010B024D010B02A60082
:10022000EE01A600EE01A600EE01A600EE01A6007A
:100230000000A600B801A600B801A600EE014D011D
:10024000EE01A600EE01A60088014D010000A60007
:100250008801A600EE01A600EE01A600EE01A600B0
:10026000EE01A6008801A6000000A6008801A600F5
:100270008801A6004B024D014B02A6004B02A600CE
:1002800093024D014B024D014B02A6000B02A6004A
:100290000B02A6000B02A6000B024D01008000001D
:1002A000FA000B02FA009302F4014B02F4010B0274
:1002B000F4010B02F4014B0277010B027701EE010E
:1002C000EE020000F4019302FA009302FA004B02DE
:1002D000F4010B02FA000B02FA000B02F4014B02CC
:1002E00077010B027701EE01EE020000FA00EE0149
:1002F000FA009302F4014B02F4010B02F4010B0229
:10030000F4014B0277010B027701EE01F401880141
:10031000F401B801E80300800B020902930209020C
:100320004B0204014B028200880104018801040190
:10033000880182000B0204010B02040193020401F4
:10034000930204014B0204014B028200880109025E
:10035000000082000B020902930209024B02040111
:100360004B028200BA020401BA020401BA028200FE
:1003700010030401BA020401930204014B020401B8
:10038000930204014B0282000B0209020080100359
:10039000FA001003FA00BA02FA009302F401000016
:1003A000F4011003F4011003FA007003F401930246
:1003B000F4010000F401BA02FA009302F4014B02C6
:1003C000F4010000F401BA02FA00BA02FA00930242
:1003D000F4014B02F40100808801E6000B02CD011C
:1003E0000B02E6008801CD018801E6008801E600E5
:1003F0008801E6004B02CD014B02E6008801CD01E9
:100400008801CD010B02CD010B02E6009302E6004C
:100410009302E6009302E6004B02E6000B02CD01D8
:100420004B02CD010B02B40200800000CD010B0293
:10043000E6000000E600EE01E6000B02E600000028
:10044000D10A0B02E6000000E6004B02E6000B02B8
:10045000E60000800B0296000B0296000B0296004D
:100460000B0296000B022C010B0296000B02960069
:100470006E022C010B022C0100005802D2019600E2
:10048000D2019600D2019600D2019600D2012C0131
:10049000D2019600D2019600D20196000B022C01E7
:1004A0000B022C010000C2010B0296000B02960009
:1004B0000B0296000B0296000B022C010B02960019
:1004C0000B0296006E022C01BA022C010B022C01C9
:1004D0000B0296000B02960010032C01BA022C01AD
:1004E0006E022C01D2019600D2019600D201960034
:1004F0000B022C010B022C0100800B0210010000EA
:1005000010010B021001000010016E0210016E02BA
:1005100088000B021001000088000B021001D201BC
:100520001001D2011001EE018800000088000B02CA
:100530002102000032030B021001000010010B0227
:100540001001000010016E0210016E0288000B0203
:100550001001000088000B02100110031001BA0204
:1005600010016E0210010B02210200800B0210012B
:1005700000008800930210010000880010031001A1
:100580004B02100100008800BA0210010000880030
:100590007003100193021001000088001003100185
:1005A0000000880097041001170421020080000059
:1005B000FA000601FA008801FA0088017D0088012E
:1005C000FA0088017D00B801FA004A01FA0006012C
:1005D000FA000000FA000601FA008801FA0088011A
:1005E0007D008801FA0088017D00B801FA004A0107
:1005F000F4010000FA000601FA008801FA008801FF
:100600007D008801FA0088017D00B801FA004A01E6
:10061000FA000601FA000000FA000601FA00F700ED
:10062000FA00F7007D00F700FA00F7007D000601F0
:10063000F40100800B02FA000B02F4018801FA00B9
:100640008801FA008801FA00B801FA000B02FA00EA
:10065000B801FA000B02E8030000EE020B02FA00F8
:100660000B02F4018801EE02B801FA000B02FA0055
:10067000B801FA008801E8030000EE020B02FA005C
:100680000B02F4018801FA008801FA008801FA00DF
:10069000B801FA000B02FA00B801FA000B02F401EB
:1006A0000B02FA000B02FA000B02F4018801FA00B7
:1006B0008801FA008801FA009302FA004B02FA005E
:1006C0000B02FA000B02F40100800B02CD0188013D
:1006D000E6000B02CD018801CD014B02CD0188015E
:1006E000E6008801E6008801E600B801E600B801EE
:1006F000E6008801E6000000E6000B02CD0188015B
:10070000E6000B02CD018801CD014B02CD0188012D
:10071000E6008801E6008801E600B801E600B801BD
:10072000E6008801E6000000E6000B02CD0188012A
:10073000E6000B02CD018801CD014B02CD018801FD
:10074000E6008801E6008801E600B801E600B8018D
:10075000E6008801E6005D01E6004A01E6004A0184
:10076000E6004A01E6005D01E6002601E6002601FA
:10077000E6002601E6004A01E60006019B03008030
:100780000B029D01D201CE000B029D016E029D0164
:10079000D2016C020000D9040B029D01D201CE00EF
:1007A0000B029D016E029D01D2016C0200003B0311
:1007B0000B029D010B029D01D201CE000B029D0197
:1007C0006E02CE009302CE00BA026C026E02CE0020
:1007D0000B026C0200009D010B02CE000B02CE004A
:1007E0000B02CE000B02CE00D201CE00EE019D0125
:1007F0000B026C0200808801E600000073004A01D1
:10080000E600000073005D017300000073008801C2
:100810007300000073000601E6000601E600000018
:10082000E6002601E600000073004A01E600000031
:1008300073002601730000007300060173000000BE
:100840007300C400E600C400E6000000E600880172
:10085000E600000073004A01E600000073005D013D
:10086000730000007300880173000000730006012C
:10087000E6000601E6000000E6002601E6000000B2
:1008800073004A01E60000007300260173000000B7
:1008900073000601E6000080880142040B02880014
:1008A0000B0288000B0288000B02880088011001EF
:1008B000880110014A0110014A01100106011001CE
:1008C0000601100106018800060188000601880063
:1008D000060188002601100106011001060121020F
:1008E000000021020601100106011001260110017D
:1008F00026018800260188004A0110014A011001E2
:100900005D019901060188004A01100106011001EC
:1009100026011001F7001001060121020B0210014F
:10092000008000008E0088018E0088018E00880102
:100930008E0093021D0100001D014B021D010000ED
:100940008E000B028E004B028E000B02AC010000E9
:100950008E000B028E000B028E000B028E00BA027C
:100960008E004B028E004B028E004B028E004B021B
:100970008E000B028E000B028E000B028E00BA025C
:100980008E004B028E004B028E004B028E004B02FB
:100990008E0088018E0088018E0088018E009302EF
:1009A0001D0100001D014B021D0100008E000B0205
:1009B0008E004B028E000B021D0100800B02CD0148
:1009C0000B02E6000B02E600B801CD018801CD0163
:1009D0000B02E6000B02E6000B02E600B801CD01B7
:1009E0008801CD010B02B4020B02E6000B02E60007
:1009F000B801CD018801CD019302E6009302E60023
:100A00009302E6004B02CD010B02CD0100800000F5
:100A100077010B02BB000B02BB000B02BB000B02F9
:100A2000BB000B02BB006E0277010B0277010000D6
:100A300032020B02BB000B02BB006E02BB006E0257
:100A4000BB006E02BB006E0277010B027701000053
:100A5000BB001003BB001003BB001003BB0010035E
:100A600077010B02770100801704AC011704AC0179
:100A70001003AC010000D600970482029704AC0179
:100A80001003AC010000AC011704AC011704AC0169
:100A90001003AC010000D600930282029302AC0165
:100AA0000B02AC010000AC011704AC011704AC014F
:100AB0001003AC010000D600970482029704AC0139
:100AC0001003AC011704590300800B02CD010B0287
:100AD000CD018801E6008801CD014B02B4024B0232
:100AE000CD018801CD018801E6008801E6000B02F6
:100AF000CD010B02CD018801E6008801CD014B023A
:100B0000B4029302CD018801CD010000CD010B029A
:100B1000CD010B02CD018801E6008801CD014B0219
:100B2000B4024B02CD018801CD018801E6008801A5
:100B3000E6000B02E6000B02E6000B02E6000B02E9
:100B4000E6000B02E6000B02E6000B02E6000B02D9
:100B5000E600EE01E600EE01E600EE01E600EE0141
:100B6000E6000B02CD0100800B029D000B023B0151
:100B700000009D0088019D0088013B014B023B0164
:100B80004B023B014B029D0088019D0088013B0107
:100B900000009D000B029D000B023B0100009D0028
:100BA00088019D0088013B014B023B014B023B0148
:100BB0004B029D0088019D0088013B0100009D00C3
:100BC0000B029D000B023B0100009D0088019D006F
:100BD00088013B014B023B014B023B014B029D0054
:100BE00088019D0088013B0100009D00EE013B0152
:100BF0000B023B0100003B014B023B010B023B019E
:100C000000801003E6001003E600BA02E60093023B
:100C1000CD010000CD011003CD011003E60010034B
:100C2000E6007003CD011003E6009302CD0110032E
:100C3000E6001003E600BA02E6009302CD010000D0
:100C4000CD011003CD011003E6001003E600700390
:100C5000CD011003E6009302E6009302E600BA021B
:100C6000E6009302CD014B02CD010000CD014B0205
:100C7000E600BA02E6009302CD014B02CD0100006E
:100C8000CD014B02E600BA02E6009302CD014B0211
:100C9000CD010000CD014B02E600BA02E6000000E3
:100CA000E6009302E6000000E6000B02E60000808A
:100CB0001003F4019302FA000B02EE020000F401AB
:100CC0004B02F401EE01FA008801EE020000F4018B
:100CD0001003F4019302FA000B02F4010B02FA0074
:100CE0000B02FA000B02FA004B02F4019302F4012A
:100CF0000B02F4010000F4011003F4019302FA0066
:100D00000B02EE020000F4014B02F401EE01FA00C6
:100D10008801EE020000FA008801FA00B801FA002A
:100D20000B02FA00B801FA008801FA00B801FA00D3
:100D30000B02FA000B02FA008801FA009302F40198
:100D40004B02F4010B02F40100800B0288000B023D
:100D500088000B0288000B028800880110018801BE
:100D600088004A0188004A0188004A0188004A0137
:100D70008800060199010601880006018800060125
:100D80008800060188000601880006018800260107
:100D900010010601100106012102008057484F276B
:100DA00053204D590A4C4954544C450A4441494B2F
:100DB000494E4920424142590057484F2753204D40
:100DC000590A4C4954544C4520424142590A42491F
:100DD0005244005748454E20594F552752450A4422
:100DE0004F4E4520574954480A594F5552204841C3
:100DF0004D0A594F55205448524F572049540A4FD5
:100E00004E205448452047524F554E4400574527E1
:100E100052450A414C4D4F535420484F4D450057C1
:100E200045204152450A4452455353494E472055A7
:100E3000500A415320412046414D494C590A4F46E2
:100E400020534B454C45544F4E530057415348494E
:100E50004E470A594F5552204641434500285745B1
:100E6000204255494C442049540A555020414E4493
:100E7000205448454E0A5745204255494C44204984
:100E8000540A444F574E2920544849530A544F5747
:100E90004E2048415320474F540A41204C4F542084
:100EA0004F460A434F4E535452554354494F4E00F8
:100EB0005354524545540A535745455045520050E6
:100EC000555454494E47204F4E0A594F55522050C1
:100ED000414E54530A4C494B4520410A4249472050
:100EE000424F5900504F4F5020535455434B0A54D2
:100EF0004F20412042555454004F4E452054574FE7
:100F00002054485245450A464F55522046495645B9
:100F1000205349580A534556454E204549474854A1
:100F20000A4E494E452054454E004D5920424142FB
:100F3000590A4C4F56455320544F0A474F20504FA3
:100F40004F5059004D5920424142592049530A41BE
:100F50002050554E4348494E470A4D414348494E5B
:100F60004521004D522E205354414E44494E470ACC
:100F70002857484F2753204D590A4C4954544C4543
:100F80000A5354414E44494E4720424F5929004C80
:100F90004554275320474F205045450A5749544848
:100FA000204441440049205448494E4B0A41204CBA
:100FB0004F542041424F55540A52494E53494E47CF
:100FC00020544841540A434F4646454520504F540B
:100FD0000049204D414B4520410A4C4954544C4551
:100FE000205441434F004920474F54204120524F45
:100FF000434B0A494E204D5920504F434B45540016
:1010000047555920494E20410A434F5020434152F1
:101010000A52554E4E494E4720410A524544204CF3
:10102000494748540047455454494E472050415081
:10103000410A534F4D4520434F46464545004441E4
:10104000444120444F0A284D414D41204D4F290035
:10105000425945204259450A425542424C45530A9D
:10106000425945204259450A424154485741544546
:101070005200425542424C45530A425542424C4569
:10108000530A2857484F275320474F540A5448457E
:1010900020425542424C45532900424F554E434948
:1010A0004E4720410A42414C4C2C0A424F554E4378
:1010B000494E4720410A424F554E43592042414C28
:1010C0004C004241425920534B494E00414E592059
:1010D0004B494E44204F460A43415220414E442042
:1010E000414E590A4B494E44204F462054525543D5
:1010F0004B0A28414E59204B494E44204F460A4145
:101100004E59204341520A414E4420545255434BBC
:10111000290000000000003E5B4F5B3E3E6B4F6BC2
:101120003E1C3E7C3E1C183C7E3C181C577D571CC8
:101130001C5E7F5E1C00183C1800FFE7C3E7FF0041
:1011400018241800FFE7DBE7FF30483A060E26298F
:10115000792926407F050507407F05253F5A3CE752
:101160003C5A7F3E1C1C08081C1C3E7F14227F2218
:10117000145F5F005F5F06097F017F006689956AE3
:10118000606060606094A2FFA29408047E0408106E
:10119000207E201008082A1C08081C2A08081E1097
:1011A0001010100C1E0C1E0C30383E3830060E3E4F
:1011B0000E06000000000000005F000000070007AE
:1011C00000147F147F14242A7F2A122313086462D8
:1011D00036495620500008070300001C2241000039
:1011E00041221C002A1C7F1C2A08083E0808008097
:1011F000703000080808080800006060002010082F
:1012000004023E5149453E00427F4000724949492F
:10121000462141494D331814127F10274545453961
:101220003C4A494931412111090736494949364665
:101230004949291E00001400000040340000000845
:1012400014224114141414140041221408020159E8
:1012500009063E415D594E7C1211127C7F49494975
:10126000363E414141227F4141413E7F494949410A
:101270007F090909013E414151737F0808087F0039
:10128000417F41002040413F017F081422417F40BF
:101290004040407F021C027F7F0408107F3E414196
:1012A000413E7F090909063E4151215E7F09192906
:1012B00046264949493203017F01033F4040403FF0
:1012C0001F2040201F3F4038403F63140814630331
:1012D000047804036159494D43007F4141410204B0
:1012E000081020004141417F0402010204404040B7
:1012F0004040000307080020545478407F284444AD
:10130000383844444428384444287F3854545418C6
:1013100000087E090218A4A49C787F0804047800C1
:10132000447D40002040403D007F102844000041A3
:101330007F40007C047804787C08040478384444B6
:101340004438FC1824241818242418FC7C080404AD
:1013500008485454542404043F44243C4040207C16
:101360001C2040201C3C4030403C44281028444C69
:101370009090907C4464544C440008364100000036
:10138000770000004136080002010204023C2623D7
:10139000263C1EA1A161123A4040207A385454558F
:1013A000592155557941215454784121555478405B
:1013B00020545579400C1E527212395555555939E1
:1013C0005454545939555454580000457C41000236
:1013D000457D420001457C40F0292429F0F0282574
:1013E00028F07C545545002054547C547C0A097FD5
:1013F0004932494949323248484832324A484830ED
:101400003A4141217A3A42402078009DA0A07D399E
:10141000444444393D4040403D3C24FF2424487E20
:101420004943662B2FFC2F2BFF0929F620C0887E0D
:10143000090320545479410000447D413048484A12
:1014400032384040227A007A0A0A727D0D19317DC5
:101450002629292F28262929292630484D40203899
:101460000808080808080808382F10C8ACBA2F1058
:101470002834FA00007B000008142A142222142ABF
:1014800014089500220095AA005500AAAA55AA554D
:10149000AA000000FF00101010FF00141414FF0039
:1014A0001010FF00FF1010F010F0141414FC0014C2
:1014B00014F700FF0000FF00FF1414F404FC1414E0
:1014C00017101F10101F101F1414141F00101010DD
:1014D000F0000000001F101010101F10101010F06E
:1014E00010000000FF101010101010101010FF104E
:1014F000000000FF140000FF00FF00001F10170095
:1015000000FC04F414141710171414F404F400006D
:10151000FF00F714141414141414F700F71414141F
:10152000171410101F101F141414F4141010F010BE
:10153000F000001F101F0000001F14000000FC142A
:101540000000F010F01010FF10FF141414FF14101E
:1015500010101F00000000F010FFFFFFFFFFF0F071
:10156000F0F0F0FFFFFF0000000000FFFF0F0F0F83
:101570000F0F38444438447C2A2A3E147E02020667
:1015800006027E027E0263554941633844443C04AE
:10159000407E201E2006027E020299A5E7A5991C26
:1015A0002A492A1C4C7201724C304A4D4D30304849
:1015B000784830BC625A463D3E494949007E0101A7
:1015C000017E2A2A2A2A2A44445F444440514A443C
:1015D0004040444A51400000FF0103E080FF00000A
:1015E00008086B6B083612362436060F090F060002
:1015F0000018180000001010003040FF0101001F0B
:1016000001011E00191D1712003C3C3C3C0000006B
:10161000000000B00000A170E150964F26900F1D11
:10162000070C009669004AE44A004844400080687C
:1016300010000F99FB8F9DBDBBFB77D4D4DF1F1A21
:101640001AFE7F5D5DFF805A0000A0A4AA0010BAB8
:101650003400FF5953F3FF9B9B9EFFB9B996FF954A
:1016600095D19FF4940FFC295F91FF1838F8FF92F1
:1016700094FFFF95D5F7BFB5DDD7F18F81F1F788DE
:10168000C8F779C6467909FD9B090196F800828161
:101690008280507162007756560076763700A2B786
:1016A0007301077206007827500073347400775175
:1016B00076007F55F700477110003247720073645F
:1016C000730015A2750061679400009F6060F4F2DA
:1016D000F6F2D5F08D14A1C881CFD9F1AF2000CC9E
:1016E00010C2109A10721050103E1025100010E613
:1016F0000FD10FA50F8F0F630F440F2A0FF90EE4C0
:101700000EBF0EB00E5D0E4B0E1F0E0D0ED30DB99B
:101710000D9C0D0704060F0000000000060F0006D8
:10172000000000060F00060009065C4000000000F3
:1017300000000000000000000000000000000000A9
:101740000000808080404040408080800000000099
:101750000000000000000000000000000000000089
:101760000000000000000000000000000000000079
:101770000000000000000000000000000000000069
:101780000000000000000000000000000000000059
:10179000000000000080E0F0E8F4FAFEFDFFBE7EED
:1017A0003B040400000000000101010102040810D4
:1017B000E000000000000000000000000000000049
:1017C0000000000000000000000000000000000019
:1017D0000000000000000000000000000000000009
:1017E000000000000000000000000000000000F009
:1017F0007E3D1F1F0F87C7E3E0F0F0F8F8F8F8F818
:10180000F8F8F0F0E0E0800000000080F00F000049
:1018100000000000000000000000000000000000C8
:1018200000000000000000000000000000000000B8
:1018300000000000000000000000000000000000A8
:10184000000000000000000000F0FF0000000000A9
:10185000E8FF7F7F5F7F7F3F7FFFFFFFFF7F3FFFCF
:10186000FFFFFFC000C0740F010000000000000077
:101870000000000000000000000000000000000068
:101880000000000000000000000000000000000058
:101890000000000000000000000000000000000048
:1018A000000000000000030C102040C3FFFFFFFFFA
:1018B000FFFF7F7E7FFFFFFFFFFFFFFFFFFFFF1B9D
:1018C0000701000000000000000000000000000010
:1018D0000000000000000000000000000000000008
:1018E00000000000000000000000000000000000F8
:1018F00000000000000000000000000000000000E8
:10190000000080402030080701070B1367EFEEEE60
:10191000FEFFFFFFFFFFFF0F0B1110202040808014
:1019200000000000000000000000000000000000B7
:1019300000000000000000000000000000000000A7
:101940000000000000000000000000000000000097
:101950000000000000000000C020180C0201000080
:10196000000000000000000000000101010303036B
:10197000034300000000000000000000030438C022
:101980000000000000000000000000000000000057
:101990000000000000000000000000000000000047
:1019A0000000000000000000000000000000000037
:1019B0000000F80700000000000000000000000028
:1019C00000000000000000000000000000003EFCDD
:1019D000000000000000000000000001FE00000008
:1019E00000000000000000000000000000000000F7
:1019F00000000000000000000000000000000000E7
:101A000000000000000000000000000000000000D6
:101A1000000000000000000080C040A020201090C6
:101A2000B030101010103010102020404080000006
:101A300000000000000000000000000000000000A6
:101A40000000000000000000000000000000000096
:101A50000000000000000000000000000000000086
:101A6000000000000000000000000000000000C0B6
:101A700070ECF6EDFE674B02080501010000000066
:101A80000000000000000000000001020CF0000057
:101A90000000000000000000000000000000000046
:101AA0000000000000000000000000000000000036
:101AB0000000000000000000000000000000000026
:101AC000000000000000000000003CC30E070703F8
:101AD0000100C0F8FCFCFEFEFFFFFEFFFFFFFEFE64
:101AE000FEFCF8F000000000F00F00000000000015
:101AF00000000000000000000000000000000000E6
:101B000000000000000000000000000000000000D5
:101B100000000000000000000000000000000000C5
:101B2000000000000000001FE000000000F8D7C027
:101B3000CBCBCFC7CFFFFFFFFFEFEFEFEFFFFFFFF5
:101B4000FFA0E01E010000000000000000000000F7
:101B50000000000000000000000000000000000085
:101B60000000000000000000000000000000000075
:101B70000000000000000000000000000000000065
:101B8000000000000001020C1CBF7FFFFFFFCBDB49
:101B9000DB9BFFFFFFFFFFFFF7FFFF1F0F070000AB
:101BA0000000000000000000000000000000000035
:101BB0000000000000000000000000000000000025
:101BC0000000000000000000000000000000000015
:101BD000000000000000000000000000000080C0C5
:101BE000201008080601000000000D193B3B7B7F18
:101BF0007F7F7F7F3F070001010102040408083056
:101C00004080000000000000000000000000000014
:101C100000000000000000000000000000000000C4
:101C200000000000000000000000000000000000B4
:101C3000000000000000C0380C030100000000009C
:101C4000000000000000000000000000000000088C
:101C5000C0000000000000000000000000000718A5
:101C6000E000000000000000000000000000000094
:101C70000000000000000000000000000000000064
:101C80000000000000000000000000000000000054
:101C900000F8070000000000000000000000000045
:101CA0000000000000000000000000000F3F0000E6
:101CB00000000000000000000000000003FC000025
:101CC0000000000000000000000000000000000014
:101CD0000000000000000000000000000000000004
:101CE00000000000000000000000000000000000F4
:101CF00000000000000000000000000000000000E4
:101D00000080C04040402020602020202020602013
:101D10002040408080000000000000000000000023
:101D200000000000000000000000000000000000B3
:101D300000000000000000000000000000000000A3
:101D40000000000000000000000000000000000093
:101D50000000000000000000E0D8ECC20502050011
:101D60000000000000000000000000000000000073
:101D70000101020C70800000000000000000000063
:101D80000000000000000000000000000000000053
:101D90000000000000000000000000000000000043
:101DA0000000000000000000000000000000000033
:101DB0000000F08F0C07000200C0E0E8F8FCFCFE19
:101DC000FEFEFEFEFEFCFCF8F8F0C0000000000085
:101DD000F00F000000000000000000000000000004
:101DE00000000000000000000000000000000000F3
:101DF00000000000000000000000000000000000E3
:101E000000000000000000000000000000003FC0D3
:101E1000000000F0FEC7CBCBCBC3C7CFFFFFFFFF57
:101E2000DFCFDFDFFFFFFF0080601807000000004A
:101E300000000000000000000000000000000000A2
:101E40000000000000000000000000000000000092
:101E50000000000000000000000000000000000082
:101E6000000000000000000000000001060CBEDFC2
:101E7000FFFFFFE7DBDF9B9BFFFFFFFFFFFFFFFF96
:101E8000FF6F1F06030000000000000000000000BC
:101E90000000000000000000000000000000000042
:101EA0000000000000000000000000000000000032
:101EB0000000000000000000000000000000000022
:101EC0000080C060201008040603010000000A041E
:101ED000193B7B7F7F7FFFFF7F3F0703050E0C18B9
:101EE0003020C08000000000000000000000000062
:101EF00000000000000000000000000000000000E2
:101F000000000000000000000000000000000000D1
:101F1000000000000000000000C0380E03010000B7
:101F200000000000000000000000000000000000B1
:101F300000000290C000000000000000000000014E
:101F4000020C708000000000000000000000000093
:101F50000000000000000000000000000000000081
:101F60000000000000000000000000000000000071
:101F700000000000FC030000000000000000000062
:101F80000000000000000000000000000000000F42
:101F90003F0000000000000000000000000000FF03
:101FA0000000000000000000000000000000000031
:101FB0000000000000000000000000000000000021
:101FC0000000000000000000000000000000000011
:101FD0000000000000000000000000000000000001
:101FE0000000008080804040C04040404040C040F1
:101FF00080808080000000000000000000000000E1
:1020000000000000000000000000000000000000D0
:1020100000000000000000000000000000000000C0
:1020200000000000000000000000000000000000B0
:102030000000000000000000C0B0D8F4FACF010E8C
:10204000000000000000000000000000000000018F
:1020500001020C18E08000000000000000000000F9
:102060000000000000000000000000000000000070
:102070000000000000000000000000000000000060
:102080000000000000000000000000000000000050
:10209000000000FF391F0F070781C0C0F0F8F8FCEF
:1020A000FCFCFCFCFCFCF8F8F8F0E0000000000090
:1020B000F80F000000000000000000000000000019
:1020C0000000000000000000000000000000000010
:1020D0000000000000000000000000000000000000
:1020E0000000000000000000000000000000007F71
:1020F00080000000E0FEAD87878F8F8FFFFFFFFF1E
:10210000FF9FFFDFFFFFFFF88040300F000000005F
:1021100000000000000000000000000000000000BF
:1021200000000000000000000000000000000000AF
:10213000000000000000000000000000000000009F
:10214000000000000000000000000000030618303E
:10215000FF3FFFFFDF8FB7B7B7FFFFFFFFFFFFFFB7
:10216000FFFF7F3F070000000000000000000000AC
:10217000000000000000000000000000000000005F
:10218000000000000000000000000000000000004F
:10219000000000000000000000000000000000003F
:1021A000000000000080402010080C060100000123
:1021B000011B33777777F7FFFFFFFF3F0307020C21
:1021C00008102060408000000000000000000000B7
:1021D00000000000000000000000000000000000FF
:1021E00000000000000000000000000000000000EF
:1021F000000000000000000000000000E0180C02D9
:1022000001000000000000000000000000000000CD
:10221000000000000010800000000000000000002E
:102220000001030CF00000000000000000000000AE
:10223000000000000000000000000000000000009E
:10224000000000000000000000000000000000008E
:1022500000000000000000FF01000000000000007E
:10226000000000000000000000000000000000006E
:1022700000007F20000000000000000000000000BF
:1022800000FF00000000000000000000000000004F
:10229000000000000000000000000000000000003E
:1022A000000000000000000000000000000000002E
:1022B000000000000000000000000000000000001E
:1022C000000000808040404020202020202020600E
:1022D00020404040C08000000000000000000000DE
:1022E00000000000000000000000000000000000EE
:1022F00000000000000000000000000000000000DE
:1023000000000000000000000000000000000000CD
:1023100000000000000000000000E0D8ECFAA54238
:1023200000000000000000000000000000000000AD
:10233000000001020418E00000000000000000009E
:10234000000000000000000000000000000000008D
:10235000000000000000000000000000000000007D
:10236000000000000000000000000000000000006D
:1023700000000000E0FF0E07030301C0E0E8F8FCE6
:10238000FCFEFEFCFEFEFEFCFCFCF8F08000000003
:1023900000F0070000000000000000000000000046
:1023A000000000000000000000000000000000002D
:1023B000000000000000000000000000000000001D
:1023C000000000000000000000000000000000000D
:1023D0003FF780000000F8F7C2C3C3C3C7DFFFFFA9
:1023E000FFFFCFCFEFFFFFFFFF40C0701E010000D7
:1023F00000000000000000000000000000000000DD
:1024000000000000000000000000000000000000CC
:1024100000000000000000000000000000000000BC
:1024200000000000000000000000000000000306A3
:10243000183AFF7F7F7FE3CDCFCFABFFFFFFFFFFDA
:10244000FFFFFF3F06010000000000000000000049
:10245000000000000000000000000000000000007C
:10246000000000000000000000000000000000006C
:10247000000000000000000000000000000000005C
:102480000000000000804020100804060201000047
:102490000000001D1D3B3B7B7F7F7F7F3F010307CB
:1024A000060C08103020C0000000000000000000F2
:1024B000000000000000000000000000000000001C
:1024C000000000000000000000000000000000000C
:1024D00000000000000000000000000000C0300C00
:1024E00003000000000000000000000000000000E9
:1024F00000000000000008C0000000000000000014
:10250000000000030EF000000000000000000000CA
:1025100000000000000000000000000000000000BB
:1025200000000000000000000000000000000000AB
:1025300000000000000000E01E030000000000009A
:10254000000000000000000000000000000000008B
:102550000000001F18000000000000000000000044
:102560000000FF000000000000000000000000006C
:10257000000000000000000000000000000000005B
:10258000000000000000000000000000000000004B
:10259000000000000000000000000000000000003B
:1025A000000000804040202020201010101010104B
:1025B000102020206040808000000000000000000B
:1025C000000000000000000000000000000000000B
:1025D00000000000000000000000000000000000FB
:1025E00000000000000000000000000000000000EB
:1025F00000000000000000000000C030EC160100E8
:1026000001000000000000000000000000000000C9
:1026100000000001030638C00000000000000000B8
:1026200000000000000000000000000000000000AA
:10263000000000000000000000000000000000009A
:10264000000000000000000000000000000000008A
:102650000000000000FC0303010100A0F038F8FEB8
:10266000FEFFFFFFFFFFFFFEFEFEFCF8E0000000A4
:1026700080E03C03000000000000000000000000BB
:10268000000000000000000000000000000000004A
:10269000000000000000000000000000000000003A
:1026A000000000000000000000000000000000002A
:1026B000001F60800000FEFFF1F0F1E1E1E3FFFFA9
:1026C000FFFFE7F7F7FFFFFFFF806018060100003C
:1026D00000000000000000000000000000000000FA
:1026E00000000000000000000000000000000000EA
:1026F00000000000000000000000000000000000DA
:1027000000000000000000000000000000008081C8
:10271000864A7F6F1F3B3176E7E7FFFFFFFFFFFF32
:10272000FFBFFF0B070100000000000000000000D9
:102730000000000000000000000000000000000099
:102740000000000000000000000000000000000089
:102750000000000000000000000000000000000079
:10276000000080C0201008040201010000000000E9
:10277000000203060E0E0E1F1F1F1F07000001039D
:1027800003060C183060800000000000000000000C
:102790000000000000000000000000000000000039
:1027A0000000000000000000000000000000000029
:1027B000000000000000000000000080F00E01009A
:1027C0000000000000000000000000000000000009
:1027D000000000000000F800000000000000000001
:1027E00000000107788000000000000000000000E9
:1027F00000000000000000000000000000000000D9
:1028000000000000000000000000000000000000C8
:10281000000000000000C03F0100000000000000B8
:1028200000000000000000000000000000000000A8
:102830000000030200000000000000000000000093
:10284000001FE00000000000000000000000000089
:102850000000000000000000000000000000000078
:102860000000000000000000000000000000000068
:102870000000000000000000000000000000000058
:10288000008040A0D0D0E8E8FCF4F4BC04040404C8
:102890000C040C08081030204080000000000000EC
:1028A0000000000000000000000000000000000028
:1028B0000000000000000000000000000000000018
:1028C0000000000000000000000000000000000008
:1028D000000000000000000000C030ECFB7F7F3FE4
:1028E0001F0F858380C0C0C0C0C0C08080000000B2
:1028F0000000000000C13E000000000000000000D9
:1029000000000000000000000000000000000000C7
:1029100000000000000000000000000000000000B7
:1029200000000000000000000000000000000000A7
:10293000000000F807000301000080F85C3F7FFF03
:10294000FFFFFFFFFFFFFFFFFFFFFFF8000040E07A
:102950001C03000000000000000000000000000058
:102960000000000000000000000000000000000067
:102970000000000000000000000000000000000057
:102980000000000000000000000000000000043F04
:102990006080008080FEFFFEFDFDFDFDF9F8FFFF79
:1029A000FFFFF9FDFDFDFFFFF01C0300000000002C
:1029B0000000000000000000000000000000000017
:1029C0000000000000000000000000000000000007
:1029D00000000000000000000000000000000000F7
:1029E00000000000000000000000000000808142A4
:1029F000473F1F0F4F9F9C3D3979FDFDFFFFFF7F34
:102A00003F6F9F0300000000000000000000000076
:102A100000000000000000000000000000000000B6
:102A200000000000000000000000000000000000A6
:102A30000000000000000000000000000000000096
:102A400000806030180C0602010000000000000148
:102A500001030307070F0F0F0F0F0700000001010D
:102A6000030604081020C000000000000000000061
:102A70000000000000000000000000000000000056
:102A80000000000000000000000000000000000046
:102A900000000000000000000000C03C0F0100002A
:102AA0000000000000000000000000000000000026
:102AB0000000000000FC000000000000000000001A
:102AC000000000073CC00000000000000000000003
:102AD00000000000000000000000000000000000F6
:102AE00000000000000000000000000000000000E6
:102AF0000000000000F807000000000000000000D7
:102B000000000000000000000000000000000000C5
:102B100000030000000000000000000000000000B2
:102B200000FF0000000000000000000000000000A6
:102B30000000000000000000000000000000000095
:102B40000000000000000000000000000000000085
:102B50000000000000000000000080C02050280499
:102B60000602010102010000000000000001000156
:102B70000202040C081020C0000000000000000049
:102B80000000000000000000000000000000000045
:102B90000000000000000000000000000000000035
:102BA0000000000000000000000000000000000025
:102BB00000000000E01C7B3E030300000080C0C05A
:102BC000C0E0E0E0E0E0E0E0C0C0C0800000000065
:102BD000000000017E000000000000000000000076
:102BE00000000000000000000000000000000000E5
:102BF00000000000000000000000000000000000D5
:102C000000000000000000000000000000000000C4
:102C1000FF0000000000E07E3E3EBF7F7FFFFFFF21
:102C2000FFFFFFFFFFFFFFFFFFF800000080780FAE
:102C30000000000000000000000000000000000094
:102C40000000000000000000000000000000000084
:102C50000000000000000000000000000000000074
:102C6000000000000000000000000000031C608065
:102C700080FFFFFDFCFC7CBCF8787FFFFFFFFDFDC3
:102C8000FDFDFFFFFFFFE0300E010000000000002F
:102C90000000000000000000000000000000000034
:102CA0000000000000000000000000000000000024
:102CB0000000000000000000000000000000000014
:102CC000000000000000000000008081434D3F0F25
:102CD0000F9CBD7B7B7BFFFFFFFFFFFFFF3F7FFF65
:102CE000478300000000000000000000000000001A
:102CF00000000000000000000000000000000000D4
:102D000000000000000000000000000000000000C3
:102D1000000000000000000000000000000000C0F3
:102D20002010080402010000000000000102030757
:102D30000F0F0F0F0F1F0F0703000000000001010E
:102D400002040C1830C080000000000000000000E9
:102D50000000000000000000000000000000000073
:102D60000000000000000000000000000000000063
:102D70000000000000000080780601000000000054
:102D80000000000000000000000000000000000043
:102D90000000F8F00000000000000000000000004B
:102DA0000000030EF0000000000000000000000022
:102DB0000000000000000000000000000000000013
:102DC0000000000000000000000000000000000003
:102DD0000000F01F000000000000000000000000E4
:102DE00000000000000000000000000000000107DB
:102DF00000000000000000000000000000000000D3
:102E0000017E8000000000000000000000000000C3
:102E100000000000000000000000000000000000B2
:102E200000000000000000000000000000000000A2
:102E30000000000000000000000000000000000092
:102E40000000000000804020D0E8ECF6FAFAFC7D9B
:102E5000BE3C1C0D05010000010101000002010241
:102E6000040830C000000000000000000000000066
:102E70000000000000000000000000000000000052
:102E80000000000000000000000000000000000042
:102E9000000000000000000000000000E0100CE254
:102EA000F9FD7F3F1F0F078180C0C0E1E1E0E0E056
:102EB000E0E0E0C0C0800000000000000000C0387A
:102EC00007000000000000000000000000000000FB
:102ED00000000000000000000000000000000000F2
:102EE00000000000000000000000000000000000E2
:102EF000000000000000F00F0000030100000000CF
:102F0000FCFEFFFFFFFFFFFFFFFFFFFFFFFFFFFFD5
:102F1000FFFFFFFC0000A0701C0701000000000084
:102F200000000000000000000000000000000000A1
:102F30000000000000000000000000000000000091
:102F40000000000000000000000000000000000081
:102F500000000F708000000000F8FEFFFFF7E5E5BD
:102F6000E4E5E5E3E3FFFFFFFFFFF7F7F7FFFFCF40
:102F70003807010000000000000000000000000011
:102F80000000000000000000000000000000000041
:102F90000000000000000000000000000000000031
:102FA0000000000000000000000000000000000021
:102FB000010304068E9F7FBF7FFFFFFFEFDFDDDF92
:102FC000DFFFFFFFFFFFFFFFFFFF7F0700000000A5
:102FD00000000000000000000000000000000000F1
:102FE00000000000000000000000000000000000E1
:102FF00000000000000000000000000000000000D1
:1030000000000000000000804020100804060201BB
:103010000100000001060C1C39393B7B7F7F7F7F5C
:103020007F1F030304070C081030204080000000BD
:103030000000000000000000000000000000000090
:103040000000000000000000000000000000000080
:103050000000000000000000000000000000807080
:10306000180603000000000000000000000000003F
:1030700000000000000000000000000010800000C0
:103080000000000000000000010678800000000041
:103090000000000000000000000000000000000030
:1030A0000000000000000000000000000000000020
:1030B0000000000000000000E01C03000000000011
:1030C0000000000000000000000000000000000000
:1030D0000000000000000000001F7E000000000053
:1030E00000000000000000FF0000000000000000E1
:1030F00000000000000000000000000000000000D0
:1031000000000000000000000000000000000000BF
:1031100000000000000000000000000000000000AF
:10312000000000000000000000000000000000009F
:10313000000000000080C060301008080404020293
:103140000281C1E1F1F97D7C1E170703030602002D
:10315000000000000000000000000000000000006F
:103160000000000000C17E00000000000000000020
:10317000000000000000000000000000000000004F
:103180000000000000000000000000000000E03827
:1031900006010000000000002030181C0F0707C3C4
:1031A000C1E0E0F0F0F8F8F8FCFCFCFCFCFCF8F8FE
:1031B000F8F0F0E0C00000000000000080C07018CF
:1031C0000E030000000000000000000000000000EE
:1031D00000000000000000000000000000000000EF
:1031E0000000000000000000E03E010000000000C0
:1031F0000000000000008080D0FEFFFFFFFFFFFF07
:10320000FFFFFFFFFFFFFFFFFFFFFFFFFFFFFFFFCE
:10321000FFFFA070380C0603010000000000000052
:10322000000000000000000000000000000000009E
:10323000000000000000000000000000000000008E
:10324000000000000738C00000000000000080F807
:10325000FEFFFFFFFFFFFFE7E7E7C4CCCCCDC1C116
:10326000C3E7FFFFFFFFFFDFDFDFFFFFF70F010017
:10327000000000000000000000000000000000004E
:10328000000000000000000000000000000000003E
:10329000000000000000000000000000000000002E
:1032A00000000001060C143E7EEE7EFFFFFFFFFFD4
:1032B000FFFFFFFFFFFF7F7FFFEFEFEFEFEFFFFF6E
:1032C000FFFFFFFFFFFFFFFF7F0000000000000087
:1032D00000000000000000000000000000000000EE
:1032E00000000000000000000000000000000000DE
:1032F000000000000000000000000000804060307E
:103300001804060202012344C09123E3C383878F7C
:103310008F9FBEBEFEFCFCFAFEFEFE7F7FBFFFBF9E
:103320000F07030100000000000000000000000083
:10333000000000000000000000000000000000008D
:10334000000000000000000000000000000000007D
:1033500000804030180C0601000000000000000052
:10336000000000000001030205070F0F1F1F1F1FB1
:103370001F1F1F00000000000000010103060C18C1
:10338000F00000000000000000000000000000004D
:10339000000000000000000000000000000000002D
:1033A00000000000000000000000E01C0701000019
:1033B000000000000000000000000000000000000D
:1033C00000000000000000000000000000000808ED
:1033D00018800000000000000000000007FC000052
:1033E00000000000000000000000000000000000DD
:1033F00000000000000000000000000000000000CD
:1034000000000000000000000000000000000000BC
:1034100000000000000000000000000000000000AC
:10342000000000000000000080601C040201000099
:10343000000000000000000000000000000000008C
:10344000000000000000000000000000000000007C
:10345000000000000000000000000000000000006C
:10346000000000000000000000000000000000005C
:10347000000000000000000000000000000000004C
:103480000000F00E0300000000000000000000003B
:10349000000000000000000000000000000000002C
:1034A000000000000000000000000000000000001C
:1034B000000000000000000000000000000000000C
:1034C00000000000000000000000000000000000FC
:1034D00000000000000000000000000000FF0000ED
:1034E00000000000000000000000000000000000DC
:1034F00000000000000000000000000000000000CC
:1035000000000000000000000000000000000000BB
:1035100000000000000000000000000000000000AB
:10352000000000000000000000000000000000009B
:103530000000000000000000000F30C0000000008C
:10354000000000000000000000000000000000007B
:1035500000000000000000000000C0E000000000CB
:10356000000000000000000000000000000000005B
:10357000000000000000000000000000000000004B
:10358000000000000000000000000000000000003B
:1035900000000000000000000306183060C080003A
:1035A00000000000808040C000000000000000001B
:1035B0000000000001FFFFFF00000000000000000D
:1035C00000000000000000000000000000000000FB
:1035D00000000000000000000000000000000000EB
:1035E00000000000000000000000000000000000DB
:1035F000000000000000000080808041423D4C003F
:1036000001010303030300000000000000000000AC
:103610000007070700000000000000000000000095
:10362000000000000000000000000000000000009A
:10363000000000000000000000000000000000008A
:103640000000000000000000000000000000E0306A
:103650000C0201010000000000000000000000005A
:10366000000000000000000000000000000000005A
:10367000000000000000000000000000000000004A
:10368000000000000000000000000000000000003A
:10369000000000000000000000000000000000002A
:1036A000000000C02010080C020101000000000012
:1036B000000000000000000000000000000000000A
:1036C00000002020707878FCFCFEFEFC080B000255
:1036D00002020000090400000102020000052400AB
:1036E000100105240101010424020605240600013D
:1036F0000705810310004009040100020A000000D0
:103700000705020240000007058302400000040391
:10371000090412010002EF0201404123368000013A
:103720000102030141726475696E6F204C4C4300C5
:1037300041726475626F79007A2811241FBECFEF41
:10374000DAE0DEBFCDBF12E0A0E0B1E0ECE4F5E6E8
:1037500002C005900D92AA32B107D9F726E0AAE27D
:10376000B2E001C01D92AE3CB207E1F71BE1CDE92A
:10377000DBE104C02197FE010E94AC30CC39D107B7
:10378000C9F70E94D6280C94A4320C9400008091B2
:103790002A020895480F592F511D1416150684F555
:1037A000803891056CF597FF02C090E080E04138C9
:1037B000510514F040E850E0481BFB01E770FF277B
:1037C00021E001C0220FEA95EAF777FF02C0695FA6
:1037D0007F4FFB0133E0F595E7953A95E1F7F695D4
:1037E000FE2FEE27F795E795E80FF91FED54FD4FF3
:1037F000415030F08191DF011197822B8C93F8CFEB
:1038000008958F929F92AF92BF92CF92DF92EF92E4
:10381000FF920F931F93CF93DF93DC01FA01F49093
:103820003196949131964F2D50E02223E1F001E042
:1038300010E0892F877011F410E000E0C92FC695C1
:10384000C695C695C00FD12FD11DC49F8001C59FBD
:10385000100DD49F100D1124209FE001219FD00D49
:103860001124EC0FFD1F4A0F5B1F141615060CF0F8
:10387000A5C09B01290F311D121613060CF09EC026
:10388000603471050CF09AC0309709F497C0062F88
:1038900007709B0177FF02C0295F3F4F83E035959A
:1038A00027958A95E1F7122F77FF04C0002311F0C6
:1038B0001FEF120F222733272A1B3B0BB7FD02C035
:1038C00030E020E0403851050CF470C050E85A1B3D
:1038D000521B612F012E000C770BE62EE0941F3F48
:1038E0000CF0E12C41E0892F877009F440E09695B7
:1038F00096959695940F690F711D6930710514F0B6
:1039000098E0911B4E2D410F60E84603E001112421
:10391000AC0FBD1FA20FB31FC02F002E000CDD0B7C
:10392000AF2CA51AFE9C200D311D11242E0F3F1F18
:103930006FEF70E0002E02C0660F771F0A94E2F767
:1039400060957095962E872E910FA50EBB24BB1CFB
:103950009417A1F1FD01ED54FD4F7F01D12CC12C35
:10396000C51630F5F901EC0DFD1D649170E00C2ECB
:1039700002C0660F771F0A94E2F747FD05C0F70102
:1039800080818921862B8083002349F047303CF4D5
:10399000F701E058FF4F80818821872B8083FFEF5C
:1039A000CF1ADF0A6FEFE61AF60ADACF5F2D90CF53
:1039B0004F5F2A0D3B1DA058BF4FCACFDF91CF915B
:1039C0001F910F91FF90EF90DF90CF90BF90AF903D
:1039D0009F908F900895E3EBF2E080E0A0E0B8E0E4
:1039E00000800EBC8111012C1197A0FDFDCF01922A
:1039F000B9F70DB40895FC0180916202882311F19A
:103A00003FB7F89482E08093E9002091F200822F82
:103A100090E01816190614F481E090E0882339F03C
:103A2000289844E6409361024091F10040832223AC
:103A300039F02091F200211103C02BE62093E80019
:103A40003FBF08958FEF9FEF08952FB7F89483E05D
:103A50008093E9009091E800892F807295FF04C05F
:103A60009091F20080E4891B2FBF08958091590244
:103A700081110DC082E08093550284E0809356024C
:103A8000109258021092570281E08093590285E506
:103A900092E00895CF93DF931F92CDB7DEB769838D
:103AA000DC01ED91FC910280F381E02D41E050E0DA
:103AB000BE016F5F7F4F09950F90DF91CF91089501
:103AC00083E08093E9008091F200882319F08AE373
:103AD0008093E80008950E94251D90E00895CF93FB
:103AE000DF931F92CDB7DEB7FC018485958597FDE6
:103AF00008C02FEF3FEF358724870F90DF91CF91DC
:103B00000895CE0101960E94FB1C019719F489814A
:103B100090E0F3CF8FEF9FEFF0CF0F931F93CF93F2
:103B2000DF931F92CDB7DEB78C01FC0184859585AC
:103B300097FF0BC0CE0101960E94FB1C019771F408
:103B4000898190E0F80195878487F80184859585BF
:103B50000F90DF91CF911F910F9108958FEF9FEFFD
:103B6000F1CFFC018485958597FD0BC09FB7F89434
:103B700082E08093E9008091F2009FBF90E001967F
:103B800008959FB7F89482E08093E9008091F20055
:103B90009FBF90E0089540914F02509150022091B4
:103BA0004D0230914E0242175307B4F49091E80051
:103BB0009570E1F39091E80092FD19C08093F100B7
:103BC00080914F029091500201968F739927892B13
:103BD00019F48EEF8093E80080914F02909150028B
:103BE00001969093500280934F0281E0089580E007
:103BF0000895EF92FF920F931F93CF93DF93F82EC8
:103C0000192FE62E042F81E0860F880F0E94CB1D0E
:103C100083E00E94CB1DCF2DD12FEC0EFD2EF11C89
:103C2000CE15DF05B9F007FF13C0FE0184910E9495
:103C3000CB1D182F80E00E94CB1D8123219681117E
:103C4000EFCFDF91CF911F910F91FF90EF900895EB
:103C50008881EDCF81E0F5CFDF92EF92FF920F9355
:103C60001F93CF93DF93D82E8A01EB017B01E40EE3
:103C7000F51ECE15DF0559F0D7FE12C0FE01849166
:103C80000E94CB1D21968111F4CF0FEF1FEFC801C9
:103C9000DF91CF911F910F91FF90EF90DF900895EA
:103CA0008881EECF0F931F93CF93DF931F92CDB7F1
:103CB000DEB782E0898342E450E06CEC76E380E892
:103CC0000E942C1E0E94361DDC0112960D911C9143
:103CD0000115110589F0D801ED91FC910280F38165
:103CE000E02DBE016F5F7F4FC801099597FD04C0AD
:103CF000F80100851185ECCF89810F90DF91CF917C
:103D00001F910F910895615030F02091F100FC0156
:103D100020830196F8CF289884E680936102089565
:103D2000DB0114964D915C9115976D917C91DC01AE
:103D3000ED91FC910280F381E02D0994AF92BF9246
:103D4000CF92DF92EF92FF920F931F93CF93DF9367
:103D50006C017B018B01040F151FEB015E01AE1896
:103D6000BF08C017D10759F06991D601ED91FC91B8
:103D70000190F081E02DC6010995892B79F7C501E5
:103D8000DF91CF911F910F91FF90EF90DF90CF9037
:103D9000BF90AF9008953FB7F89480913E02909104
:103DA0003F02A0914002B091410226B5A89B05C0F8
:103DB0002F3F19F00196A11DB11D3FBFBA2FA92FAA
:103DC000982F8827BC01CD01620F711D811D911DA7
:103DD00042E0660F771F881F991F4A95D1F7089513
:103DE0008F929F92AF92BF92CF92DF92EF92FF920B
:103DF0006B017C010E94CB1E4B015C01C114D104FC
:103E0000E104F104B9F00E94CB1E681979098A090E
:103E10009B09683E73408105910580F321E0C21A39
:103E2000D108E108F10888EE880E83E0981EA11CF5
:103E3000B11CE4CFFF90EF90DF90CF90BF90AF9098
:103E40009F908F9008958F929F92AF92BF92CF9242
:103E5000DF92EF92FF920F931F93CF93DF936C014A
:103E60007B018A0180910C01882309F45CC0809158
:103E70006202882309F457C08091540280FF05C074
:103E80008091E00082608093E000E801B12C8AEF2D
:103E9000A82E93E0892E2AE3922E209711F4BB20BE
:103EA000D9F10E94251D81110AC0AA94AA20D9F136
:103EB00061E070E080E090E00E94F01EEECF8C1791
:103EC0001D0611F00CF08C2F9FB7F8948092E9003A
:103ED0002091E80025FD02C09FBFDFCF282F30E0F2
:103EE000C21BD30BF701815020F041914093F100A8
:103EF000FACFE20EF31EBB2021F09092E800B12C25
:103F0000EBCF8091E80085FDE7CF9092E800BB24DD
:103F1000B394209709F3F3CF5D9884E6809353021E
:103F2000101611063CF081E090E0F6019383828345
:103F300010E000E0C801DF91CF911F910F91FF9039
:103F4000EF90DF90CF90BF90AF909F908F900895AB
:103F50002FB7F89460913A0270913B0280913C0235
:103F600090913D022FBF089580911601882351F052
:103F70000E94A81F2091100130911101CB01821BDA
:103F8000930B089590E080E008956F927F928F9256
:103F90009F92AF92BF92CF92DF92EF92FF920F93D8
:103FA0001F93CF93DF934C017B01C22F102F98E01A
:103FB000A92EB12C642E669466946694712CCA0165
:103FC00087709927892B79F5D40117962D913C910B
:103FD000C7019927B9010E949830269DF001279DBD
:103FE000F00D369DF00D11248E0F9F1FD4011596F4
:103FF000ED91FC91E80FF91F2081111112C0C095BD
:10400000C223C083DF91CF911F910F91FF90EF905A
:10401000DF90CF90BF90AF909F908F907F906F90E8
:104020000895C22BEECFD0E04770C42ED12C83E090
:10403000660C771C8A95E1F79E0101C0220F4A9514
:10404000EAF7012FA301B701C4010E94C51FA30114
:10405000485F5F4FC5018C199D0902C0D595C79572
:104060008A95E2F7A7CF5F926F927F928F929F928D
:10407000AF92BF92CF92DF92EF92FF920F931F9376
:10408000CF93DF93EC016A30F1F48D859E859C8798
:104090008B878C892F853889820F932F911D988B60
:1040A0008F8781E090E0DF91CF911F910F91FF907A
:1040B000EF90DF90CF90BF90AF909F908F907F90C8
:1040C0006F905F900895AB84BC84693031F429E02F
:1040D000A20EB11CBC86AB86E4CF3DEFA3163FEF2A
:1040E000B3060CF45DC08F819885A816B9060CF054
:1040F00057C0CF84D8888DEFC8168FEFD8060CF440
:104100004FC089859A85C816D9060CF049C060321F
:1041100008F46FE780EE860F9FE9960F9A3118F446
:104120009FEFC91AD90A8C3011F08B3119F42FEF97
:10413000C21AD20A869534E0839FC00111249C01E3
:104140002E5E394E7901912C812C162F1170F701BA
:10415000E80DF91D549011112DC0352D3F70532ECF
:104160003501680C791C8C81882361F001E0898914
:104170009A89892B09F000E02FE0A601B301CE0156
:104180000E94C51F0989252DA601B301CE010E94F9
:10419000C51F8FEF881A980A94E089169104B9F622
:1041A0008B8990E004962B853C85820F931F9C871A
:1041B0008B8777CF52948FE05822D2CF2091320252
:1041C000E0913002F0913102CF01029690933102DA
:1041D00080933002222319F0859194910895808173
:1041E00091810895E1E7F0E080818D7F80831092D6
:1041F00091004698479810922F020895CF92DF922F
:10420000EF92FF92CF93DF930E94DE20811520E88A
:10421000920741F4DF91CF91FF90EF90DF90CF9024
:104220000C94F22021E020932F02813020E89207A5
:1042300051F480912D0290912E029093310280933F
:1042400030020E94DE2097FD05C020912C0222231F
:1042500009F45BC020912B02211157C021E020936B
:104260003302EC01DF77209709F052C081E08093A0
:10427000340246983FE9C32E3FE0D32EE12CF12CC7
:10428000CAEFD0E0E091C106F091C2060995811114
:1042900003C081E08093340280913302882329F0A7
:1042A00080913402882309F446C047980E94DE209A
:1042B000009709F444C09C01DE010E94752FDC01C7
:1042C000CB0129E0B595A795979587952A95D1F7C4
:1042D000109290002AE020939100D0929900C09211
:1042E00098008093350290933602A0933702B093E2
:1042F000380280917100826080937100DF91CF91CC
:10430000FF90EF90DF90CF90089510923302A9CFE5
:104310009E0150E040E060E472E48FE090E00E9493
:10432000EA2E69017A0181E0C81AD108E108F10892
:1043300010923402A7CF4699B8CF479AB7CF8FEFE4
:104340009FEFDC01C5CFBC0190E080E00C94F01E33
:104350008FB18095807F669B88601C9B84600895E8
:1043600010922A023E983F9808953E9A3F9A81E023
:1043700080932A02089520E191E061FD94E060FDC0
:10438000990F62FD9295687F269FD0011124A80F96
:10439000AD54BD4F8C9140FF03C0892B8C93089581
:1043A00090958923FBCF8F929F92AF92BF92CF922D
:1043B000DF92EF92FF920F931F93CF93DF936D30B5
:1043C00089F0C0904902D0904A026A30D1F410922C
:1043D00048021092470288E0C80ED11CD0924A02CF
:1043E000C092490281E090E0DF91CF911F910F913F
:1043F000FF90EF90DF90CF90BF90AF909F908F9005
:1044000008950091470210914802E5E06E9FE00197
:104410001124CE5EDE4E5801F12CF5E0E12CFF16A2
:1044200029F0CE010196FE01E490EC01912C812C43
:10443000F0E8AF16B10458F4B601680D791D603488
:10444000710528F44E2D4170C5010E94BB21E694F0
:104450008FEF881A980AE8E08E16910449F7F394D2
:10446000FFEFAF1ABF0A86E0F812D7CF0A5F1F4FDF
:104470001093480200934702B5CF90914B029823C6
:1044800029F490914C02982381E009F480E008958A
:10449000DF92EF92FF920F931F93CF93DF937C01F4
:1044A000D22E8B01040F111DEB0177FF02C0D0E06B
:1044B000C0E0C8010134110514F080E490E0C81791
:1044C000D9075CF480E8E816F10428F44D2DBE010C
:1044D000C7010E94BB212196ECCFDF91CF911F91A4
:1044E0000F91FF90EF90DF900895EF92FF920F935E
:1044F0001F93CF93DF937C018B01C42FD22F6034A5
:10450000710510F40E94CA1BB8016D0F711D615036
:1045100071096034710520F44C2FC7010E94CA1B39
:1045200021E04D2FB801C7010E944822C7018C0F1E
:10453000911D21E04D2FB8010197DF91CF911F917F
:104540000F91FF90EF900C944822CF92DF92EF9260
:10455000FF920F931F93CF93DF936B01122FEC0108
:104560007C01E40EF11CCE15DF0544F4202F412F11
:10457000B601CE010E9448222196F5CFDF91CF915E
:104580001F910F91FF90EF90DF90CF900895CF9300
:10459000DF93CDE0D1E0EA810E2E000CFF0BE75750
:1045A000FE4FE081EE0FFF0BEF5DFE4F208131816A
:1045B000E1E7F0E080818D7F808381E080933202AB
:1045C000309331022093300230932E0220932D023B
:1045D0000E94FE200E94A81F6B837C838D839E8394
:1045E000DF91CF91089597FF16C010921501109298
:1045F00014010E94B021809114019091150102973D
:10460000E9F081E010922B0210922C028130C1F46B
:1046100080932B020895833091054CF082E090E066
:1046200090931501809314010E94B521E4CF9093DB
:10463000150180931401892BB9F7DBCF82E0E2CF1B
:1046400081E080932C02089580E80E943D22882317
:1046500039F0809114019091150101960C94F32288
:1046600080E10E943D22882331F0809114019091D5
:1046700015010197F3CF089580930F0180911601E2
:1046800081110C94C7220895CF93DF93CDE0D1E040
:10469000998388830E94A81F6B837C838D839E836C
:1046A00019861092C30680E0DF91CF910C943C23D1
:1046B000089590E080E00895CF92DF92EF92FF920C
:1046C00089E0C82ED12CE12CF12C0E944C2DA701A1
:1046D00096010E94EA2E8091C3068617B1F360937B
:1046E000C306FF90EF90DF90CF900895FB010190FB
:1046F0000020E9F73197AF01461B570BDC01ED9124
:10470000FC910280F381E02D0994CF93DF93EC01BB
:1047100088819981009711F00E944E311982188288
:104720001D821C821B821A82DF91CF910895FC01A9
:1047300080819181009711F00C944E3108950F9370
:104740001F93CF93DF93EC0188819981009759F0F3
:104750002A813B812617370730F081E0DF91CF9126
:104760001F910F9108958B016F5F7F4F0E94D7318A
:10477000009759F0998388831B830A832C813D819C
:10478000232B59F7FC011082E8CF80E0E7CFEF92AE
:10479000FF920F931F93CF93DF93EC01FB01E08017
:1047A000F180E114F10411F1048115810115110565
:1047B000A9F08C819D81080F191FB801CE010E94BC
:1047C0009F23882399F0288139818C819D81B701AD
:1047D000820F931F0E949D321D830C83CE01DF91B7
:1047E000CF911F910F91FF90EF900895CE010E94FD
:1047F0008523F4CFEF92FF920F931F93CF93DF9314
:10480000EC017B018A01BA010E949F2381110BC038
:10481000CE010E948523CE01DF91CF911F910F9190
:10482000FF90EF9008951D830C83B70188819981D3
:104830000E949D32F0CFEF92FF920F931F93CF9380
:10484000DF93CDB7DEB762970FB6F894DEBF0FBE29
:10485000CDBF8C01CB01F80111821082138212822C
:10486000158214824AE09E012F5F3F4F7901B90102
:104870000E94A42DF70101900020E9F73197AF01C4
:104880004E195F09B701C8010E94FA2362960FB65C
:10489000F894DEBF0FBECDBFDF91CF911F910F9176
:1048A000FF90EF900895EF92FF920F931F93CF9395
:1048B000DF93CDB7DEB761970FB6F894DEBF0FBEBA
:1048C000CDBF8C01CB01F8011182108213821282BC
:1048D000158214824AE09E012F5F3F4F7901B90192
:1048E0000E94AF2DF70101900020E9F73197AF0149
:1048F0004E195F09B701C8010E94FA2361960FB6ED
:10490000F894DEBF0FBECDBFDF91CF911F910F9105
:10491000FF90EF900895AF92BF92CF92DF92EF9207
:10492000FF920F931F93CF93DF93CDB7DEB72C97F2
:104930000FB6F894DEBF0FBECDBF082F9B01CB0191
:1049400068EE73E00E9484306B01E090C406F09042
:10495000C506002E000C110BF7011687058714877A
:10496000038788E390E0908B878761E070E02036D2
:104970003A4E10F470E060E0CE0101960E9453249C
:10498000BE016F5F7F4FC7010E94901ECE0101964E
:104990000E949723E091C406F091C506C8010496D1
:1049A000968785879487838788E3A82EB12CB08A61
:1049B000A7866AE072E0CF010E947623E090C406E9
:1049C000F090C506095F1F4FF7011687058714870A
:1049D0000387B08AA786B601CE0101960E945324B0
:1049E00069E272E0FAE0CF16D10410F468E072E0F8
:1049F00018861F821A8619861C861B86FB01019069
:104A00000020E9F73197AF01461B570BCE010796FF
:104A10000E94FA23BE016F5F7F4FCE0107960E946E
:104A2000C723BC01C7010E94901ECE0107960E94B9
:104A30009723CE0101960E9497232C960FB6F894E7
:104A4000DEBF0FBECDBFDF91CF911F910F91FF90C1
:104A5000EF90DF90CF90BF90AF9008951F920F928C
:104A60000FB60F9211248F939F938091E100909144
:104A7000E100937F9093E10083FF0FC01092E90063
:104A800091E09093EB001092EC0092E39093ED0094
:104A90001092620298E09093F00082FF22C093E0AF
:104AA0009093E9009091F200992319F09AE3909382
:104AB000E80090915302992341F090915302915054
:104AC00090935302911101C05D9A909161029923D4
:104AD00041F090916102915090936102911101C057
:104AE000289A84FF18C08091E2008E7E81608093B6
:104AF000E2008091E1008F7E8093E100809154027A
:104B00008E7E8061809354029F918F910F900FBE93
:104B10000F901F90189580FFF7CF8091E2008E7E56
:104B200080618093E2008091E1008E7E8093E100BD
:104B3000809154028E7E8160E5CF1F920F920FB656
:104B40000F921124CF92DF92EF92FF920F931F9357
:104B50002F933F934F935F936F937F938F939F9385
:104B6000AF93BF93EF93FF93CF93DF93CDB7DEB7B0
:104B70006C97DEBFCDBF1092E9008091E80083FF03
:104B800025C068E0CE0145960E94831E82EF809387
:104B9000E8008D8987FF39C09091E80090FFFCCF35
:104BA000982F907609F034C19E894F89588D2F89AE
:104BB000F88C911131C0803861F580915202809358
:104BC000F1001092F1008EEF8093E8006C960FB622
:104BD000F894DEBF0FBECDBFDF91CF91FF91EF9173
:104BE000BF91AF919F918F917F916F915F914F9105
:104BF0003F912F911F910F91FF90EF90DF90CF90F9
:104C00000F900FBE0F901F9018959EEF9093E800A5
:104C1000C7CF1092F100D5CF913059F48111D3CF85
:104C20004130510581F6809152028D7F809352026E
:104C3000CACF933049F48111C6CF4130510519F6DE
:104C4000809152028260F2CF953041F48091E80069
:104C500080FFFCCF20682093E300B5CF963009F0A9
:104C6000A9C00B8D1C8D22E01092E9001092500219
:104C700010924F02F2122EC010924E0210924D026C
:104C80000E94521E1F8299E09983FA8291E09E83CE
:104C900090EA98879AEF998720914F0230915002BD
:104CA000275F3F4F3C832B838D831092E900109246
:104CB000500210924F0210934E0200934D0249E0B1
:104CC00050E0BE016F5F7F4F80E00E942C1E0E946B
:104CD000521E79CF10934E0200934D020E94361D52
:104CE000DC0112960D911C910115110509F451C1B9
:104CF000D801ED91FC910480F581E02DBE016B5E41
:104D00007F4FC8010995009709F03EC1F801008561
:104D10001185EACFF3E0FF120EC08F89882309F4D2
:104D200040C0823061F440E867E080E397E30E948E
:104D3000F91D811148CF81E28093EB0047CF81308C
:104D400029F440E86BE084E297E3F1CF833099F7F0
:104D50000E94361DDC011296ED90FC908E010F5FD3
:104D60001F4F6801E114F10479F0D701ED91FC9136
:104D70000680F781E02DB801C7010995080F111DC4
:104D8000F701E084F184EECFD8011C92F601019086
:104D90000020E9F73197BF016C197D0940E0C60199
:104DA000C6CF6EE077E3FB01449150E080E80E94BB
:104DB0002C1E09CF973009F4BECF983021F481E042
:104DC0008093F10000CF993009F0FDCE837009F097
:104DD000B2CFE8EDF1E081E031E096E321912223CA
:104DE00071F08093E9003093EB00DF0111972C9173
:104DF0002093EC009093ED008F5F873079F78EE77A
:104E00008093EA001092EA008F8980936202DBCEE1
:104E10008B8D9C8D1092E9001092500210924F02DF
:104E200090934E0280934D02898D811192C08E899C
:104E30009D89913A49F4813209F07DCF47E050E0F5
:104E400065E071E080E0B3CF913209F074CF833236
:104E500069F48F89988DB0E0A0E080930101909370
:104E60000201A0930301B0930401ADCE803269F436
:104E70008091E80082FFFCCF67E085E091E00E942E
:104E8000831E8BEF8093E8009ECE823209F09BCE8A
:104E90008F8980930C01EEEFFFE7859194918B3F12
:104EA0009C4D51F1E0E0F8E0809105019091060100
:104EB000A0910701B0910801803B9440A105B10584
:104EC000F1F480910C0180FD1AC0EE3F8AE0F807F2
:104ED00089F587E797E791838083809160008093CD
:104EE000510288E19BE00FB6F894A895809360008A
:104EF0000FBE9093600067CEEEEFFAE0D5CF8081D1
:104F000091818737974709F05ECEA8958091600020
:104F10008861809360008091510280936000EE3F31
:104F20002AE0F20789F08091FE0A9091FF0A9183AE
:104F3000808349CE808191818737980751F2909381
:104F4000FF0A8093FE0AC5CF1092FF0A1092FE0A54
:104F50003ACE0E94361DDC0112960D911C9101156E
:104F6000110509F4E8CED801ED91FC910190F08192
:104F7000E02DBE016B5E7F4FC8010995811123CEE4
:104F8000F80100851185EBCF181619060CF41BCE1D
:104F9000D2CEF1E0FF12BECE62E177E304CF1F92E2
:104FA0000F920FB60F9211242F933F938F939F93DD
:104FB000AF93BF9380913A0290913B02A0913C0243
:104FC000B0913D023091390223E0230F2D3758F57F
:104FD0000196A11DB11D2093390280933A0290934E
:104FE0003B02A0933C02B0933D0280913E0290911F
:104FF0003F02A0914002B09141020196A11DB11D56
:1050000080933E0290933F02A0934002B0934102EE
:10501000BF91AF919F918F913F912F910F900FBEB4
:105020000F901F90189526E8230F0296A11DB11D21
:10503000D2CF1F920F920FB60F9211242F933F934E
:105040004F935F936F937F938F939F93AF93BF9390
:10505000EF93FF938091350290913602A091370231
:10506000B0913802892B8A2B8B2B09F440C0809198
:10507000340281110BC088B190E4892788B98091EE
:105080003302882319F088B1805888B9809135029D
:1050900090913602A0913702B09138021816190685
:1050A0001A061B069CF48091350290913602A0915D
:1050B0003702B09138020197A109B10980933502F6
:1050C00090933602A0933702B0933802FF91EF918C
:1050D000BF91AF919F918F917F916F915F914F9110
:1050E0003F912F910F900FBE0F901F9018950E9427
:1050F000FE20ECCFCF93DF93E3E6F2E0138212823F
:1051000088EE93E0A0E0B0E084839583A683B78324
:1051100082EE91E0918380838FEF9FEF9587848764
:10512000E6ECF6E01382128280E092E091838083C5
:1051300087EC9BE19093C2068093C10680E090E8E3
:105140009093C0068093BF0646983E9A47983F9A30
:10515000C3ECD6E0188285E190E00E94B230FC01F9
:105160001382128284EF91E09183808383EB92E03B
:105170009683858380E890E09087878380E490E041
:105180009287818785E0848B81E0838B16861586E4
:10519000108A17861486138681E090E0928B818BAB
:1051A0001482FA83E983DF91CF910895CF93DF933F
:1051B000CDB7DEB766970FB6F894DEBF0FBECDBF92
:1051C000789484B5826084BD84B5816084BD85B5E2
:1051D000826085BD85B5816085BD80916E008160EE
:1051E00080936E0010928100809181008260809394
:1051F0008100809181008160809381008091800096
:105200008160809380008091910082608093910002
:1052100080919100816080939100809190008160E5
:10522000809390008091C10084608093C100809140
:10523000C10082608093C1008091C1008160809331
:10524000C1008091C30081608093C3008091C00041
:1052500082608093C0008091C20081608093C20010
:1052600080917A00846080937A0080917A008260D5
:1052700080937A0080917A00816080937A00809197
:105280007A00806880937A00109262021092520233
:10529000109254028091D70081608093D70080EAF9
:1052A0008093D80089B5806189BD89B5826089BD48
:1052B00009B400FEFDCF61E070E080E090E00E9464
:1052C000F01E8091D8008F7C80618093D8008091FF
:1052D000E000807F8093E0008091E1008E7E8093EB
:1052E000E1008DE08093E200559A209A81EC809352
:1052F0007C0085B1806F85B984B1877E84B984B123
:10530000876E84B95E9A5F988AB1806D8AB9769A01
:105310006E9881B3806F81BB899880B38D7080BB9C
:1053200080E58CBD81E08DBD85E090E00E94A321E9
:105330005F9A85E090E00E94A3215E985C98E2ED80
:10534000F6E18FED96E124912EBD00000DB407FE2D
:10535000FDCF31968E179F07B1F75C9A81E8809355
:105360006400809165008160809365000E94EB1C61
:105370000E94A82187FF15C05C9885EA8EBD0000B9
:105380000DB407FEFDCF5C9A2E982F982D98809132
:10539000640080628093640081E083BF889513BEBF
:1053A000FCCF0E94A82182FF46C02D980E94A82110
:1053B00084788438D9F42D9A88EC90E00E94A32157
:1053C0002F9882E090E00E94D42E8F3F29F06FEF5B
:1053D00082E090E00E94DC2E84EF91E00E94A32105
:1053E0002F9A0E94A82184788438D9F30E94A8219A
:1053F00084718431D9F42D9A88EC90E00E94A32125
:105400002E9882E090E00E94D42E882329F060E05C
:1054100082E090E00E94DC2E84EF91E00E94A321C4
:105420002E9A0E94A82184718431D9F388EC90E0EF
:105430000E94A321B6CF2D9A82E090E00E94D42E44
:105440008823B9F10E94B52182E390E00E94A32154
:105450000E94A8218111F8CF83E58093000190E09C
:1054600080E00E94442338E3C32ED12C40E6442E32
:105470004AEE542E612C712CBB24B39499E6892EEC
:10548000912C23E3222E312C80911601811102C030
:105490000E94F2200E94A81FF0904202FF2061F0BB
:1054A0001092420220E030E0232B71F30E940000B2
:1054B000E3CF0E94B021C8CF80914302262F281B42
:1054C000822F90910001291738F48F5F891750F7C8
:1054D000B3BE889513BEE6CFB092420260934302FA
:1054E00000914502109146020F5F1F4F1093460234
:1054F0000093450280914C0280934B020E94A821A8
:1055000080934C028F2DE3EBF2E081118FEF0024AA
:1055100081938193819381930394D1F710924A02EE
:1055200010924902109248021092470280910D0198
:1055300090910E01892B09F083C000FD05C0809178
:10554000C3068F5F8093C3062091C3062B3044F4BB
:105550004AE257E170E060E084E290E00E94011CC2
:10556000E091C406F091C50684E090E096878587B7
:1055700094878387908B87876CE072E0CF010E94CD
:1055800076232091140143E157E164E070E085E760
:1055900090E00E94011C8091C3068C307CF0E09169
:1055A000C406F091C5069686858694868386308AE1
:1055B00027866EE172E0CF010E94762388E00E9488
:1055C0003D2281110AC084E00E943D22811105C064
:1055D00080E40E943D22882331F181E090E00E9426
:1055E00044230E9424230E94EB1C80910D01909182
:1055F0000E01892B09F056CF0E94A81F00911001BF
:10560000109111012091120130911301601B710B57
:10561000820B930B683B7B408105910508F442CFD8
:1056200081E090E0BFC180E20E943D228823C9F260
:1056300081E090E00E94442389E10E943C23D1CF85
:105640000E94B41F7C0180910F01E82F082E000CEE
:10565000FF0BE757FE4FE081EE0FFF0BEB5AFE4FBB
:105660000081118190911601992361F098012C50CD
:105670003E4FE216F30630F089310CF091C18F5F96
:105680000E943C2380911601882309F44DC0E01646
:10569000F10608F049C0E0910F010E2E000CFF0B3F
:1056A000E757FE4FE081EE0FFF0BED55FE4F0081F7
:1056B0001181000F111F0E94B41FBC0190E080E017
:1056C0000E94D92D2FE632E143E85FE30E94162EB7
:1056D0006B8B7C8B8D8B9E8B980150E040E0C301DF
:1056E000B2010E94EA2ECA01B9010E94DB2D9B0182
:1056F000AC016B897C898D899E890E94842F0E94D0
:105700002C300E94F62F61707727672B09F04DC16E
:1057100080911601882321F080914402811104C0F8
:105720000E945C23B09244022091C3064AE257E1F2
:1057300070E060E08CEF9FEF0E94011C20E340E3EB
:1057400064E070E084E090E00E94752200E024E0D4
:1057500040E870E060E090E080E00E94A52220E355
:1057600044E064E070E090E080E00E94A52220E345
:105770004CE464E070E084E390E00E94A5222CE019
:1057800040E864E370E090E080E00E94A522009190
:10579000C4061091C506D8011E96DC92CE921D97C4
:1057A0001C96DC92CE921B9784E090E050969C93DE
:1057B0008E931F976AE170E0CE010D960E941B2424
:1057C00060910F01062E000C770B6F5F7F4FCE01AB
:1057D00001960E941B2418861F821A8619861C8631
:1057E0001B8669817A816115710531F04D815E8179
:1057F000CE0107960E94FA23EB84FC84BFEFEB1ADC
:10580000FB0AB701CE0107960E949F238111D0C0E9
:10581000CE0107960E948523BE01635F7F4FCE01B4
:1058200007960E94C723BC01C8010E94901ECE01AA
:1058300007960E949723CE0101960E949723CE01DE
:105840000D960E949723E090C406F090C506F701DC
:10585000D686C586D486C3862CE030E0308B278779
:10586000E0910F010E2E000CFF0BE757FE4FE08179
:10587000EE0FFF0BE152F94E05911491F80164917E
:10588000662361F0D701ED91FC910190F081E02D4C
:10589000C70109950F5F1F4F892B81F720911401D4
:1058A00043E157E164E070E085E790E00E94011C6D
:1058B0000E94B41FBC0184E00E948B24E0910F0180
:1058C0000E2E000CFF0BE757FE4FE081EE0FFF0B93
:1058D000EB5AFE4F608171816C507E4F8CE60E94C6
:1058E0008B2424E046E568E370E085E190E00E94C7
:1058F00075220E94B41FBC0190E080E00E94D92D67
:1059000020E030E04CEA52E40E94162E6B8B7C8B38
:105910008D8B9E8BE0910F010E2E000CFF0BE75735
:10592000FE4FE081EE0FFF0BEB5AFE4F608171815D
:105930006C507E4F90E080E00E94D92D9B01AC011D
:105940006B897C898D899E890E94842F0E94FD2FFE
:10595000462F01E024E068E370E085E190E00E94DA
:10596000A52288E00E943D22882379F11092160139
:1059700080E40E943D22882391F180910F018F5F86
:105980000E943C230E945C230E94242380910F01EB
:105990008A3108F428CE90E080E00E94442323CE90
:1059A00090E080E00E9444237DCD10924402BCCE62
:1059B0002F8138858B859C8568E272E0820F931F6A
:1059C0000E949D32FC86EB8627CF84E00E943D2218
:1059D000882371F2B09216010E94C722C9CF80E2DB
:1059E0000E943D22882381F20E94B41F20910F0162
:1059F000883E934018F48FEF820FC2CF822FC0CF22
:105A00008F929F92AF92BF92CF92DF92EF92FF92CE
:105A1000CF93DF93EC01688179818A819B81611545
:105A200071058105910521F464E279ED8BE597E03C
:105A30002DE133EF41E050E00E94EA2E49015A0186
:105A40009B01AC01A7EAB1E40E94092F6B017C0124
:105A5000ACEEB4EFA50194010E94172FC60ED71E1D
:105A6000E81EF91EF7FE06C081E0C81AD108E10859
:105A700080E8F80AC882D982EA82FB82C701B601AF
:105A80009F77DF91CF91FF90EF90DF90CF90BF9005
:105A9000AF909F908F9008958F929F92AF92BF92F8
:105AA000CF92DF92EF92FF926091170170911801EF
:105AB0008091190190911A01611571058105910577
:105AC00021F464E279ED8BE597E02DE133EF41E0DD
:105AD00050E00E94EA2E49015A019B01AC01A7EA5D
