:100000000C94F9190C94211A0C94211A0C94211AAD
:100010000C94211A0C94211A0C94211A0C94211A74
:100020000C94211A0C94211A0C9413220C94822201
:100030000C94211A0C94211A0C94211A0C94211A54
:100040000C94211A0C94211A0C94211A0C94211A44
:100050000C94211A0C94211A0C94211A0C94B42497
:100060000C94211A0C94211A0C94211A0C94211A24
:100070000C94211A0C94211A0C94211A0C94211A14
:100080000C94FE240C94211A0C94211A0C94211A1D
:100090000C94211A0C94211A0C94211A0C94211AF4
:1000A0000C94211A0C94211A0C94211A0B0277013A
:1000B000930277014B02BB004B02BB00BA027701EF
:1000C000930277010B0277014B02770188017701D8
:1000D0000B027701930277014B02BB004B02BB007E
:1000E000BA027701930277010B0277014B023202C9
:1000F0000000BB000B027701930277014B02BB00AB
:100100004B02BB00BA027701930277010B02770121
:100110004B027701880177010B0277010B0277010F
:100120000B02BB000B02BB000B027701EE01770153
:100130000B0277010B0232020080930288009302C7
:1001400088009302880093028800930210019302B2
:100150001001930210014B0210010B0221029302C5
:10016000880093028800930288009302880093021B
:10017000100193021001930210014B0210010B02B7
:100180002102930288009302880093028800930260
:1001900088009302100193021001930210014B0298
:1001A00010010B0210010B021001880110010B025B
:1001B0001001EE0110014B0210010B0210010B02A5
:1001C00010010B02DD01008088019A0288019A0269
:1001D0000B024D010B02A6000B02A60088014D0187
:1001E0000000A6008801A6000B02A6000B02A600D4
:1001F0000B02A6000B02A6008801A6000000A600C4
:100200008801A6008801A6000B024D010B02A60082
:100210000B02A6004B024D010B024D010B02A60082
:10022000EE01A600EE01A600EE01A600EE01A6007A
:100230000000A600B801A600B801A600EE014D011D
:10024000EE01A600EE01A60088014D010000A60007
:100250008801A600EE01A600EE01A600EE01A600B0
:10026000EE01A6008801A6000000A6008801A600F5
:100270008801A6004B024D014B02A6004B02A600CE
:1002800093024D014B024D014B02A6000B02A6004A
:100290000B02A6000B02A6000B024D01008000001D
:1002A000FA000B02FA009302F4014B02F4010B0274
:1002B000F4010B02F4014B0277010B027701EE010E
:1002C000EE020000F4019302FA009302FA004B02DE
:1002D000F4010B02FA000B02FA000B02F4014B02CC
:1002E00077010B027701EE01EE020000FA00EE0149
:1002F000FA009302F4014B02F4010B02F4010B0229
:10030000F4014B0277010B027701EE01F401880141
:10031000F401B801E80300800B020902930209020C
:100320004B0204014B028200880104018801040190
:10033000880182000B0204010B02040193020401F4
:10034000930204014B0204014B028200880109025E
:10035000000082000B020902930209024B02040111
:100360004B028200BA020401BA020401BA028200FE
:1003700010030401BA020401930204014B020401B8
:10038000930204014B0282000B0209020080100359
:10039000FA001003FA00BA02FA009302F401000016
:1003A000F4011003F4011003FA007003F401930246
:1003B000F4010000F401BA02FA009302F4014B02C6
:1003C000F4010000F401BA02FA00BA02FA00930242
:1003D000F4014B02F40100808801E6000B02CD011C
:1003E0000B02E6008801CD018801E6008801E600E5
:1003F0008801E6004B02CD014B02E6008801CD01E9
:100400008801CD010B02CD010B02E6009302E6004C
:100410009302E6009302E6004B02E6000B02CD01D8
:100420004B02CD010B02B40200800B0260010B02F3
:1004300060014B0260014B020801000058000B02F2
:1004400060010B0260014B0260014B0208010000D9
:1004500058000B0260010B0260014B0260014B026D
:100460000801000058000B02B0000000B0000B02B1
:10047000B000930260014B02B0000B0208010000C3
:100480005800930260010B022204000060010B027D
:10049000B000930260014B02B0000B0208010000A3
:1004A0005800930260010B022204000060010B025D
:1004B000B000930260014B02B0000B020801000083
:1004C0005800930260010B022204000060010B023D
:1004D000B000100360011003B00010036001BA0205
:1004E00060019302220400800000CD010B02E600AF
:1004F0000000E600EE01E6000B02E6000000D10A73
:100500000B02E6000000E6004B02E6000B02E600EC
:1005100000800B0296000B0296000B0296000B0265
:1005200096000B022C010B0296000B0296006E0245
:100530002C010B022C0100005802D2019600D201BE
:100540009600D2019600D2019600D2012C01D20170
:100550009600D2019600D20196000B022C010B02EC
:100560002C010000C2010B0296000B0296000B0248
:1005700096000B0296000B022C010B0296000B0258
:1005800096006E022C01BA022C010B022C010B0208
:1005900096000B02960010032C01BA022C016E0289
:1005A0002C01D2019600D2019600D20196000B02D6
:1005B0002C010B022C0100800B0210010000100125
:1005C0000B021001000010016E0210016E02880083
:1005D0000B021001000088000B021001D201100173
:1005E000D2011001EE018800000088000B022102F8
:1005F000000032030B021001000010010B02100179
:10060000000010016E0210016E0288000B02100142
:10061000000088000B02100110031001BA02100143
:100620006E0210010B02210200800B02100100007B
:1006300088009302100100008800100310014B0293
:10064000100100008800BA02100100008800700349
:100650001001930210010000880010031001000037
:100660008800970410011704210200800000FA009E
:100670000601FA008801FA0088017D008801FA006D
:1006800088017D00B801FA004A01FA000601FA006B
:100690000000FA000601FA008801FA0088017D00D6
:1006A0008801FA0088017D00B801FA004A01F401CE
:1006B0000000FA000601FA008801FA0088017D00B6
:1006C0008801FA0088017D00B801FA004A01FA00A9
:1006D0000601FA000000FA000601FA00F700FA002D
:1006E000F7007D00F700FA00F7007D000601F40135
:1006F00000800B02FA000B02F4018801FA00880165
:10070000FA008801FA00B801FA000B02FA00B801F9
:10071000FA000B02E8030000EE020B02FA000B02E3
:10072000F4018801EE02B801FA000B02FA00B801E8
:10073000FA008801E8030000EE020B02FA000B0247
:10074000F4018801FA008801FA008801FA00B80172
:10075000FA000B02FA00B801FA000B02F4010B02D6
:10076000FA000B02FA000B02F4018801FA0088017A
:10077000FA008801FA009302FA004B02FA000B0219
:10078000FA000B02F40100800B02CD018801E600A3
:100790000B02CD018801CD014B02CD018801E6009D
:1007A0008801E6008801E600B801E600B801E6002D
:1007B0008801E6000000E6000B02CD018801E6009A
:1007C0000B02CD018801CD014B02CD018801E6006D
:1007D0008801E6008801E600B801E600B801E600FD
:1007E0008801E6000000E6000B02CD018801E6006A
:1007F0000B02CD018801CD014B02CD018801E6003D
:100800008801E6008801E600B801E600B801E600CC
:100810008801E6005D01E6004A01E6004A01E600C3
:100820004A01E6005D01E6002601E6002601E60039
:100830002601E6004A01E60006019B0300800B0248
:100840009D01D201CE000B029D016E029D01D201DD
:100850006C020000D9040B029D01D201CE000B02F4
:100860009D016E029D01D2016C0200003B030B0250
:100870009D010B029D01D201CE000B029D016E0273
:10088000CE009302CE00BA026C026E02CE000B02C2
:100890006C0200009D010B02CE000B02CE000B0289
:1008A000CE000B02CE00D201CE00EE019D010B0264
:1008B0006C0200808801E600000073004A01E60037
:1008C000000073005D017300000073008801730075
:1008D000000073000601E6000601E6000000E600E5
:1008E0002601E600000073004A01E60000007300E4
:1008F00026017300000073000601730000007300FE
:10090000C400E600C400E6000000E6008801E6003E
:10091000000073004A01E600000073005D017300EF
:100920000000730088017300000073000601E600F8
:100930000601E6000000E6002601E6000000730064
:100940004A01E600000073002601730000007300F6
:100950000601E6000080880142040B0288000B02B9
:1009600088000B0288000B028800880110018801B2
:1009700010014A0110014A0110010601100106018F
:1009800010010601880006018800060188000601A2
:100990008800260110010601100106012102000055
:1009A0002102060110010601100126011001260195
:1009B0008800260188004A0110014A0110015D01EA
:1009C0009901060188004A01100106011001260163
:1009D0001001F7001001060121020B021001008036
:1009E00000008E0088018E0088018E0088018E0034
:1009F00093021D0100001D014B021D0100008E002D
:100A00000B028E004B028E000B02AC0100008E0028
:100A10000B028E000B028E000B028E00BA028E00BB
:100A20004B028E004B028E004B028E004B028E005A
:100A30000B028E000B028E000B028E00BA028E009B
:100A40004B028E004B028E004B028E004B028E003A
:100A500088018E0088018E0088018E0093021D019E
:100A600000001D014B021D0100008E000B028E00D4
:100A70004B028E000B021D0100800B02CD010B0208
:100A8000E6000B02E600B801CD018801CD010B02A2
:100A9000E6000B02E6000B02E600B801CD0188017A
:100AA000CD010B02B4020B02E6000B02E600B80116
:100AB000CD018801CD019302E6009302E600930286
:100AC000E6004B02CD010B02CD0100800000770152
:100AD0000B02BB000B02BB000B02BB000B02BB00F6
:100AE0000B02BB006E0277010B027701000032029D
:100AF0000B02BB000B02BB006E02BB006E02BB0010
:100B00006E02BB006E0277010B0277010000BB0092
:100B10001003BB001003BB001003BB0010037701E0
:100B20000B02770100801704AC011704AC0110031D
:100B3000AC010000D600970482029704AC011003B8
:100B4000AC010000AC011704AC011704AC011003A8
:100B5000AC010000D600930282029302AC010B02AA
:100B6000AC010000AC011704AC011704AC01100388
:100B7000AC010000D600970482029704AC01100378
:100B8000AC011704590300800B02CD010B02CD010B
:100B90008801E6008801CD014B02B4024B02CD0171
:100BA0008801CD018801E6008801E6000B02CD0135
:100BB0000B02CD018801E6008801CD014B02B40291
:100BC0009302CD018801CD010000CD010B02CD01C2
:100BD0000B02CD018801E6008801CD014B02B40271
:100BE0004B02CD018801CD018801E6008801E600B5
:100BF0000B02E6000B02E6000B02E6000B02E60029
:100C00000B02E6000B02E6000B02E6000B02E60018
:100C1000EE01E600EE01E600EE01E600EE01E60080
:100C20000B02CD0100800B029D000B023B01000076
:100C30009D0088019D0088013B014B023B014B0256
:100C40003B014B029D0088019D0088013B01000093
:100C50009D000B029D000B023B0100009D008801DE
:100C60009D0088013B014B023B014B023B014B02C3
:100C70009D0088019D0088013B0100009D000B0242
:100C80009D000B023B0100009D0088019D00880132
:100C90003B014B023B014B023B014B029D00880193
:100CA0009D0088013B0100009D00EE013B010B020D
:100CB0003B0100003B014B023B010B023B0100806A
:100CC0001003E6001003E600BA02E6009302CD012D
:100CD0000000CD011003CD011003E6001003E60073
:100CE0007003CD011003E6009302CD011003E6006E
:100CF0001003E600BA02E6009302CD010000CD0128
:100D00001003CD011003E6001003E6007003CD01CF
:100D10001003E6009302E6009302E600BA02E60042
:100D20009302CD014B02CD010000CD014B02E60044
:100D3000BA02E6009302CD014B02CD010000CD01C5
:100D40004B02E600BA02E6009302CD014B02CD0150
:100D50000000CD014B02E600BA02E6000000E6000A
:100D60009302E6000000E6000B02E600008010039C
:100D7000F4019302FA000B02EE020000F4014B02B0
:100D8000F401EE01FA008801EE020000F401100304
:100D9000F4019302FA000B02F4010B02FA000B02B9
:100DA000FA000B02FA004B02F4019302F4010B0269
:100DB000F4010000F4011003F4019302FA000B02A5
:100DC000EE020000F4014B02F401EE01FA0088018A
:100DD000EE020000FA008801FA00B801FA000B02E6
:100DE000FA00B801FA008801FA00B801FA000B0213
:100DF000FA000B02FA008801FA009302F4014B0298
:100E0000F4010B02F40100800B0288000B02880041
:100E10000B0288000B0288008801100188018800FD
:100E20004A0188004A0188004A0188004A01880076
:100E30000601990106018800060188000601880064
:100E400006018800060188000601880026011001BD
:100E50000601100106012102008057484F27532048
:100E60004D590A4C4954544C450A4441494B494E4A
:100E70004920424142590057484F2753204D590AB3
:100E80004C4954544C4520424142590A424952442B
:100E9000005748454E20594F552752450A444F4E5A
:100EA0004520574954480A594F55522048414D0A48
:100EB000594F55205448524F572049540A4F4E20FD
:100EC0005448452047524F554E44005745275245F8
:100ED0000A414C4D4F535420484F4D450057452033
:100EE0004152450A4452455353494E472055500AF2
:100EF000415320412046414D494C590A4F46205309
:100F00004B454C45544F4E530057415348494E476B
:100F10000A594F5552204641434500285745204223
:100F200055494C442049540A555020414E442054C0
:100F300048454E0A5745204255494C442049540AD9
:100F4000444F574E2920544849530A544F574E2076
:100F500048415320474F540A41204C4F54204F469C
:100F60000A434F4E535452554354494F4E00284D57
:100F70002041204D2041290A5448415427532048FC
:100F80004F570A594F55205350454C4C0A4D414D2F
:100F900041005354524545540A5357454550455214
:100FA0000050555454494E47204F4E0A594F555200
:100FB0002050414E54530A4C494B4520410A424966
:100FC0004720424F5900504F4F5020535455434BE8
:100FD0000A544F20412042555454004F4E4520544E
:100FE000574F2054485245450A464F5552204649CE
:100FF0005645205349580A534556454E20454947C2
:1010000048540A4E494E452054454E004D59204201
:101010004142590A4C4F56455320544F0A474F20DE
:10102000504F4F5059004D59204241425920495389
:101030000A412050554E4348494E470A4D414348C6
:10104000494E4521004D522E205354414E44494EA5
:10105000470A2857484F2753204D590A4C495454A2
:101060004C450A5354414E44494E4720424F59295A
:10107000004C4554275320474F205045450A5749B7
:101080005448204441440049205448494E4B0A41A9
:10109000204C4F542041424F55540A52494E534917
:1010A0004E4720544841540A434F46464545205038
:1010B0004F540049204D414B4520410A4C4954545E
:1010C0004C45205441434F004920474F5420412074
:1010D000524F434B0A494E204D5920504F434B45E8
:1010E000540047555920494E20410A434F50204350
:1010F00041520A52554E4E494E4720410A524544EC
:10110000204C494748540047455454494E472050C5
:101110004150410A534F4D4520434F4646454500F7
:101120004441444120444F0A284D414D41204D4FF8
:101130002900425945204259450A425542424C45F0
:10114000530A425945204259450A424154485741A1
:1011500054455200425542424C45530A4255424280
:101160004C45530A2857484F275320474F540A5499
:10117000484520425542424C45532900424F554E66
:1011800043494E4720410A42414C4C2C0A424F559C
:101190004E43494E4720410A424F554E4359204243
:1011A000414C4C004241425920534B494E00414E64
:1011B00059204B494E44204F460A43415220414E4C
:1011C0004420414E590A4B494E44204F4620545228
:1011D00055434B0A28414E59204B494E44204F4617
:1011E0000A414E59204341520A414E44205452551F
:1011F000434B290000B00000A170E150964F2690AB
:101200000F1D070C009669004AE44A00484440005C
:10121000806810000F99FB8F9DBDBBFB77D4D4DF96
:101220001F1A1AFE7F5D5DFF805A0000A0A4AA006D
:1012300010BA3400FF5953F3FF9B9B9EFFB9B99638
:10124000FF9595D19FF4940FFC295F91FF1838F812
:10125000FF9294FFFF95D5F7BFB5DDD7F18F81F1F0
:10126000F788C8F779C6467909FD9B090196F80009
:101270008281828050716200775656007676370000
:10128000A2B7730107720600782750007334740008
:10129000775176007F55F700477110003247720092
:1012A0007364730015A2750061679400009F60600D
:1012B000F4F2F6F2D5F08D14A1C881CFD9F1AF20A8
:1012C00000F0F89C8E8783878E9CF8F00000FEFF6C
:1012D0000303030303070EFCF80000FEFF030303F0
:1012E0000303070EFCF80000FFFF000000000000F1
:1012F00000FFFF0000FEFF8383838383C7EE7C38FB
:101300000000F8FC0E07030303070EFCF800003F83
:101310007FE0C08080C0E07F3FFFFF01010101014D
:101320000101FFFF0000FFFF0C0C0C0C1C3E77E3DB
:10133000C100007FFFC0C0C0C0C0E0703F1F000000
:101340001F3F70E0C0C0C0E0703F1F00007FFFC1C2
:10135000C1C1C1C1E3773E1C00001F3F70E0C0C0A7
:10136000C0E0703F1F000000000001FFFF0100000F
:1013700000AE11A4117C115411321120110711E299
:1013800010C810B31087107110451026100C10DB18
:101390000FC60FA10F920F6E0F1B0F090FDD0ECBA3
:1013A0000E910E770E5A0E2F000704060F00000054
:1013B0000000060F0006000000060F0006000906E8
:1013C000323032340A4441444100534F4E47530AAD
:1013D000464F520A4445534D4F4E44005C40000076
:1013E00000000000000000000000000000000000FD
:1013F00000000000808080404040408080800000ED
:1014000000000000000000000000000000000000DC
:1014100000000000000000000000000000000000CC
:1014200000000000000000000000000000000000BC
:1014300000000000000000000000000000000000AC
:101440000000000000000080E0F0E8F4FAFEFDFF7C
:10145000BE7E3B0404000000000001010101020403
:101460000810E00000000000000000000000000084
:10147000000000000000000000000000000000006C
:10148000000000000000000000000000000000005C
:10149000000000000000000000000000000000004C
:1014A00000F07E3D1F1F0F87C7E3E0F0F0F8F8F86B
:1014B000F8F8F8F8F0F0E0E0800000000080F00FAD
:1014C000000000000000000000000000000000001C
:1014D000000000000000000000000000000000000C
:1014E00000000000000000000000000000000000FC
:1014F0000000000000000000000000F0FF000000FD
:101500000000E8FF7F7F5F7F7F3F7FFFFFFFFF7F60
:101510003FFFFFFFFFC000C0740F0100000000008C
:1015200000000000000000000000000000000000BB
:1015300000000000000000000000000000000000AB
:10154000000000000000000000000000000000009B
:101550000000000000000000030C102040C3FFFF4B
:10156000FFFFFFFF7F7E7FFFFFFFFFFFFFFFFFFF0C
:10157000FF1B070100000000000000000000000049
:10158000000000000000000000000000000000005B
:10159000000000000000000000000000000000004B
:1015A000000000000000000000000000000000003B
:1015B0000000000080402030080701070B1367EF90
:1015C000EEEEFEFFFFFFFFFFFF0F0B11102020408C
:1015D000808000000000000000000000000000000B
:1015E00000000000000000000000000000000000FB
:1015F00000000000000000000000000000000000EB
:1016000000000000000000000000C020180C0201D3
:1016100000000000000000000000000001010103C4
:101620000303034300000000000000000000030467
:1016300038C00000000000000000000000000000B2
:10164000000000000000000000000000000000009A
:10165000000000000000000000000000000000008A
:1016600000000000F807000000000000000000007B
:10167000000000000000000000000000000000006A
:101680003EFC000000000000000000000001FE0021
:10169000000000000000000000000000000000004A
:1016A000000000000000000000000000000000003A
:1016B000000000000000000000000000000000002A
:1016C0000000000000000000000080C040A02020BA
:1016D0001090B030101010103010102020404080BA
:1016E00000000000000000000000000000000000FA
:1016F00000000000000000000000000000000000EA
:1017000000000000000000000000000000000000D9
:1017100000000000000000000000000000000000C9
:1017200000C070ECF6EDFE674B02080501010000F9
:1017300000000000000000000000000001020CF0AA
:101740000000000000000000000000000000000099
:101750000000000000000000000000000000000089
:101760000000000000000000000000000000000079
:101770000000000000000000000000003CC30E0755
:1017800007030100C0F8FCFCFEFEFFFFFEFFFFFFA9
:10179000FEFEFEFCF8F000000000F00F000000006C
:1017A0000000000000000000000000000000000039
:1017B0000000000000000000000000000000000029
:1017C0000000000000000000000000000000000019
:1017D0000000000000000000001FE000000000F812
:1017E000D7C0CBCBCFC7CFFFFFFFFFEFEFEFEFFFB0
:1017F000FFFFFFA0E01E010000000000000000004D
:1018000000000000000000000000000000000000D8
:1018100000000000000000000000000000000000C8
:1018200000000000000000000000000000000000B8
:101830000000000000000001020C1CBF7FFFFFFF42
:10184000CBDBDB9BFFFFFFFFFFFFF7FFFF1F0F0758
:101850000000000000000000000000000000000088
:101860000000000000000000000000000000000078
:101870000000000000000000000000000000000068
:101880000000000000000000000000000000000058
:1018900080C0201008080601000000000D193B3B25
:1018A0007B7F7F7F7F7F3F070001010102040408E7
:1018B0000830408000000000000000000000000030
:1018C0000000000000000000000000000000000018
:1018D0000000000000000000000000000000000008
:1018E0000000000000000000C0380C0301000000F0
:1018F00000000000000000000000000000000000E8
:101900000008C0000000000000000000000000000F
:101910000718E000000000000000000000000000C8
:1019200000000000000000000000000000000000B7
:1019300000000000000000000000000000000000A7
:10194000000000F807000000000000000000000098
:1019500000000000000000000000000000000F3F39
:10196000000000000000000000000000000003FC78
:101970000000000000000000000000000000000067
:101980000000000000000000000000000000000057
:101990000000000000000000000000000000000047
:1019A0000000000000000000000000000000000037
:1019B00000000080C04040402020602020202020E7
:1019C00060202040408080000000000000000000F7
:1019D0000000000000000000000000000000000007
:1019E00000000000000000000000000000000000F7
:1019F00000000000000000000000000000000000E7
:101A000000000000000000000000E0D8ECC2050269
:101A100005000000000000000000000000000000C1
:101A200000000101020C70800000000000000000B6
:101A300000000000000000000000000000000000A6
:101A40000000000000000000000000000000000096
:101A50000000000000000000000000000000000086
:101A600000000000F08F0C07000200C0E0E8F8FC66
:101A7000FCFEFEFEFEFEFEFCFCF8F8F0C0000000DE
:101A80000000F00F00000000000000000000000057
:101A90000000000000000000000000000000000046
:101AA0000000000000000000000000000000000036
:101AB0000000000000000000000000000000000026
:101AC0003FC0000000F0FEC7CBCBCBC3C7CFFFFFAA
:101AD000FFFFDFCFDFDFFFFFFF00806018070000A0
:101AE00000000000000000000000000000000000F6
:101AF00000000000000000000000000000000000E6
:101B000000000000000000000000000000000000D5
:101B10000000000000000000000000000001060CB2
:101B2000BEDFFFFFFFE7DBDF9B9BFFFFFFFFFFFF4A
:101B3000FFFFFF6F1F060300000000000000000011
:101B40000000000000000000000000000000000095
:101B50000000000000000000000000000000000085
:101B60000000000000000000000000000000000075
:101B700000000080C060201008040603010000007F
:101B80000A04193B7B7F7F7FFFFF7F3F0703050E22
:101B90000C183020C0800000000000000000000091
:101BA0000000000000000000000000000000000035
:101BB0000000000000000000000000000000000025
:101BC0000000000000000000000000C0380E03010B
:101BD0000000000000000000000000000000000005
:101BE000000000000290C0000000000000000000A3
:101BF0000001020C708000000000000000000000E6
:101C000000000000000000000000000000000000D4
:101C100000000000000000000000000000000000C4
:101C2000000000000000FC030000000000000000B5
:101C300000000000000000000000000000000000A4
:101C4000000F3F0000000000000000000000000046
:101C500000FF000000000000000000000000000085
:101C60000000000000000000000000000000000074
:101C70000000000000000000000000000000000064
:101C80000000000000000000000000000000000054
:101C900000000000008080804040C0404040404044
:101CA000C040808080800000000000000000000034
:101CB0000000000000000000000000000000000024
:101CC0000000000000000000000000000000000014
:101CD0000000000000000000000000000000000004
:101CE00000000000000000000000C0B0D8F4FACFEF
:101CF000010E0000000000000000000000000000D5
:101D0000000101020C18E08000000000000000004B
:101D100000000000000000000000000000000000C3
:101D200000000000000000000000000000000000B3
:101D300000000000000000000000000000000000A3
:101D40000000000000FF391F0F070781C0C0F0F836
:101D5000F8FCFCFCFCFCFCFCF8F8F8F0E0000000EF
:101D60000000F80F0000000000000000000000006C
:101D70000000000000000000000000000000000063
:101D80000000000000000000000000000000000053
:101D90000000000000000000000000000000000043
:101DA000007F80000000E0FEAD87878F8F8FFFFFF0
:101DB000FFFFFF9FFFDFFFFFFFF88040300F0000B5
:101DC0000000000000000000000000000000000013
:101DD0000000000000000000000000000000000003
:101DE00000000000000000000000000000000000F3
:101DF00000000000000000000000000000000306DA
:101E00001830FF3FFFFFDF8FB7B7B7FFFFFFFFFFC0
:101E1000FFFFFFFF7F3F0700000000000000000001
:101E200000000000000000000000000000000000B2
:101E300000000000000000000000000000000000A2
:101E40000000000000000000000000000000000092
:101E50000000000000000080402010080C06010077
:101E60000001011B33777777F7FFFFFFFF3F030781
:101E7000020C0810206040800000000000000000FC
:101E80000000000000000000000000000000000052
:101E90000000000000000000000000000000000042
:101EA0000000000000000000000000000000E0183A
:101EB0000C02010000000000000000000000000013
:101EC0000000000000000010800000000000000082
:101ED00000000001030CF000000000000000000002
:101EE00000000000000000000000000000000000F2
:101EF00000000000000000000000000000000000E2
:101F0000000000000000000000FF010000000000D1
:101F100000000000000000000000000000000000C1
:101F2000000000007F200000000000000000000012
:101F3000000000FF000000000000000000000000A2
:101F40000000000000000000000000000000000091
:101F50000000000000000000000000000000000081
:101F60000000000000000000000000000000000071
:101F700000000000008080404040202020202020E1
:101F8000206020404040C0800000000000000000B1
:101F90000000000000000000000000000000000041
:101FA0000000000000000000000000000000000031
:101FB0000000000000000000000000000000000021
:101FC000000000000000000000000000E0D8ECFA73
:101FD000A54200000000000000000000000000001A
:101FE0000000000001020418E000000000000000F2
:101FF00000000000000000000000000000000000E1
:1020000000000000000000000000000000000000D0
:1020100000000000000000000000000000000000C0
:10202000000000000000E0FF0E07030301C0E0E82D
:10203000F8FCFCFEFEFCFEFEFEFCFCFCF8F0800062
:10204000000000F007000000000000000000000099
:102050000000000000000000000000000000000080
:102060000000000000000000000000000000000070
:102070000000000000000000000000000000000060
:1020800000003FF780000000F8F7C2C3C3C3C7DFFA
:10209000FFFFFFFFCFCFEFFFFFFFFF40C0701E012C
:1020A0000000000000000000000000000000000030
:1020B0000000000000000000000000000000000020
:1020C0000000000000000000000000000000000010
:1020D0000000000000000000000000000000000000
:1020E0000306183AFF7F7F7FE3CDCFCFABFFFFFF23
:1020F000FFFFFFFFFF3F060100000000000000009F
:1021000000000000000000000000000000000000CF
:1021100000000000000000000000000000000000BF
:1021200000000000000000000000000000000000AF
:10213000000000000000008040201008040602019A
:1021400000000000001D1D3B3B7B7F7F7F7F3F0128
:102150000307060C08103020C0000000000000003B
:10216000000000000000000000000000000000006F
:10217000000000000000000000000000000000005F
:10218000000000000000000000000000000000C08F
:10219000300C030000000000000000000000000000
:1021A000000000000000000008C000000000000067
:1021B0000000000000030EF000000000000000001E
:1021C000000000000000000000000000000000000F
:1021D00000000000000000000000000000000000FF
:1021E000000000000000000000E01E0300000000EE
:1021F00000000000000000000000000000000000DF
:1022000000000000001F1800000000000000000097
:1022100000000000FF0000000000000000000000BF
:1022200000000000000000000000000000000000AE
:10223000000000000000000000000000000000009E
:10224000000000000000000000000000000000008E
:1022500000000000008040402020202010101010BE
:10226000101010202020604080800000000000003E
:10227000000000000000000000000000000000005E
:10228000000000000000000000000000000000004E
:10229000000000000000000000000000000000003E
:1022A000000000000000000000000000C030EC163C
:1022B000010001000000000000000000000000001C
:1022C000000000000001030638C00000000000000C
:1022D00000000000000000000000000000000000FE
:1022E00000000000000000000000000000000000EE
:1022F00000000000000000000000000000000000DE
:1023000000000000000000FC0303010100A0F03801
:10231000F8FEFEFFFFFFFFFFFFFEFEFEFCF8E00001
:10232000000080E03C03000000000000000000000E
:10233000000000000000000000000000000000009D
:10234000000000000000000000000000000000008D
:10235000000000000000000000000000000000007D
:102360000000001F60800000FEFFF1F0F1E1E1E3FA
:10237000FFFFFFFFE7F7F7FFFFFFFF806018060191
:10238000000000000000000000000000000000004D
:10239000000000000000000000000000000000003D
:1023A000000000000000000000000000000000002D
:1023B000000000000000000000000000000000001D
:1023C0008081864A7F6F1F3B3176E7E7FFFFFFFF83
:1023D000FFFFFFBFFF0B070100000000000000002F
:1023E00000000000000000000000000000000000ED
:1023F00000000000000000000000000000000000DD
:1024000000000000000000000000000000000000CC
:102410000000000080C0201008040201010000003C
:102420000000000203060E0E0E1F1F1F1F070000F4
:10243000010303060C18306080000000000000005B
:10244000000000000000000000000000000000008C
:10245000000000000000000000000000000000007C
:102460000000000000000000000000000080F00EEE
:10247000010000000000000000000000000000005B
:102480000000000000000000F80000000000000054
:10249000000000000107788000000000000000003C
:1024A000000000000000000000000000000000002C
:1024B000000000000000000000000000000000001C
:1024C0000000000000000000C03F0100000000000C
:1024D00000000000000000000000000000000000FC
:1024E00000000000030200000000000000000000E7
:1024F0000000001FE00000000000000000000000DD
:1025000000000000000000000000000000000000CB
:1025100000000000000000000000000000000000BB
:1025200000000000000000000000000000000000AB
:102530000000008040A0D0D0E8E8FCF4F4BC040423
:1025400004040C040C080810302040800000000037
:10255000000000000000000000000000000000007B
:10256000000000000000000000000000000000006B
:10257000000000000000000000000000000000005B
:102580000000000000000000000000C030ECFB7FF5
:102590007F3F1F0F858380C0C0C0C0C0C080800047
:1025A00000000000000000C13E000000000000002C
:1025B000000000000000000000000000000000001B
:1025C000000000000000000000000000000000000B
:1025D00000000000000000000000000000000000FB
:1025E0000000000000F807000301000080F85C3FD5
:1025F0007FFFFFFFFFFFFFFFFFFFFFFFFFF8000070
:1026000040E01C030000000000000000000000008B
:1026100000000000000000000000000000000000BA
:1026200000000000000000000000000000000000AA
:10263000000000000000000000000000000000009A
:10264000043F6080008080FEFFFEFDFDFDFDF9F887
:10265000FFFFFFFFF9FDFDFDFFFFF01C0300000081
:10266000000000000000000000000000000000006A
:10267000000000000000000000000000000000005A
:10268000000000000000000000000000000000004A
:1026900000000000000000000000000000000080BA
:1026A0008142473F1F0F4F9F9C3D3979FDFDFFFF42
:1026B000FF7F3F6F9F03000000000000000000004C
:1026C000000000000000000000000000000000000A
:1026D00000000000000000000000000000000000FA
:1026E00000000000000000000000000000000000EA
:1026F000000000806030180C06020100000000009D
:10270000000101030307070F0F0F0F0F0700000061
:102710000101030604081020C000000000000000B2
:1027200000000000000000000000000000000000A9
:102730000000000000000000000000000000000099
:10274000000000000000000000000000C03C0F017D
:102750000000000000000000000000000000000079
:1027600000000000000000FC00000000000000006D
:102770000000000000073CC0000000000000000056
:102780000000000000000000000000000000000049
:102790000000000000000000000000000000000039
:1027A00000000000000000F807000000000000002A
:1027B0000000000000000000000000000000000019
:1027C0000000000300000000000000000000000006
:1027D000000000FF000000000000000000000000FA
:1027E00000000000000000000000000000000000E9
:1027F00000000000000000000000000000000000D9
:1028000000000000000000000000000080C0205018
:10281000280406020101020100000000000000017E
:1028200000010202040C081020C00000000000009B
:102830000000000000000000000000000000000098
:102840000000000000000000000000000000000088
:102850000000000000000000000000000000000078
:10286000000000000000E01C7B3E0303000000802D
:10287000C0C0C0E0E0E0E0E0E0E0C0C0C080000038
:102880000000000000017E000000000000000000C9
:102890000000000000000000000000000000000038
:1028A0000000000000000000000000000000000028
:1028B0000000000000000000000000000000000018
:1028C0000000FF0000000000E07E3E3EBF7F7FFF73
:1028D000FFFFFFFFFFFFFFFFFFFFFFF8000000808B
:1028E000780F000000000000000000000000000061
:1028F00000000000000000000000000000000000D8
:1029000000000000000000000000000000000000C7
:102910000000000000000000000000000000031C98
:10292000608080FFFFFDFCFC7CBCF8787FFFFFFF30
:10293000FDFDFDFDFFFFFFFFE0300E010000000088
:102940000000000000000000000000000000000087
:102950000000000000000000000000000000000077
:102960000000000000000000000000000000000067
:102970000000000000000000000000008081434DC6
:102980003F0F0F9CBD7B7B7BFFFFFFFFFFFFFF3FE8
:102990007FFF4783000000000000000000000000EF
:1029A0000000000000000000000000000000000027
:1029B0000000000000000000000000000000000017
:1029C0000000000000000000000000000000000007
:1029D00000C02010080402010000000000000102F5
:1029E00003070F0F0F0F0F1F0F070300000000005A
:1029F000010102040C1830C080000000000000003B
:102A000000000000000000000000000000000000C6
:102A100000000000000000000000000000000000B6
:102A200000000000000000000080780601000000A7
:102A30000000000000000000000000000000000096
:102A400000000000F8F0000000000000000000009E
:102A500000000000030EF000000000000000000075
:102A60000000000000000000000000000000000066
:102A70000000000000000000000000000000000056
:102A800000000000F01F0000000000000000000037
:102A90000000000000000000000000000000000036
:102AA000010700000000000000000000000000001E
:102AB0000000017E80000000000000000000000017
:102AC0000000000000000000000000000000000006
:102AD00000000000000000000000000000000000F6
:102AE00000000000000000000000000000000000E6
:102AF00000000000000000804020D0E8ECF6FAFA68
:102B0000FC7DBE3C1C0D050100000101010000021E
:102B10000102040830C000000000000000000000B6
:102B200000000000000000000000000000000000A5
:102B30000000000000000000000000000000000095
:102B40000000000000000000000000000000E01095
:102B50000CE2F9FD7F3F1F0F078180C0C0E1E1E07B
:102B6000E0E0E0E0E0C0C080000000000000000005
:102B7000C038070000000000000000000000000056
:102B80000000000000000000000000000000000045
:102B90000000000000000000000000000000000035
:102BA0000000000000000000F00F00000301000022
:102BB0000000FCFEFFFFFFFFFFFFFFFFFFFFFFFF27
:102BC000FFFFFFFFFFFC0000A0701C0701000000DA
:102BD00000000000000000000000000000000000F5
:102BE00000000000000000000000000000000000E5
:102BF00000000000000000000000000000000000D5
:102C0000000000000F708000000000F8FEFFFFF7DA
:102C1000E5E5E4E5E5E3E3FFFFFFFFFFF7F7F7FF97
:102C2000FFCF380701000000000000000000000096
:102C30000000000000000000000000000000000094
:102C40000000000000000000000000000000000084
:102C50000000000000000000000000000000000074
:102C60000000010304068E9F7FBF7FFFFFFFEFDFA1
:102C7000DDDFDFFFFFFFFFFFFFFFFFFF7F0700003C
:102C80000000000000000000000000000000000044
:102C90000000000000000000000000000000000034
:102CA0000000000000000000000000000000000024
:102CB0000000000000000000008040201008040612
:102CC00002010100000001060C1C39393B7B7F7FAB
:102CD0007F7F7F1F030304070C0810302040800013
:102CE00000000000000000000000000000000000E4
:102CF00000000000000000000000000000000000D4
:102D000000000000000000000000000000000000C3
:102D100080701806030000000000000000000000A2
:102D20000000000000000000000000000000108013
:102D30000000000000000000000001067880000094
:102D40000000000000000000000000000000000083
:102D50000000000000000000000000000000000073
:102D600000000000000000000000E01C0300000064
:102D70000000000000000000000000000000000053
:102D800000000000000000000000001F7E000000A6
:102D9000000000000000000000FF00000000000034
:102DA0000000000000000000000000000000000023
:102DB0000000000000000000000000000000000013
:102DC0000000000000000000000000000000000003
:102DD00000000000000000000000000000000000F3
:102DE0000000000000000080C060301008080404EB
:102DF00002020281C1E1F1F97D7C1E17070303067F
:102E000002000000000000000000000000000000C0
:102E100000000000000000C17E0000000000000073
:102E200000000000000000000000000000000000A2
:102E30000000000000000000000000000000000092
:102E4000E03806010000000000002030181C0F07C9
:102E500007C3C1E0E0F0F0F8F8F8FCFCFCFCFCFC77
:102E6000F8F8F8F0F0E0C00000000000000080C0BA
:102E700070180E03000000000000000000000000B9
:102E80000000000000000000000000000000000042
:102E900000000000000000000000E03E0100000013
:102EA00000000000000000008080D0FEFFFFFFFF58
:102EB000FFFFFFFFFFFFFFFFFFFFFFFFFFFFFFFF22
:102EC000FFFFFFFFA070380C0603010000000000A8
:102ED00000000000000000000000000000000000F2
:102EE00000000000000000000000000000000000E2
:102EF0000000000000000738C000000000000000D3
:102F000080F8FEFFFFFFFFFFFFE7E7E7C4CCCCCD73
:102F1000C1C1C3E7FFFFFFFFFFDFDFDFFFFFF70FE9
:102F200001000000000000000000000000000000A0
:102F30000000000000000000000000000000000091
:102F40000000000000000000000000000000000081
:102F5000000000000001060C143E7EEE7EFFFFFF25
:102F6000FFFFFFFFFFFFFFFF7F7FFFEFEFEFEFEFC1
:102F7000FFFFFFFFFFFFFFFFFFFF7F0000000000DC
:102F80000000000000000000000000000000000041
:102F90000000000000000000000000000000000031
:102FA0000000000000000000000000000000804061
:102FB00060301804060202012344C09123E3C38356
:102FC000878F8F9FBEBEFEFCFCFAFEFEFE7F7FBF9A
:102FD000FFBF0F0703010000000000000000000019
:102FE00000000000000000000000000000000000E1
:102FF00000000000000000000000000000000000D1
:10300000000000804030180C0601000000000000A5
:103010000000000000000001030205070F0F1F1F42
:103020001F1F1F1F1F0000000000000001010306FA
:103030000C18F0000000000000000000000000007C
:103040000000000000000000000000000000000080
:10305000000000000000000000000000E01C07016C
:103060000000000000000000000000000000000060
:103070000000000000000000000000000000000050
:10308000080818800000000000000000000007FC95
:103090000000000000000000000000000000000030
:1030A0000000000000000000000000000000000020
:1030B0000000000000000000000000000000000010
:1030C0000000000000000000000000000000000000
:1030D0000000000000000000000080601C040201ED
:1030E00000000000000000000000000000000000E0
:1030F00000000000000000000000000000000000D0
:1031000000000000000000000000000000000000BF
:1031100000000000000000000000000000000000AF
:10312000000000000000000000000000000000009F
:1031300000000000F00E030000000000000000008E
:10314000000000000000000000000000000000007F
:10315000000000000000000000000000000000006F
:10316000000000000000000000000000000000005F
:10317000000000000000000000000000000000004F
:10318000000000000000000000000000000000FF40
:10319000000000000000000000000000000000002F
:1031A000000000000000000000000000000000001F
:1031B000000000000000000000000000000000000F
:1031C00000000000000000000000000000000000FF
:1031D00000000000000000000000000000000000EF
:1031E00000000000000000000000000F30C00000E0
:1031F00000000000000000000000000000000000CF
:10320000000000000000000000000000C0E000001E
:1032100000000000000000000000000000000000AE
:10322000000000000000000000000000000000009E
:10323000000000000000000000000000000000008E
:10324000000000000000000000000306183060C00D
:10325000800000000000808040C0000000000000EE
:1032600000000000000001FFFFFF00000000000060
:10327000000000000000000000000000000000004E
:10328000000000000000000000000000000000003E
:10329000000000000000000000000000000000002E
:1032A0000000000000000000000080808041423DDE
:1032B0004C000101030303030000000000000000B4
:1032C00000000007070700000000000000000000E9
:1032D00000000000000000000000000000000000EE
:1032E00000000000000000000000000000000000DE
:1032F00000000000000000000000000000000000CE
:10330000E0300C020101000000000000000000009D
:1033100000000000000000000000000000000000AD
:10332000000000000000000000000000000000009D
:10333000000000000000000000000000000000008D
:10334000000000000000000000000000000000007D
:103350000000000000C02010080C02010100000065
:10336000000000000000000000000000000000005D
:10337000000000002020707878FCFCFEFEFC080BAA
:103380000002020200000904000001020200000520
:10339000240010010524010101042402060524066D
:1033A00000010705810310004009040100020A0022
:1033B00000000705020240000007058302400000EC
:1033C0000403090412010002EF0201404123368088
:1033D00000010102030141726475696E6F204C4C5B
:1033E000430041726475626F79000030003A00005A
:1033F000922511241FBECFEFDAE0DEBFCDBF11E072
:10340000A0E0B1E0ECE5FAE502C005900D92AE3F18
:10341000B107D9F726E0AEEFB1E001C01D92A93A9D
:10342000B207E1F719E1C9EFD9E104C02197FE0124
:103430000E94262DC83FD107C9F70E94DB250C94B6
:103440002C2D0C9400008091FE010895480F592FF7
:10345000511D1416150684F5803891056CF597FFFB
:1034600002C090E080E04138510514F040E850E09F
:10347000481BFB01E770FF2721E001C0220FEA95FE
:10348000EAF777FF02C0695F7F4FFB0133E0F595F4
:10349000E7953A95E1F7F695FE2FEE27F795E79534
:1034A000E80FF91FED57FD4F415030F08191DF01DA
:1034B0001197822B8C93F8CF08957F928F929F92D1
:1034C000AF92BF92CF92DF92EF92FF920F931F9332
:1034D000CF93DF93DC01FA01D490319694914E5F43
:1034E0005F4FCD2DD0E02223E1F001E010E0892FE5
:1034F000877011F410E000E0E92FE695E695E69577
:10350000E00FF12FF11DEC9F8001ED9F100DFC9F4E
:10351000100D1124209FF001219FF00D11244E0F5A
:103520005F1F7E01EA0EFB1E1E141F040CF0A2C0DA
:103530009B01290F311D121613060CF09BC060343D
:1035400071050CF097C04115510509F493C0062F81
:1035500007709B0177FF02C0295F3F4F83E03595DD
:1035600027958A95E1F7F22F77FF04C0002311F029
:10357000FFEFF20F222733272A1B3B0BB7FD02C0B8
:1035800030E020E010E81A1B712E10E8E116F1047B
:103590000CF47D2C721A6F2F0F2E000C770BF62E69
:1035A000F094FF3F0CF0F12CE1E0892F877009F4D3
:1035B000E0E09695969596959E0F690F711D69307E
:1035C000710514F098E09F1B9F2C9F0E692D70E8E9
:1035D000670350011124AA0DBB1DA20FB31FDF9C6E
:1035E000200D311D1124420F531FC02E002E000C40
:1035F000DD082FEF30E0002E02C0220F331F0A94A7
:10360000E2F720953095832E9F0F991599F1FD01D2
:10361000ED57FD4F7F01B12CA12CA71428F5FA011D
:10362000EA0DFB1D649170E00C2C02C0660F771F41
:103630000A94E2F797FC05C0F70180818223862B6C
:103640008083002351F0F6E0F9153CF0F701E058D3
:10365000FF4F80818821872B80831FEFA11AB10A39
:103660006FEFE61AF60AD9CF93944C0F5D1FA0585E
:10367000BF4FCBCFDF91CF911F910F91FF90EF9074
:10368000DF90CF90BF90AF909F908F907F900895E4
:10369000E3E8F2E0A0E0B8E000800EBC8111012C6C
:1036A0001197A0FDFDCF0192B9F70DB40895FC016B
:1036B00080913202882311F13FB7F89482E0809321
:1036C000E9002091F200822F90E01816190614F4F8
:1036D00081E090E0882339F0289844E64093310255
:1036E0004091F1004083222339F02091F200211112
:1036F00003C02BE62093E8003FBF08958FEF9FEFB4
:1037000008952FB7F89483E08093E9009091E80042
:10371000892F807295FF04C09091F20080E4891B8C
:103720002FBF08958091290281110DC082E08093FE
:10373000250284E08093260210922802109227022C
:1037400081E08093290285E292E00895CF93DF9390
:103750001F92CDB7DEB76983DC01ED91FC91028049
:10376000F381E02D41E050E0BE016F5F7F4F09958E
:103770000F90DF91CF91089583E08093E9008091CD
:10378000F200882319F08AE38093E80008950E94EC
:10379000811B90E00895CF93DF931F92CDB7DEB7E2
:1037A000FC018485958597FD08C02FEF3FEF358795
:1037B00024870F90DF91CF910895CE0101960E944A
:1037C000571B019719F4898190E0F3CF8FEF9FEF9A
:1037D000F0CF0F931F93CF93DF931F92CDB7DEB738
:1037E0008C01FC018485958597FF0BC0CE01019665
:1037F0000E94571B019771F4898190E0F801958729
:103800008487F801848595850F90DF91CF911F9172
:103810000F9108958FEF9FEFF1CFFC01848595857F
:1038200097FD0BC09FB7F89482E08093E9008091E8
:10383000F2009FBF90E0019608959FB7F89482E050
:103840008093E9008091F2009FBF90E0089540913D
:103850001F025091200220911D0230911E0242173A
:103860005307B4F49091E8009570E1F39091E8006B
:1038700092FD19C08093F10080911F029091200267
:1038800001968F739927892B19F48EEF8093E800A6
:1038900080911F02909120020196909320028093C4
:1038A0001F0281E0089580E00895DF92EF92FF9279
:1038B0000F931F93CF93DF93D82E8A01EB017B01E7
:1038C000E40EF51ECE15DF0559F0D7FE12C0FE013D
:1038D00084910E94271C21968111F4CF0FEF1FEFD6
:1038E000C801DF91CF911F910F91FF90EF90DF9072
:1038F00008958881EECF0F931F93CF93DF931F928C
:10390000CDB7DEB782E0898342E450E06EE773E32F
:1039100080E80E94551C0E94921BDC0112960D91BA
:103920001C910115110589F0D801ED91FC910280DF
:10393000F381E02DBE016F5F7F4FC801099597FDB0
:1039400004C0F80100851185ECCF89810F90DF91CB
:10395000CF911F910F910895615030F02091F100A7
:10396000FC0120830196F8CF289884E680933102E9
:103970000895AF92BF92CF92DF92EF92FF920F9392
:103980001F93CF93DF936C017B018B01040F151FF5
:10399000EB015E01AE18BF08C017D10759F069915D
:1039A000D601ED91FC910190F081E02DC6010995C1
:1039B000892B79F7C501DF91CF911F910F91FF906E
:1039C000EF90DF90CF90BF90AF9008953FB7F894FD
:1039D0008091120290911302A0911402B0911502ED
:1039E00026B5A89B05C02F3F19F00196A11DB11D5A
:1039F0003FBFBA2FA92F982F8827BC01CD01620F96
:103A0000711D811D911D42E0660F771F881F991F50
:103A10004A95D1F708958F929F92AF92BF92CF921D
:103A2000DF92EF92FF926B017C010E94E61C4B013A
:103A30005C01C114D104E104F104B9F00E94E61C58
:103A4000681979098A099B09683E734081059105C7
:103A500080F321E0C21AD108E108F10888EE880E4F
:103A600083E0981EA11CB11CE4CFFF90EF90DF9083
:103A7000CF90BF90AF909F908F9008958F929F921C
:103A8000AF92BF92CF92DF92EF92FF920F931F936C
:103A9000CF93DF936C017B018A0180910C01882315
:103AA00009F45CC080913202882309F457C08091E8
:103AB000240280FF05C08091E00082608093E000D6
:103AC000E801B12C8AEFA82E93E0892E2AE3922EEA
:103AD000209711F4BB20D9F10E94811B81110AC0EB
:103AE000AA94AA20D9F161E070E080E090E00E9401
:103AF0000B1DEECF8C171D0611F00CF08C2F9FB70D
:103B0000F8948092E9002091E80025FD02C09FBF53
:103B1000DFCF282F30E0C21BD30BF701815020F0FC
:103B200041914093F100FACFE20EF31EBB2021F049
:103B30009092E800B12CEBCF8091E80085FDE7CFB3
:103B40009092E800BB24B394209709F3F3CF5D98DB
:103B500084E680932302101611063CF081E090E089
:103B6000F6019383828310E000E0C801DF91CF91DA
:103B70001F910F91FF90EF90DF90CF90BF90AF908B
:103B80009F908F9008952FB7F89460910E027091D6
:103B90000F0280911002909111022FBF0895809121
:103BA0001601882351F00E94C31D2091100130910D
:103BB0001101CB01821B930B089590E080E00895E2
:103BC0006F927F928F929F92AF92BF92CF92DF922D
:103BD000EF92FF920F931F93CF93DF934C017B01E2
:103BE000C22F102F98E0A92EB12C642E66946694F3
:103BF0006694712CCA0187709927892B79F5D401B5
:103C000017962D913C91C7019927B9010E94122D59
:103C1000269DF001279DF00D369DF00D11248E0F8D
:103C20009F1FD4011596ED91FC91E80FF91F20819B
:103C3000111112C0C095C223C083DF91CF911F9193
:103C40000F91FF90EF90DF90CF90BF90AF909F903B
:103C50008F907F906F900895C22BEECFD0E0477089
:103C6000C42ED12C83E0660C771C8A95E1F79E0167
:103C700001C0220F4A95EAF7012FA301B701C40141
:103C80000E94E01DA301485F5F4FC5018C199D098B
:103C900002C0D595C7958A95E2F7A7CF5F926F923C
:103CA0007F928F929F92AF92BF92CF92DF92EF92CC
:103CB000FF920F931F93CF93DF93EC016A30F1F4DF
:103CC0008D859E859C878B878C892F853889820F6F
:103CD000932F911D988B8F8781E090E0DF91CF919A
:103CE0001F910F91FF90EF90DF90CF90BF90AF901A
:103CF0009F908F907F906F905F900895AB84BC846D
:103D0000693031F429E0A20EB11CBC86AB86E4CF49
:103D10003DEFA3163FEFB3060CF45DC08F8198858D
:103D2000A816B9060CF057C0CF84D8888DEFC816F6
:103D30008FEFD8060CF44FC089859A85C816D9062E
:103D40000CF049C0603208F46FE780EE860F9FE9FF
:103D5000960F9A3118F49FEFC91AD90A8C3011F0D6
:103D60008B3119F42FEFC21AD20A869534E0839F63
:103D7000C00111249C012C503E4E7901912C812CC4
:103D8000162F1170F701E80DF91D549011112DC077
:103D9000352D3F70532E3501680C791C8C8188239A
:103DA00061F001E089899A89892B09F000E02FE010
:103DB000A601B301CE010E94E01D0989252DA601AF
:103DC000B301CE010E94E01D8FEF881A980A94E09B
:103DD00089169104B9F68B8990E004962B853C8571
:103DE000820F931F9C878B8777CF52948FE0582246
:103DF000D2CF0F931F93CF93DF938C01D0E0C0E01D
:103E0000F801EC0FFD1F6491662341F084E996E010
:103E10000E944E1E892B11F02196F2CFCE01DF9128
:103E2000CF911F910F91089520910602E091040215
:103E3000F0910502CF01029690930502809304024F
:103E4000222319F08591949108958081918108959C
:103E5000E1E7F0E080818D7F8083109291004698A9
:103E60004798109203020895CF92DF92EF92FF924B
:103E7000CF93DF930E94141F811520E8920741F42D
:103E8000DF91CF91FF90EF90DF90CF900C94281F9F
:103E900021E020930302813020E8920751F48091C1
:103EA00001029091020290930502809304020E9405
:103EB000141F97FD05C020910002222309F45BC066
:103EC0002091FF01211157C021E020930702EC014E
:103ED000DF77209709F052C081E08093080246986E
:103EE0003FE9C32E3FE0D32EE12CF12CCAEFD0E006
:103EF000E0919106F09192060995811103C081E04D
:103F00008093080280910702882329F0809108029B
:103F1000882309F446C047980E94141F009709F4AB
:103F200044C09C01DE010E94532BDC01CB0129E03F
:103F3000B595A795979587952A95D1F710929000FA
:103F40002AE020939100D0929900C092980080932B
:103F5000090290930A02A0930B02B0930C02809185
:103F60007100826080937100DF91CF91FF90EF909C
:103F7000DF90CF90089510920702A9CF9E0150E0E4
:103F800040E060E472E48FE090E00E94FF2A690163
:103F90007A0181E0C81AD108E108F10810920802FC
:103FA000A7CF4699B8CF479AB7CF8FEF9FEFDC01E5
:103FB000C5CF2D9A0895BC0190E080E00C940B1DB4
:103FC0008FB18095807F669B88601C9B846008957C
:103FD0001092FE013E983F9808953E9A3F9A81E0E4
:103FE0008093FE01089590911B02982329F49091EB
:103FF0001C02982381E009F480E00895CF93DF93B9
:10400000FC01460F572F511D77FF02C070E060E0A2
:1040100030E1CA014134510514F080E490E06817A2
:104020007907ECF4E038F105A0F4EB0181E0C1FD83
:1040300084E0C0FD880FC2FD8295C87F3C9FD001FF
:104040001124AE0FAD57BD4F9C91222329F0982B20
:104050009C936F5F7F4FDDCF80959823F9CFDF91E1
:10406000CF910895EF92FF920F931F93CF93DF9319
:104070007C018B01C42FD22F6034710510F40E9493
:10408000261AB8016D0F711D6150710960347105F8
:1040900020F44C2FC7010E94261A21E04D2FB801B1
:1040A000C7010E94FE1FC7018C0F911D21E04D2FFB
:1040B000B8010197DF91CF911F910F91FF90EF9081
:1040C0000C94FE1FCF92DF92EF92FF920F931F93FB
:1040D000CF93DF936B01122FEC017C01E40EF11CF6
:1040E000CE15DF0544F4202F412FB601CE010E94EA
:1040F000FE1F2196F5CFDF91CF911F910F91FF9079
:10410000EF90DF90CF900895089590E080E00895BB
:10411000CF93DF93CDE0D1E0EA810E2E000CFF0BB0
:10412000E957FE4FE081EE0FFF0BE55EFE4F208169
:104130003181E1E7F0E080818D7F808381E08093B1
:10414000060230930502209304023093020220936A
:1041500001020E94341F0E94C31D6B837C838D83E8
:104160009E83DF91CF91089597FF06C010921501AD
:10417000109214010C94E81F83309105C4F082E082
:1041800090E090931501809314010E94ED1F80919F
:10419000140190911501029789F081E01092FF01BE
:1041A00010920002813061F48093FF010895909392
:1041B000150180931401892B41F7DCCF82E0EECF0B
:1041C00081E080930002089580E80E94F31F882315
:1041D00039F0809114019091150101960C94B4204E
:1041E00080E10E94F31F882331F0809114019091A7
:1041F00015010197F3CF089580930F018091160167
:1042000081110C9488200895CF93DF93CDE0D1E005
:10421000998388830E94C31D6B837C838D839E83D7
:1042200019861092930680E0DF91CF910C94FC20C8
:10423000CF92DF92EF92FF9289E0C82ED12CE12C31
:10424000F12C0E94912AA70196010E94FF2A8091D9
:1042500093068617B1F360939306FF90EF90DF907B
:10426000CF9008958F929F92AF92BF920F931F931A
:10427000CF93DF93CDB7DEB7A1970FB6F894DEBF2B
:104280000FBECDBF19A2423008F44AE08E010F5D87
:104290001F4F842E912CB12CA12CA50194010E94BA
:1042A000312BE62FB901CA01EA3044F5E05DD801AF
:1042B000EE938D01232B242B252B79F790E080E0C2
:1042C000109769F0FD0101900020E9F73197AF01E7
:1042D0004A1B5B0BBD0184E996E00E94B91CA196C4
:1042E0000FB6F894DEBF0FBECDBFDF91CF911F9107
:1042F0000F91BF90AF909F908F900895E95CD7CFBA
:10430000EF92FF920F931F93CF93DF93C82F9B01E0
:10431000CB0168EE73E00E94FE2C8B010C2E000C8A
:10432000DD0BD093A206C093A106D093A006C09344
:104330009F0688E390E09093A4068093A30661E033
:1043400070E020363A4E10F470E060E090E080E0DB
:104350004AE00E943221CE0104969093A2068093F7
:10436000A1069093A00680939F0688E3E82EF12C87
:10437000F092A406E092A3068DEE93E30E94F91E4C
:104380002796D093A206C093A106D093A006C0930F
:104390009F06F092A406E092A3068AEE93E30A3009
:1043A000110510F48BEE93E30E94F91EB80190E022
:1043B00080E04AE0DF91CF911F910F91FF90EF9045
:1043C0000C943221CF92DF92EF92FF92CF93DF9342
:1043D0006C01092E000CEE08FF0897FF19C06DE272
:1043E00084E996E00E944E1EEC0166277727CB01F8
:1043F0006C197D098E099F094AE00E9432218C0FB9
:104400009D1FDF91CF91FF90EF90DF90CF900895A7
:104410004AE0C701B601DF91CF91FF90EF90DF90A6
:10442000CF900C9432211F920F920FB60F9211244D
:104430008F939F938091E1009091E100937F9093FF
:10444000E10083FF0FC01092E90091E09093EB0030
:104450001092EC0092E39093ED001092320298E0FB
:104460009093F00082FF22C093E09093E900909136
:10447000F200992319F09AE39093E80090912302B7
:10448000992341F09091230291509093230291112E
:1044900001C05D9A90913102992341F090913102CF
:1044A000915090933102911101C0289A84FF18C055
:1044B0008091E2008E7E81608093E2008091E10035
:1044C0008F7E8093E100809124028E7E80618093B4
:1044D00024029F918F910F900FBE0F901F901895FF
:1044E00080FFF7CF8091E2008E7E80618093E200B2
:1044F0008091E1008E7E8093E100809124028E7E87
:104500008160E5CF1F920F920FB60F921124CF92C8
:10451000DF92EF92FF920F931F932F933F934F934E
:104520005F936F937F938F939F93AF93BF93EF931B
:10453000FF93CF93DF93CDB7DEB76C97DEBFCDBFD0
:104540001092E9008091E80083FF25C068E0CE0169
:1045500045960E94AC1C82EF8093E8008D8987FF0E
:1045600039C09091E80090FFFCCF982F907609F029
:1045700034C19E894F89588D2F89F88C911131C093
:10458000803861F5809122028093F1001092F10051
:104590008EEF8093E8006C960FB6F894DEBF0FBEE6
:1045A000CDBFDF91CF91FF91EF91BF91AF919F91DF
:1045B0008F917F916F915F914F913F912F911F91BB
:1045C0000F91FF90EF90DF90CF900F900FBE0F9064
:1045D0001F9018959EEF9093E800C7CF1092F100BE
:1045E000D5CF913059F48111D3CF4130510581F6A7
:1045F000809122028D7F80932202CACF933049F4AA
:104600008111C6CF4130510519F680912202826096
:10461000F2CF953041F48091E80080FFFCCF206814
:104620002093E300B5CF963009F0A9C00B8D1C8D07
:1046300022E01092E9001092200210921F02F21262
:104640002EC010921E0210921D020E947B1C1F821F
:1046500099E09983FA8291E09E8390EA98879AEF95
:10466000998720911F0230912002275F3F4F3C83A2
:104670002B838D831092E9001092200210921F026A
:1046800010931E0200931D0249E050E0BE016F5FCF
:104690007F4F80E00E94551C0E947B1C79CF1093B5
:1046A0001E0200931D020E94921BDC0112960D91C6
:1046B0001C910115110509F451C1D801ED91FC912E
:1046C0000480F581E02DBE016B5E7F4FC801099526
:1046D000009709F03EC1F80100851185EACFF3E0AB
:1046E000FF120EC08F89882309F440C0823061F424
:1046F00040E867E082EE93E30E945F25811148CF96
:1047000081E28093EB0047CF813029F440E86BE0F1
:1047100086ED93E3F1CF833099F70E94921BDC0181
:104720001296ED90FC908E010F5F1F4F6801E1140F
:10473000F10479F0D701ED91FC910680F781E02D2D
:10474000B801C7010995080F111DF701E084F18434
:10475000EECFD8011C92F60101900020E9F73197C5
:10476000BF016C197D0940E0C601C6CF60EC73E360
:10477000FB01449150E080E80E94551C09CF97301E
:1047800009F4BECF983021F481E08093F10000CF8E
:10479000993009F0FDCE837009F0B2CFE9EDF1E078
:1047A00081E031E096E32191222371F08093E900CA
:1047B0003093EB00DF0111972C912093EC00909344
:1047C000ED008F5F873079F78EE78093EA001092D3
:1047D000EA008F8980933202DBCE8B8D9C8D109204
:1047E000E9001092200210921F0290931E02809303
:1047F0001D02898D811192C08E899D89913A49F45B
:10480000813209F07DCF47E050E065E071E080E063
:10481000B3CF913209F074CF833269F48F89988DC8
:10482000B0E0A0E08093010190930201A093030106
:10483000B0930401ADCE803269F48091E80082FF2C
:10484000FCCF67E085E091E00E94AC1C8BEF809389
:10485000E8009ECE823209F09BCE8F8980930C01B6
:10486000EEEFFFE7859194918B3F9C4D51F1E0E095
:10487000F8E08091050190910601A0910701B091A7
:104880000801803B9440A105B105F1F480910C0131
:1048900080FD1AC0EE3F8AE0F80789F587E797E7C1
:1048A00091838083809160008093210288E19BE066
:1048B0000FB6F894A895809360000FBE90936000A7
:1048C00067CEEEEFFAE0D5CF8081918187379747A9
:1048D00009F05ECEA89580916000886180936000A9
:1048E0008091210280936000EE3F2AE0F20789F078
:1048F0008091FE0A9091FF0A9183808349CE808146
:1049000091818737980751F29093FF0A8093FE0AAE
:10491000C5CF1092FF0A1092FE0A3ACE0E94921B57
:10492000DC0112960D911C910115110509F4E8CED8
:10493000D801ED91FC910190F081E02DBE016B5EFC
:104940007F4FC8010995811123CEF801008511859B
:10495000EBCF181619060CF41BCED2CEF1E0FF12E5
:10496000BECE64EC73E304CF1F920F920FB60F928A
:1049700011242F933F938F939F93AF93BF93809175
:104980000E0290910F02A0911002B091110230918D
:104990000D0223E0230F2D3758F50196A11DB11DFF
:1049A00020930D0280930E0290930F02A0931002A9
:1049B000B09311028091120290911302A0911402FF
:1049C000B09115020196A11DB11D80931202909322
:1049D0001302A0931402B0931502BF91AF919F915F
:1049E0008F913F912F910F900FBE0F901F901895B0
:1049F00026E8230F0296A11DB11DD2CF1F920F9260
:104A00000FB60F9211242F933F934F935F936F93A1
:104A10007F938F939F93AF93BF93EF93FF93809177
:104A2000090290910A02A0910B02B0910C02892B0D
:104A30008A2B8B2B09F440C08091080281110BC096
:104A400088B190E4892788B980910702882319F0FA
:104A500088B1805888B98091090290910A02A0918A
:104A60000B02B0910C02181619061A061B069CF4CC
:104A70008091090290910A02A0910B02B0910C0260
:104A80000197A109B1098093090290930A02A093AA
:104A90000B02B0930C02FF91EF91BF91AF919F91E8
:104AA0008F917F916F915F914F913F912F910F90D7
:104AB0000FBE0F901F9018950E94341FECCFEF92FD
:104AC000FF920F931F93CF93DF93F82E192FE62EAB
:104AD000042F81E0860F880F0E94271C83E00E942C
:104AE000271CCF2DD12FEC0EFD2EF11CCE15DF058E
:104AF000B9F007FF13C0FE0184910E94271C182FF4
:104B000080E00E94271C812321968111EFCFDF9145
:104B1000CF911F910F91FF90EF9008958881EDCF75
:104B200081E0F5CFE3E3F2E01382128288EE93E0B6
:104B3000A0E0B0E084839583A683B78383EE91E001
:104B4000918380838FEF9FEF9587848783E29AE13B
:104B5000909392068093910680E090E8909390065F
:104B600080938F0646983E9A47983F9AE3E9F6E08D
:104B700010821482138285EF91E09283818383E80F
:104B800092E09783868380E890E09187808780E435
:104B900090E09387828785E0858B81E0848B178600
:104BA0001686118A108A1586148681E090E0938B10
:104BB000828B15820895789484B5826084BD84B513
:104BC000816084BD85B5826085BD85B5816085BD08
:104BD00080916E00816080936E00109281008091C0
:104BE0008100826080938100809181008160809348
:104BF000810080918000816080938000809191008D
:104C000082608093910080919100816080939100F7
:104C1000809190008160809390008091C1008460B9
:104C20008093C1008091C10082608093C100809117
:104C3000C10081608093C1008091C3008160809336
:104C4000C3008091C00082608093C0008091C20048
:104C500081608093C20080917A00846080937A00A2
:104C600080917A00826080937A0080917A008160DE
:104C700080937A0080917A00806880937A00109205
:104C8000320210922202109224028091D700816099
:104C90008093D70080EA8093D80089B5806189BD70
:104CA00089B5826089BD09B400FEFDCF61E070E086
:104CB00080E090E00E940B1D8091D8008F7C806185
:104CC0008093D8008091E000807F8093E000809105
:104CD000E1008E7E8093E1008DE08093E200559AA2
:104CE000209A81EC80937C0085B1806F85B984B176
:104CF000877E84B984B1876E84B95E9A5F988AB1E1
:104D0000806D8AB9769A6E9881B3806F81BB8998DD
:104D100080B38D7080BB80E58CBD81E08DBD85E06A
:104D200090E00E94DB1F5F9A85E090E00E94DB1F0D
:104D30005E985C98E4EBF2E184918EBD00000DB4C6
:104D400007FEFDCF319622E1E13CF207A9F75C9A1C
:104D500081E88093640080916500816080936500A4
:104D600080E00E94481B0E94E01F87FF15C05C98EE
:104D700085EA8EBD00000DB407FEFDCF5C9A2E982B
:104D80002F982D988091640080628093640081E068
:104D900083BF889513BEFCCF0E94E01F82FF48C0EE
:104DA0002D980E94E01F84788438E1F40E94D91F76
:104DB00088EC90E00E94DB1F2F9882E090E00E9438
:104DC000E92A8F3F29F06FEF82E090E00E94F12AFC
:104DD00084EF91E00E94DB1F2F9A0E94E01F8478ED
:104DE0008438D9F30E94E01F84718431E1F40E9479
:104DF000D91F88EC90E00E94DB1F2E9882E090E0A3
:104E00000E94E92A882329F060E082E090E00E9475
:104E1000F12A84EF91E00E94DB1F2E9A0E94E01F8E
:104E200084718431D9F388EC90E00E94DB1FB4CF09
:104E30000E94D91F82E090E00E94E92A882309F4A9
:104E400053C00E94ED1F81E090E00E94E92A847027
:104E5000B82E81E090E00E94E92A81FF10C0B110D5
:104E60002E98C1EFDFEF08E010E0B8E5AB2E0E940E
:104E7000E01F86FF3CC02E9A2F9A0E94D91F82E322
:104E800090E00E94DB1F0E94E01F8111F8CF83E5B4
:104E90008093000190E080E00E94042138EE432ED0
:104EA00033E0532E612C712C48E3A42EB12C59E62B
:104EB000852E912C11E020E0222E20E0322E8091D0
:104EC0001601811102C00E94281F0E94C31D00917B
:104ED0001602002309F49DC0109216022114310419
:104EE00071F30E940000E6CF0E94E81FACCFBB2008
:104EF00029F0C430D10511F42E9A2F9881E00E9438
:104F0000481B9E01D7FF04C0222733272C1B3D0BD3
:104F100027703327CE01D7FD0796A3E09595879597
:104F2000AA95E1F7D7FF05C00197A801421B530BD3
:104F30009A01BC017695762F6627779567956D5710
:104F40007D4FF12CE12C3801621A730A8E3F5FEF1E
:104F5000950709F43DC0AE9CD001AF9CB00D112463
:104F600050E040E0AF53BD4E4B01E0E88E0E911C87
:104F70008F3F980791F0FD01E40FF51FE4916B015D
:104F8000C40ED51EF0E02F01022E01C0440C0A947D
:104F9000EAF7F60154884528448A2115310599F02D
:104FA000FD01E40FF51FE4916401C40ED51EF0E08D
:104FB0002F01062C02C0559447940A94E2F7F6019B
:104FC00054884528448A4F5F5F4F4835510581F624
:104FD000019660587F4FEA94EF28B9F480E00E9470
:104FE000481B8FE090E00E94DB1F2196C931D1055C
:104FF00009F03DCFBB2011F02F9A2D9880E991E068
:105000000E94DB1F0E94D91F3ACFEE24E394F12CBB
:105010009DCF80911702262F281B822F909100018F
:10502000291740F48F5F891708F058CF13BF889570
:1050300013BE54CF1093160260931702C091190249
:10504000D0911A022196D0931A02C093190280912E
:105050001C0280931B020E94E01F80931C02E3E865
:10506000F2E001110FEF00240193019301930193EA
:105070000394D1F780910D0190910E01892B09F0D5
:1050800088C0C0FD05C0809193068F5F8093930612
:10509000209193062B3044F44CED53E170E060E036
:1050A00084E290E00E945D1A84E090E09093A20672
:1050B0008093A1069093A00680939F069093A406E8
:1050C0008093A3068AEC93E10E94F91E20911401BB
:1050D00049EA53E164E070E085E790E00E945D1AE0
:1050E000809193068B3094F09092A2068092A10654
:1050F0009092A00680929F0643E350E05093A4064E
:105100004093A30680EC93E10E94F91E88E00E9480
:10511000F31F81110AC084E00E94F31F811105C0B2
:1051200080E40E94F31F882339F181E090E00E941F
:1051300004210E94E42080E00E94481B80910D0120
:1051400090910E01892B09F0C9CE0E94C31DC09019
:105150001001D0901101E0901201F09013016C1930
:105160007D098E099F09683B7B408105910508F404
:10517000B5CE81E090E068C180E20E94F31F8823F1
:10518000C1F281E090E00E9404218AE10E94FC20AB
:10519000D0CF0E94CF1D7C0180910F01E82F082EF7
:1051A000000CFF0BE957FE4FE081EE0FFF0BEF5AAB
:1051B000FE4FC081D18190911601992361F09E012B
:1051C0002C503E4FE216F30630F08A310CF03AC113
:1051D0008F5F0E94FC2080911601882309F445C04E
:1051E000EC16FD0608F041C0E0910F010E2E000CF8
:1051F000FF0BE957FE4FE081EE0FFF0BEE55FE4F20
:10520000C081D181CC0FDD1F0E94CF1DB0E0A0E096
:105210006C017D019AE0CC0CDD1CEE1CFF1C9A9504
:10522000D1F79E0150E040E060E67AEE80E090E049
:105230000E94FF2AC701B6010E94312BCA01B901A1
:10524000A30192010E94312B21703327232B09F0F7
:10525000FEC080911601882321F0809118028111EF
:1052600004C00E94182110931802209193064CED5F
:1052700053E170E060E08CEF9FEF0E945D1A20E345
:1052800040E364E070E084E090E00E94322000E0BF
:1052900024E040E870E060E090E080E00E9462205E
:1052A00020E344E064E070E090E080E00E9462204F
:1052B00020E34CE464E070E084E390E00E9462202C
:1052C0002CE040E864E370E090E080E00E9462201F
:1052D000B092A206A092A106B092A006A0929F064C
:1052E00084E090E09093A4068093A30680910F0140
:1052F000082E000C990B01960E94E22187EA93E1A7
:105300000E94F91E8BE190E00E94E221B092A20679
:10531000A092A106B092A006A0929F068CE090E019
:105320009093A4068093A306E0910F010E2E000C2B
:10533000FF0BE957FE4FE081EE0FFF0BEF58FC4EDD
:10534000859194910E94F91E2091140149EA53E13C
:1053500064E070E085E790E00E945D1A0E94CF1D36
:10536000BC0184E00E948021E0910F010E2E000C10
:10537000FF0BE957FE4FE081EE0FFF0BEF5AFE4F98
:10538000608171816C507E4F8CE60E94802124E008
:1053900046E568E370E085E190E00E9432200E94DB
:1053A000CF1DBC0190E080E00E94032C20E030E0A3
:1053B0004CEA52E40E94912C6B017C01E0910F01B8
:1053C0000E2E000CFF0BE957FE4FE081EE0FFF0B96
:1053D000EF5AFE4F608171816C507E4F90E080E00B
:1053E0000E94032C9B01AC01C701B6010E94622BF5
:1053F0000E94D42B462F01E024E068E370E085E1B1
:1054000090E00E94622088E00E94F31F882311F13F
:105410001092160180E40E94F31F882329F18091E5
:105420000F018F5F0E94FC200E9418210E94E4203F
:1054300080910F018B3108F47ECE90E080E00E94D5
:10544000042179CE90E080E00E94042147CD1092A3
:1054500018020BCF84E00E94F31F8823D9F2109327
:1054600016010E948820D6CF80E20E94F31F882375
:10547000E9F20E94CF1D20910F01883E934018F45D
:105480008FEF820FCFCF822FCDCF8F929F92AF928F
:10549000BF92CF92DF92EF92FF92CF93DF93EC0116
:1054A000688179818A819B816115710581059105EA
:1054B00021F464E279ED8BE597E02DE133EF41E0F3
:1054C00050E00E94FF2A49015A019B01AC01A7EA62
:1054D000B1E40E941E2B6B017C01ACEEB4EFA50180
:1054E00094010E942C2BC60ED71EE81EF91EF7FE53
:1054F00006C081E0C81AD108E10880E8F80AC8822D
:10550000D982EA82FB82C701B6019F77DF91CF91F2
:10551000FF90EF90DF90CF90BF90AF909F908F90D3
:1055200008958F929F92AF92BF92CF92DF92EF92A7
:10553000FF9260911701709118018091190190916B
:105540001A01611571058105910521F464E279ED77
:105550008BE597E02DE133EF41E050E00E94FF2A18
:1055600049015A019B01AC01A7EAB1E40E941E2B3C
:105570006B017C01ACEEB4EFA50194010E942C2BD1
:10558000C60ED71EE81EF91EF7FE06C081E0C81A37
:10559000D108E10880E8F80AC0921701D0921801FA
:1055A000E0921901F0921A01C701B6019F77FF90AE
:1055B000EF90DF90CF90BF90AF909F908F90089525
:1055C00060931701709318018093190190931A0149
:1055D0000895F999FECF92BD81BDF89A992780B5BB
:1055E0000895262FF999FECF1FBA92BD81BD20BD27
:1055F0000FB6F894FA9AF99A0FBE01960895052EFF
:1056000097FB1EF400940E94162B57FD07D00E94B2
:10561000312B07FC03D04EF40C94162B509540957B
:10562000309521953F4F4F4F5F4F0895909580954E
:10563000709561957F4F8F4F9F4F08950E94532B18
:10564000A59F900DB49F900DA49F800D911D1124D6
:105650000895B7FF0C941E2B0E941E2B821B930BE8
:105660000895A1E21A2EAA1BBB1BFD010DC0AA1FA3
:10567000BB1FEE1FFF1FA217B307E407F50720F0BB
:10568000A21BB30BE40BF50B661F771F881F991F36
:105690001A9469F760957095809590959B01AC017F
:1056A000BD01CF010895A29FB001B39FC001A39F88
:1056B000700D811D1124911DB29F700D811D11244B
:1056C000911D08950E94762B0C94572C0E94502C0B
:1056D00058F00E94492C40F029F45F3F29F00C94C7
:1056E000402C51110C948B2C0C94462C0E94682C4D
:1056F00068F39923B1F3552391F3951B550BBB2701
:10570000AA2762177307840738F09F5F5F4F220F45
:10571000331F441FAA1FA9F335D00E2E3AF0E0E83C
:1057200032D091505040E695001CCAF72BD0FE2F86
:1057300029D0660F771F881FBB1F2617370748071A
:10574000AB07B0E809F0BB0B802DBF01FF279358D2
:105750005F4F3AF09E3F510578F00C94402C0C942A
:105760008B2C5F3FE4F3983ED4F38695779567954D
:10577000B795F7959F5FC9F7880F911D9695879507
:1057800097F90895E1E0660F771F881FBB1F621726
:1057900073078407BA0720F0621B730B840BBA0BE4
:1057A000EE1F88F7E09508950E94702C88F09F57AF
:1057B00098F0B92F9927B751B0F0E1F0660F771F35
:1057C000881F991F1AF0BA95C9F714C0B13091F02B
:1057D0000E948A2CB1E008950C948A2C672F782FB0
:1057E0008827B85F39F0B93FCCF3869577956795F0
:1057F000B395D9F73EF490958095709561957F4F5C
:105800008F4F9F4F0895E89409C097FB3EF4909501
:105810008095709561957F4F8F4F9F4F9923A9F089
:10582000F92F96E9BB279395F69587957795679518
:10583000B795F111F8CFFAF4BB0F11F460FF1BC05C
:105840006F5F7F4F8F4F9F4F16C0882311F096E9EF
:1058500011C0772321F09EE8872F762F05C066239D
:1058600071F096E8862F70E060E02AF09A95660F56
:10587000771F881FDAF7880F9695879597F908950F
:1058800097F99F6780E870E060E008959FEF80ECF3
:10589000089500240A941616170618060906089596
:1058A00000240A9412161306140605060895092EFC
:1058B0000394000C11F4882352F0BB0F40F4BF2B6B
:1058C00011F460FF04C06F5F7F4F8F4F9F4F0895AB
:1058D00057FD9058440F551F59F05F3F71F04795A1
:1058E000880F97FB991F61F09F3F79F08795089586
:1058F000121613061406551FF2CF4695F1DF08C0A5
:10590000161617061806991FF1CF869571056105C1
:1059100008940895E894BB2766277727CB0197F969
:1059200008950E94A42C0C94572C0E94492C38F006
:105930000E94502C20F0952311F00C94402C0C94D4
:10594000462C11240C948B2C0E94682C70F3959F8C
:10595000C1F3950F50E0551F629FF001729FBB2766
:10596000F00DB11D639FAA27F00DB11DAA1F649F02
:105970006627B00DA11D661F829F2227B00DA11DB5
:10598000621F739FB00DA11D621F839FA00D611D3B
:10599000221F749F3327A00D611D231F849F600D5C
:1059A000211D822F762F6A2F11249F5750409AF085
:1059B000F1F088234AF0EE0FFF1FBB1F661F771F11
:1059C000881F91505040A9F79E3F510580F00C94DC
:1059D000402C0C948B2C5F3FE4F3983ED4F38695D7
:1059E00077956795B795F795E7959F5FC1F7FE2B7C
:1059F000880F911D9695879597F90895AA1BBB1B53
:105A000051E107C0AA1FBB1FA617B70710F0A61BBE
:105A1000B70B881F991F5A95A9F780959095BC01DF
:105A2000CD01089597FB072E16F4009407D077FD5B
:105A300009D00E94FE2C07FC05D03EF4909581957C
:105A40009F4F0895709561957F4F0895EE0FFF1F4A
:0C5A50000590F491E02D0994F894FFCF2C
:105A5C0010FFFFFFFF00E10000000000000000004D
:105A6C000000000001000001000000080E6E0DC0D7
:105A7C000C260C880B260BCC0A7A0AE0095609B4C2
:105A8C00083E088807F2066C062A06B8051205E8D7
:105A9C00042A04D8038E0318039E02C8013A01ACF1
:105AAC0000E20E8C3CE036A623CB37CD29AD16E5B3
:105ABC001B1B1A36250E1AC92EF735B635461EE1B4
:105ACC000ED41EBE23CE13883CFE1A521C0420C2D8
