:100000000C94F9190C94211A0C94211A0C94211AAD
:100010000C94211A0C94211A0C94211A0C94211A74
:100020000C94211A0C94211A0C9432220C94A122C3
:100030000C94211A0C94211A0C94211A0C94211A54
:100040000C94211A0C94211A0C94211A0C94211A44
:100050000C94211A0C94211A0C94211A0C94D32478
:100060000C94211A0C94211A0C94211A0C94211A24
:100070000C94211A0C94211A0C94211A0C94211A14
:100080000C941D250C94211A0C94211A0C94211AFD
:100090000C94211A0C94211A0C94211A0C94211AF4
:1000A0000C94211A0C94211A0C94211A0B0277013A
:1000B000930277014B02BB004B02BB00BA027701EF
:1000C000930277010B0277014B02770188017701D8
:1000D0000B027701930277014B02BB004B02BB007E
:1000E000BA027701930277010B0277014B023202C9
:1000F0000000BB000B027701930277014B02BB00AB
:100100004B02BB00BA027701930277010B02770121
:100110004B027701880177010B0277010B0277010F
:100120000B02BB000B02BB000B027701EE01770153
:100130000B0277010B0232020080930288009302C7
:1001400088009302880093028800930210019302B2
:100150001001930210014B0210010B0221029302C5
:10016000880093028800930288009302880093021B
:10017000100193021001930210014B0210010B02B7
:100180002102930288009302880093028800930260
:1001900088009302100193021001930210014B0298
:1001A00010010B0210010B021001880110010B025B
:1001B0001001EE0110014B0210010B0210010B02A5
:1001C00010010B02DD01008088019A0288019A0269
:1001D0000B024D010B02A6000B02A60088014D0187
:1001E0000000A6008801A6000B02A6000B02A600D4
:1001F0000B02A6000B02A6008801A6000000A600C4
:100200008801A6008801A6000B024D010B02A60082
:100210000B02A6004B024D010B024D010B02A60082
:10022000EE01A600EE01A600EE01A600EE01A6007A
:100230000000A600B801A600B801A600EE014D011D
:10024000EE01A600EE01A60088014D010000A60007
:100250008801A600EE01A600EE01A600EE01A600B0
:10026000EE01A6008801A6000000A6008801A600F5
:100270008801A6004B024D014B02A6004B02A600CE
:1002800093024D014B024D014B02A6000B02A6004A
:100290000B02A6000B02A6000B024D01008000001D
:1002A000FA000B02FA009302F4014B02F4010B0274
:1002B000F4010B02F4014B0277010B027701EE010E
:1002C000EE020000F4019302FA009302FA004B02DE
:1002D000F4010B02FA000B02FA000B02F4014B02CC
:1002E00077010B027701EE01EE020000FA00EE0149
:1002F000FA009302F4014B02F4010B02F4010B0229
:10030000F4014B0277010B027701EE01F401880141
:10031000F401B801E80300800B020902930209020C
:100320004B0204014B028200880104018801040190
:10033000880182000B0204010B02040193020401F4
:10034000930204014B0204014B028200880109025E
:10035000000082000B020902930209024B02040111
:100360004B028200BA020401BA020401BA028200FE
:1003700010030401BA020401930204014B020401B8
:10038000930204014B0282000B0209020080100359
:10039000FA001003FA00BA02FA009302F401000016
:1003A000F4011003F4011003FA007003F401930246
:1003B000F4010000F401BA02FA009302F4014B02C6
:1003C000F4010000F401BA02FA00BA02FA00930242
:1003D000F4014B02F40100808801E6000B02CD011C
:1003E0000B02E6008801CD018801E6008801E600E5
:1003F0008801E6004B02CD014B02E6008801CD01E9
:100400008801CD010B02CD010B02E6009302E6004C
:100410009302E6009302E6004B02E6000B02CD01D8
:100420004B02CD010B02B40200800B0260010B02F3
:1004300060014B0260014B020801000058000B02F2
:1004400060010B0260014B0260014B0208010000D9
:1004500058000B0260010B0260014B0260014B026D
:100460000801000058000B02B0000000B0000B02B1
:10047000B000930260014B02B0000B0208010000C3
:100480005800930260010B022204000060010B027D
:10049000B000930260014B02B0000B0208010000A3
:1004A0005800930260010B022204000060010B025D
:1004B000B000930260014B02B0000B020801000083
:1004C0005800930260010B022204000060010B023D
:1004D000B000100360011003B00010036001BA0205
:1004E00060019302220400800000CD010B02E600AF
:1004F0000000E600EE01E6000B02E6000000D10A73
:100500000B02E6000000E6004B02E6000B02E600EC
:1005100000800B0296000B0296000B0296000B0265
:1005200096000B022C010B0296000B0296006E0245
:100530002C010B022C0100005802D2019600D201BE
:100540009600D2019600D2019600D2012C01D20170
:100550009600D2019600D20196000B022C010B02EC
:100560002C010000C2010B0296000B0296000B0248
:1005700096000B0296000B022C010B0296000B0258
:1005800096006E022C01BA022C010B022C010B0208
:1005900096000B02960010032C01BA022C016E0289
:1005A0002C01D2019600D2019600D20196000B02D6
:1005B0002C010B022C0100800B0210010000100125
:1005C0000B021001000010016E0210016E02880083
:1005D0000B021001000088000B021001D201100173
:1005E000D2011001EE018800000088000B022102F8
:1005F000000032030B021001000010010B02100179
:10060000000010016E0210016E0288000B02100142
:10061000000088000B02100110031001BA02100143
:100620006E0210010B02210200800B02100100007B
:1006300088009302100100008800100310014B0293
:10064000100100008800BA02100100008800700349
:100650001001930210010000880010031001000037
:100660008800970410011704210200800000FA009E
:100670000601FA008801FA0088017D008801FA006D
:1006800088017D00B801FA004A01FA000601FA006B
:100690000000FA000601FA008801FA0088017D00D6
:1006A0008801FA0088017D00B801FA004A01F401CE
:1006B0000000FA000601FA008801FA0088017D00B6
:1006C0008801FA0088017D00B801FA004A01FA00A9
:1006D0000601FA000000FA000601FA00F700FA002D
:1006E000F7007D00F700FA00F7007D000601F40135
:1006F00000800B02FA000B02F4018801FA00880165
:10070000FA008801FA00B801FA000B02FA00B801F9
:10071000FA000B02E8030000EE020B02FA000B02E3
:10072000F4018801EE02B801FA000B02FA00B801E8
:10073000FA008801E8030000EE020B02FA000B0247
:10074000F4018801FA008801FA008801FA00B80172
:10075000FA000B02FA00B801FA000B02F4010B02D6
:10076000FA000B02FA000B02F4018801FA0088017A
:10077000FA008801FA009302FA004B02FA000B0219
:10078000FA000B02F40100800B02CD018801E600A3
:100790000B02CD018801CD014B02CD018801E6009D
:1007A0008801E6008801E600B801E600B801E6002D
:1007B0008801E6000000E6000B02CD018801E6009A
:1007C0000B02CD018801CD014B02CD018801E6006D
:1007D0008801E6008801E600B801E600B801E600FD
:1007E0008801E6000000E6000B02CD018801E6006A
:1007F0000B02CD018801CD014B02CD018801E6003D
:100800008801E6008801E600B801E600B801E600CC
:100810008801E6005D01E6004A01E6004A01E600C3
:100820004A01E6005D01E6002601E6002601E60039
:100830002601E6004A01E60006019B0300800B0248
:100840009D01D201CE000B029D016E029D01D201DD
:100850006C020000D9040B029D01D201CE000B02F4
:100860009D016E029D01D2016C0200003B030B0250
:100870009D010B029D01D201CE000B029D016E0273
:10088000CE009302CE00BA026C026E02CE000B02C2
:100890006C0200009D010B02CE000B02CE000B0289
:1008A000CE000B02CE00D201CE00EE019D010B0264
:1008B0006C0200808801E600000073004A01E60037
:1008C000000073005D017300000073008801730075
:1008D000000073000601E6000601E6000000E600E5
:1008E0002601E600000073004A01E60000007300E4
:1008F00026017300000073000601730000007300FE
:10090000C400E600C400E6000000E6008801E6003E
:10091000000073004A01E600000073005D017300EF
:100920000000730088017300000073000601E600F8
:100930000601E6000000E6002601E6000000730064
:100940004A01E600000073002601730000007300F6
:100950000601E6000080880142040B0288000B02B9
:1009600088000B0288000B028800880110018801B2
:1009700010014A0110014A0110010601100106018F
:1009800010010601880006018800060188000601A2
:100990008800260110010601100106012102000055
:1009A0002102060110010601100126011001260195
:1009B0008800260188004A0110014A0110015D01EA
:1009C0009901060188004A01100106011001260163
:1009D0001001F7001001060121020B021001008036
:1009E00000008E0088018E0088018E0088018E0034
:1009F00093021D0100001D014B021D0100008E002D
:100A00000B028E004B028E000B02AC0100008E0028
:100A10000B028E000B028E000B028E00BA028E00BB
:100A20004B028E004B028E004B028E004B028E005A
:100A30000B028E000B028E000B028E00BA028E009B
:100A40004B028E004B028E004B028E004B028E003A
:100A500088018E0088018E0088018E0093021D019E
:100A600000001D014B021D0100008E000B028E00D4
:100A70004B028E000B021D0100800B02CD010B0208
:100A8000E6000B02E600B801CD018801CD010B02A2
:100A9000E6000B02E6000B02E600B801CD0188017A
:100AA000CD010B02B4020B02E6000B02E600B80116
:100AB000CD018801CD019302E6009302E600930286
:100AC000E6004B02CD010B02CD0100800000770152
:100AD0000B02BB000B02BB000B02BB000B02BB00F6
:100AE0000B02BB006E0277010B027701000032029D
:100AF0000B02BB000B02BB006E02BB006E02BB0010
:100B00006E02BB006E0277010B0277010000BB0092
:100B10001003BB001003BB001003BB0010037701E0
:100B20000B02770100801704AC011704AC0110031D
:100B3000AC010000D600970482029704AC011003B8
:100B4000AC010000AC011704AC011704AC011003A8
:100B5000AC010000D600930282029302AC010B02AA
:100B6000AC010000AC011704AC011704AC01100388
:100B7000AC010000D600970482029704AC01100378
:100B8000AC011704590300800B02CD010B02CD010B
:100B90008801E6008801CD014B02B4024B02CD0171
:100BA0008801CD018801E6008801E6000B02CD0135
:100BB0000B02CD018801E6008801CD014B02B40291
:100BC0009302CD018801CD010000CD010B02CD01C2
:100BD0000B02CD018801E6008801CD014B02B40271
:100BE0004B02CD018801CD018801E6008801E600B5
:100BF0000B02E6000B02E6000B02E6000B02E60029
:100C00000B02E6000B02E6000B02E6000B02E60018
:100C1000EE01E600EE01E600EE01E600EE01E60080
:100C20000B02CD0100800B029D000B023B01000076
:100C30009D0088019D0088013B014B023B014B0256
:100C40003B014B029D0088019D0088013B01000093
:100C50009D000B029D000B023B0100009D008801DE
:100C60009D0088013B014B023B014B023B014B02C3
:100C70009D0088019D0088013B0100009D000B0242
:100C80009D000B023B0100009D0088019D00880132
:100C90003B014B023B014B023B014B029D00880193
:100CA0009D0088013B0100009D00EE013B010B020D
:100CB0003B0100003B014B023B010B023B0100806A
:100CC0001003E6001003E600BA02E6009302CD012D
:100CD0000000CD011003CD011003E6001003E60073
:100CE0007003CD011003E6009302CD011003E6006E
:100CF0001003E600BA02E6009302CD010000CD0128
:100D00001003CD011003E6001003E6007003CD01CF
:100D10001003E6009302E6009302E600BA02E60042
:100D20009302CD014B02CD010000CD014B02E60044
:100D3000BA02E6009302CD014B02CD010000CD01C5
:100D40004B02E600BA02E6009302CD014B02CD0150
:100D50000000CD014B02E600BA02E6000000E6000A
:100D60009302E6000000E6000B02E600008010039C
:100D7000F4019302FA000B02EE020000F4014B02B0
:100D8000F401EE01FA008801EE020000F401100304
:100D9000F4019302FA000B02F4010B02FA000B02B9
:100DA000FA000B02FA004B02F4019302F4010B0269
:100DB000F4010000F4011003F4019302FA000B02A5
:100DC000EE020000F4014B02F401EE01FA0088018A
:100DD000EE020000FA008801FA00B801FA000B02E6
:100DE000FA00B801FA008801FA00B801FA000B0213
:100DF000FA000B02FA008801FA009302F4014B0298
:100E0000F4010B02F40100800B0288000B02880041
:100E10000B0288000B0288008801100188018800FD
:100E20004A0188004A0188004A0188004A01880076
:100E30000601990106018800060188000601880064
:100E400006018800060188000601880026011001BD
:100E50000601100106012102008057484F27532048
:100E60004D590A4C4954544C450A4441494B494E4A
:100E70004920424142590057484F2753204D590AB3
:100E80004C4954544C4520424142590A424952442B
:100E9000005748454E20594F552752450A444F4E5A
:100EA0004520574954480A594F55522048414D0A48
:100EB000594F55205448524F572049540A4F4E20FD
:100EC0005448452047524F554E44005745275245F8
:100ED0000A414C4D4F535420484F4D450057452033
:100EE0004152450A4452455353494E472055500AF2
:100EF000415320412046414D494C590A4F46205309
:100F00004B454C45544F4E530057415348494E476B
:100F10000A594F5552204641434500285745204223
:100F200055494C442049540A555020414E442054C0
:100F300048454E0A5745204255494C442049540AD9
:100F4000444F574E2920544849530A544F574E2076
:100F500048415320474F540A41204C4F54204F469C
:100F60000A434F4E535452554354494F4E00284D57
:100F70002041204D2041290A5448415427532048FC
:100F80004F570A594F55205350454C4C0A4D414D2F
:100F900041005354524545540A5357454550455214
:100FA0000050555454494E47204F4E0A594F555200
:100FB0002050414E54530A4C494B4520410A424966
:100FC0004720424F5900504F4F5020535455434BE8
:100FD0000A544F20412042555454004F4E4520544E
:100FE000574F2054485245450A464F5552204649CE
:100FF0005645205349580A534556454E20454947C2
:1010000048540A4E494E452054454E004D59204201
:101010004142590A4C4F56455320544F0A474F20DE
:10102000504F4F5059004D59204241425920495389
:101030000A412050554E4348494E470A4D414348C6
:10104000494E4521004D522E205354414E44494EA5
:10105000470A2857484F2753204D590A4C495454A2
:101060004C450A5354414E44494E4720424F59295A
:10107000004C4554275320474F205045450A5749B7
:101080005448204441440049205448494E4B0A41A9
:10109000204C4F542041424F55540A52494E534917
:1010A0004E4720544841540A434F46464545205038
:1010B0004F540049204D414B4520410A4C4954545E
:1010C0004C45205441434F004920474F5420412074
:1010D000524F434B0A494E204D5920504F434B45E8
:1010E000540047555920494E20410A434F50204350
:1010F00041520A52554E4E494E4720410A524544EC
:10110000204C494748540047455454494E472050C5
:101110004150410A534F4D4520434F4646454500F7
:101120004441444120444F0A284D414D41204D4FF8
:101130002900425945204259450A425542424C45F0
:10114000530A425945204259450A424154485741A1
:1011500054455200425542424C45530A4255424280
:101160004C45530A2857484F275320474F540A5499
:10117000484520425542424C45532900424F554E66
:1011800043494E4720410A42414C4C2C0A424F559C
:101190004E43494E4720410A424F554E4359204243
:1011A000414C4C004241425920534B494E00414E64
:1011B00059204B494E44204F460A43415220414E4C
:1011C0004420414E590A4B494E44204F4620545228
:1011D00055434B0A28414E59204B494E44204F4617
:1011E0000A414E59204341520A414E44205452551F
:1011F000434B290000B00000A170E150964F2690AB
:101200000F1D070C009669004AE44A00484440005C
:10121000806810000F99FB8F9DBDBBFB77D4D4DF96
:101220001F1A1AFE7F5D5DFF805A0000A0A4AA006D
:1012300010BA3400FF5953F3FF9B9B9EFFB9B99638
:10124000FF9595D19FF4940FFC295F91FF1838F812
:10125000FF9294FFFF95D5F7BFB5DDD7F18F81F1F0
:10126000F788C8F779C6467909FD9B090196F80009
:101270008281828050716200775656007676370000
:10128000A2B7730107720600782750007334740008
:10129000775176007F55F700477110003247720092
:1012A0007364730015A2750061679400009F60600D
:1012B000F4F2F6F2D5F08D14A1C881CFD9F1AF20A8
:1012C00000F0F89C8E8783878E9CF8F00000FEFF6C
:1012D0000303030303070EFCF80000FEFF030303F0
:1012E0000303070EFCF80000FFFF000000000000F1
:1012F00000FFFF0000FEFF8383838383C7EE7C38FB
:101300000000F8FC0E07030303070EFCF800003F83
:101310007FE0C08080C0E07F3FFFFF01010101014D
:101320000101FFFF0000FFFF0C0C0C0C1C3E77E3DB
:10133000C100007FFFC0C0C0C0C0E0703F1F000000
:101340001F3F70E0C0C0C0E0703F1F00007FFFC1C2
:10135000C1C1C1C1E3773E1C00001F3F70E0C0C0A7
:10136000C0E0703F1F000000000001FFFF0100000F
:1013700000AE11A4117C115411321120110711E299
:1013800010C810B31087107110451026100C10DB18
:101390000FC60FA10F920F6E0F1B0F090FDD0ECBA3
:1013A0000E910E770E5A0E2F00323032340A44411D
:1013B0004441000704060F0000000000060F00066D
:1013C000000000060F0006000906534F4E47530A5F
:1013D000464F520A4445534D4F4E44005C40000076
:1013E00000000000000000000000000000000000FD
:1013F00000000000808080404040408080800000ED
:1014000000000000000000000000000000000000DC
:1014100000000000000000000000000000000000CC
:1014200000000000000000000000000000000000BC
:1014300000000000000000000000000000000000AC
:101440000000000000000080E0F0E8F4FAFEFDFF7C
:10145000BE7E3B0404000000000001010101020403
:101460000810E00000000000000000000000000084
:10147000000000000000000000000000000000006C
:10148000000000000000000000000000000000005C
:10149000000000000000000000000000000000004C
:1014A00000F07E3D1F1F0F87C7E3E0F0F0F8F8F86B
:1014B000F8F8F8F8F0F0E0E0800000000080F00FAD
:1014C000000000000000000000000000000000001C
:1014D000000000000000000000000000000000000C
:1014E00000000000000000000000000000000000FC
:1014F0000000000000000000000000F0FF000000FD
:101500000000E8FF7F7F5F7F7F3F7FFFFFFFFF7F60
:101510003FFFFFFFFFC000C0740F0100000000008C
:1015200000000000000000000000000000000000BB
:1015300000000000000000000000000000000000AB
:10154000000000000000000000000000000000009B
:101550000000000000000000030C102040C3FFFF4B
:10156000FFFFFFFF7F7E7FFFFFFFFFFFFFFFFFFF0C
:10157000FF1B070100000000000000000000000049
:10158000000000000000000000000000000000005B
:10159000000000000000000000000000000000004B
:1015A000000000000000000000000000000000003B
:1015B0000000000080402030080701070B1367EF90
:1015C000EEEEFEFFFFFFFFFFFF0F0B11102020408C
:1015D000808000000000000000000000000000000B
:1015E00000000000000000000000000000000000FB
:1015F00000000000000000000000000000000000EB
:1016000000000000000000000000C020180C0201D3
:1016100000000000000000000000000001010103C4
:101620000303034300000000000000000000030467
:1016300038C00000000000000000000000000000B2
:10164000000000000000000000000000000000009A
:10165000000000000000000000000000000000008A
:1016600000000000F807000000000000000000007B
:10167000000000000000000000000000000000006A
:101680003EFC000000000000000000000001FE0021
:10169000000000000000000000000000000000004A
:1016A000000000000000000000000000000000003A
:1016B000000000000000000000000000000000002A
:1016C0000000000000000000000080C040A02020BA
:1016D0001090B030101010103010102020404080BA
:1016E00000000000000000000000000000000000FA
:1016F00000000000000000000000000000000000EA
:1017000000000000000000000000000000000000D9
:1017100000000000000000000000000000000000C9
:1017200000C070ECF6EDFE674B02080501010000F9
:1017300000000000000000000000000001020CF0AA
:101740000000000000000000000000000000000099
:101750000000000000000000000000000000000089
:101760000000000000000000000000000000000079
:101770000000000000000000000000003CC30E0755
:1017800007030100C0F8FCFCFEFEFFFFFEFFFFFFA9
:10179000FEFEFEFCF8F000000000F00F000000006C
:1017A0000000000000000000000000000000000039
:1017B0000000000000000000000000000000000029
:1017C0000000000000000000000000000000000019
:1017D0000000000000000000001FE000000000F812
:1017E000D7C0CBCBCFC7CFFFFFFFFFEFEFEFEFFFB0
:1017F000FFFFFFA0E01E010000000000000000004D
:1018000000000000000000000000000000000000D8
:1018100000000000000000000000000000000000C8
:1018200000000000000000000000000000000000B8
:101830000000000000000001020C1CBF7FFFFFFF42
:10184000CBDBDB9BFFFFFFFFFFFFF7FFFF1F0F0758
:101850000000000000000000000000000000000088
:101860000000000000000000000000000000000078
:101870000000000000000000000000000000000068
:101880000000000000000000000000000000000058
:1018900080C0201008080601000000000D193B3B25
:1018A0007B7F7F7F7F7F3F070001010102040408E7
:1018B0000830408000000000000000000000000030
:1018C0000000000000000000000000000000000018
:1018D0000000000000000000000000000000000008
:1018E0000000000000000000C0380C0301000000F0
:1018F00000000000000000000000000000000000E8
:101900000008C0000000000000000000000000000F
:101910000718E000000000000000000000000000C8
:1019200000000000000000000000000000000000B7
:1019300000000000000000000000000000000000A7
:10194000000000F807000000000000000000000098
:1019500000000000000000000000000000000F3F39
:10196000000000000000000000000000000003FC78
:101970000000000000000000000000000000000067
:101980000000000000000000000000000000000057
:101990000000000000000000000000000000000047
:1019A0000000000000000000000000000000000037
:1019B00000000080C04040402020602020202020E7
:1019C00060202040408080000000000000000000F7
:1019D0000000000000000000000000000000000007
:1019E00000000000000000000000000000000000F7
:1019F00000000000000000000000000000000000E7
:101A000000000000000000000000E0D8ECC2050269
:101A100005000000000000000000000000000000C1
:101A200000000101020C70800000000000000000B6
:101A300000000000000000000000000000000000A6
:101A40000000000000000000000000000000000096
:101A50000000000000000000000000000000000086
:101A600000000000F08F0C07000200C0E0E8F8FC66
:101A7000FCFEFEFEFEFEFEFCFCF8F8F0C0000000DE
:101A80000000F00F00000000000000000000000057
:101A90000000000000000000000000000000000046
:101AA0000000000000000000000000000000000036
:101AB0000000000000000000000000000000000026
:101AC0003FC0000000F0FEC7CBCBCBC3C7CFFFFFAA
:101AD000FFFFDFCFDFDFFFFFFF00806018070000A0
:101AE00000000000000000000000000000000000F6
:101AF00000000000000000000000000000000000E6
:101B000000000000000000000000000000000000D5
:101B10000000000000000000000000000001060CB2
:101B2000BEDFFFFFFFE7DBDF9B9BFFFFFFFFFFFF4A
:101B3000FFFFFF6F1F060300000000000000000011
:101B40000000000000000000000000000000000095
:101B50000000000000000000000000000000000085
:101B60000000000000000000000000000000000075
:101B700000000080C060201008040603010000007F
:101B80000A04193B7B7F7F7FFFFF7F3F0703050E22
:101B90000C183020C0800000000000000000000091
:101BA0000000000000000000000000000000000035
:101BB0000000000000000000000000000000000025
:101BC0000000000000000000000000C0380E03010B
:101BD0000000000000000000000000000000000005
:101BE000000000000290C0000000000000000000A3
:101BF0000001020C708000000000000000000000E6
:101C000000000000000000000000000000000000D4
:101C100000000000000000000000000000000000C4
:101C2000000000000000FC030000000000000000B5
:101C300000000000000000000000000000000000A4
:101C4000000F3F0000000000000000000000000046
:101C500000FF000000000000000000000000000085
:101C60000000000000000000000000000000000074
:101C70000000000000000000000000000000000064
:101C80000000000000000000000000000000000054
:101C900000000000008080804040C0404040404044
:101CA000C040808080800000000000000000000034
:101CB0000000000000000000000000000000000024
:101CC0000000000000000000000000000000000014
:101CD0000000000000000000000000000000000004
:101CE00000000000000000000000C0B0D8F4FACFEF
:101CF000010E0000000000000000000000000000D5
:101D0000000101020C18E08000000000000000004B
:101D100000000000000000000000000000000000C3
:101D200000000000000000000000000000000000B3
:101D300000000000000000000000000000000000A3
:101D40000000000000FF391F0F070781C0C0F0F836
:101D5000F8FCFCFCFCFCFCFCF8F8F8F0E0000000EF
:101D60000000F80F0000000000000000000000006C
:101D70000000000000000000000000000000000063
:101D80000000000000000000000000000000000053
:101D90000000000000000000000000000000000043
:101DA000007F80000000E0FEAD87878F8F8FFFFFF0
:101DB000FFFFFF9FFFDFFFFFFFF88040300F0000B5
:101DC0000000000000000000000000000000000013
:101DD0000000000000000000000000000000000003
:101DE00000000000000000000000000000000000F3
:101DF00000000000000000000000000000000306DA
:101E00001830FF3FFFFFDF8FB7B7B7FFFFFFFFFFC0
:101E1000FFFFFFFF7F3F0700000000000000000001
:101E200000000000000000000000000000000000B2
:101E300000000000000000000000000000000000A2
:101E40000000000000000000000000000000000092
:101E50000000000000000080402010080C06010077
:101E60000001011B33777777F7FFFFFFFF3F030781
:101E7000020C0810206040800000000000000000FC
:101E80000000000000000000000000000000000052
:101E90000000000000000000000000000000000042
:101EA0000000000000000000000000000000E0183A
:101EB0000C02010000000000000000000000000013
:101EC0000000000000000010800000000000000082
:101ED00000000001030CF000000000000000000002
:101EE00000000000000000000000000000000000F2
:101EF00000000000000000000000000000000000E2
:101F0000000000000000000000FF010000000000D1
:101F100000000000000000000000000000000000C1
:101F2000000000007F200000000000000000000012
:101F3000000000FF000000000000000000000000A2
:101F40000000000000000000000000000000000091
:101F50000000000000000000000000000000000081
:101F60000000000000000000000000000000000071
:101F700000000000008080404040202020202020E1
:101F8000206020404040C0800000000000000000B1
:101F90000000000000000000000000000000000041
:101FA0000000000000000000000000000000000031
:101FB0000000000000000000000000000000000021
:101FC000000000000000000000000000E0D8ECFA73
:101FD000A54200000000000000000000000000001A
:101FE0000000000001020418E000000000000000F2
:101FF00000000000000000000000000000000000E1
:1020000000000000000000000000000000000000D0
:1020100000000000000000000000000000000000C0
:10202000000000000000E0FF0E07030301C0E0E82D
:10203000F8FCFCFEFEFCFEFEFEFCFCFCF8F0800062
:10204000000000F007000000000000000000000099
:102050000000000000000000000000000000000080
:102060000000000000000000000000000000000070
:102070000000000000000000000000000000000060
:1020800000003FF780000000F8F7C2C3C3C3C7DFFA
:10209000FFFFFFFFCFCFEFFFFFFFFF40C0701E012C
:1020A0000000000000000000000000000000000030
:1020B0000000000000000000000000000000000020
:1020C0000000000000000000000000000000000010
:1020D0000000000000000000000000000000000000
:1020E0000306183AFF7F7F7FE3CDCFCFABFFFFFF23
:1020F000FFFFFFFFFF3F060100000000000000009F
:1021000000000000000000000000000000000000CF
:1021100000000000000000000000000000000000BF
:1021200000000000000000000000000000000000AF
:10213000000000000000008040201008040602019A
:1021400000000000001D1D3B3B7B7F7F7F7F3F0128
:102150000307060C08103020C0000000000000003B
:10216000000000000000000000000000000000006F
:10217000000000000000000000000000000000005F
:10218000000000000000000000000000000000C08F
:10219000300C030000000000000000000000000000
:1021A000000000000000000008C000000000000067
:1021B0000000000000030EF000000000000000001E
:1021C000000000000000000000000000000000000F
:1021D00000000000000000000000000000000000FF
:1021E000000000000000000000E01E0300000000EE
:1021F00000000000000000000000000000000000DF
:1022000000000000001F1800000000000000000097
:1022100000000000FF0000000000000000000000BF
:1022200000000000000000000000000000000000AE
:10223000000000000000000000000000000000009E
:10224000000000000000000000000000000000008E
:1022500000000000008040402020202010101010BE
:10226000101010202020604080800000000000003E
:10227000000000000000000000000000000000005E
:10228000000000000000000000000000000000004E
:10229000000000000000000000000000000000003E
:1022A000000000000000000000000000C030EC163C
:1022B000010001000000000000000000000000001C
:1022C000000000000001030638C00000000000000C
:1022D00000000000000000000000000000000000FE
:1022E00000000000000000000000000000000000EE
:1022F00000000000000000000000000000000000DE
:1023000000000000000000FC0303010100A0F03801
:10231000F8FEFEFFFFFFFFFFFFFEFEFEFCF8E00001
:10232000000080E03C03000000000000000000000E
:10233000000000000000000000000000000000009D
:10234000000000000000000000000000000000008D
:10235000000000000000000000000000000000007D
:102360000000001F60800000FEFFF1F0F1E1E1E3FA
:10237000FFFFFFFFE7F7F7FFFFFFFF806018060191
:10238000000000000000000000000000000000004D
:10239000000000000000000000000000000000003D
:1023A000000000000000000000000000000000002D
:1023B000000000000000000000000000000000001D
:1023C0008081864A7F6F1F3B3176E7E7FFFFFFFF83
:1023D000FFFFFFBFFF0B070100000000000000002F
:1023E00000000000000000000000000000000000ED
:1023F00000000000000000000000000000000000DD
:1024000000000000000000000000000000000000CC
:102410000000000080C0201008040201010000003C
:102420000000000203060E0E0E1F1F1F1F070000F4
:10243000010303060C18306080000000000000005B
:10244000000000000000000000000000000000008C
:10245000000000000000000000000000000000007C
:102460000000000000000000000000000080F00EEE
:10247000010000000000000000000000000000005B
:102480000000000000000000F80000000000000054
:10249000000000000107788000000000000000003C
:1024A000000000000000000000000000000000002C
:1024B000000000000000000000000000000000001C
:1024C0000000000000000000C03F0100000000000C
:1024D00000000000000000000000000000000000FC
:1024E00000000000030200000000000000000000E7
:1024F0000000001FE00000000000000000000000DD
:1025000000000000000000000000000000000000CB
:1025100000000000000000000000000000000000BB
:1025200000000000000000000000000000000000AB
:102530000000008040A0D0D0E8E8FCF4F4BC040423
:1025400004040C040C080810302040800000000037
:10255000000000000000000000000000000000007B
:10256000000000000000000000000000000000006B
:10257000000000000000000000000000000000005B
:102580000000000000000000000000C030ECFB7FF5
:102590007F3F1F0F858380C0C0C0C0C0C080800047
:1025A00000000000000000C13E000000000000002C
:1025B000000000000000000000000000000000001B
:1025C000000000000000000000000000000000000B
:1025D00000000000000000000000000000000000FB
:1025E0000000000000F807000301000080F85C3FD5
:1025F0007FFFFFFFFFFFFFFFFFFFFFFFFFF8000070
:1026000040E01C030000000000000000000000008B
:1026100000000000000000000000000000000000BA
:1026200000000000000000000000000000000000AA
:10263000000000000000000000000000000000009A
:10264000043F6080008080FEFFFEFDFDFDFDF9F887
:10265000FFFFFFFFF9FDFDFDFFFFF01C0300000081
:10266000000000000000000000000000000000006A
:10267000000000000000000000000000000000005A
:10268000000000000000000000000000000000004A
:1026900000000000000000000000000000000080BA
:1026A0008142473F1F0F4F9F9C3D3979FDFDFFFF42
:1026B000FF7F3F6F9F03000000000000000000004C
:1026C000000000000000000000000000000000000A
:1026D00000000000000000000000000000000000FA
:1026E00000000000000000000000000000000000EA
:1026F000000000806030180C06020100000000009D
:10270000000101030307070F0F0F0F0F0700000061
:102710000101030604081020C000000000000000B2
:1027200000000000000000000000000000000000A9
:102730000000000000000000000000000000000099
:10274000000000000000000000000000C03C0F017D
:102750000000000000000000000000000000000079
:1027600000000000000000FC00000000000000006D
:102770000000000000073CC0000000000000000056
:102780000000000000000000000000000000000049
:102790000000000000000000000000000000000039
:1027A00000000000000000F807000000000000002A
:1027B0000000000000000000000000000000000019
:1027C0000000000300000000000000000000000006
:1027D000000000FF000000000000000000000000FA
:1027E00000000000000000000000000000000000E9
:1027F00000000000000000000000000000000000D9
:1028000000000000000000000000000080C0205018
:10281000280406020101020100000000000000017E
:1028200000010202040C081020C00000000000009B
:102830000000000000000000000000000000000098
:102840000000000000000000000000000000000088
:102850000000000000000000000000000000000078
:10286000000000000000E01C7B3E0303000000802D
:10287000C0C0C0E0E0E0E0E0E0E0C0C0C080000038
:102880000000000000017E000000000000000000C9
:102890000000000000000000000000000000000038
:1028A0000000000000000000000000000000000028
:1028B0000000000000000000000000000000000018
:1028C0000000FF0000000000E07E3E3EBF7F7FFF73
:1028D000FFFFFFFFFFFFFFFFFFFFFFF8000000808B
:1028E000780F000000000000000000000000000061
:1028F00000000000000000000000000000000000D8
:1029000000000000000000000000000000000000C7
:102910000000000000000000000000000000031C98
:10292000608080FFFFFDFCFC7CBCF8787FFFFFFF30
:10293000FDFDFDFDFFFFFFFFE0300E010000000088
:102940000000000000000000000000000000000087
:102950000000000000000000000000000000000077
:102960000000000000000000000000000000000067
:102970000000000000000000000000008081434DC6
:102980003F0F0F9CBD7B7B7BFFFFFFFFFFFFFF3FE8
:102990007FFF4783000000000000000000000000EF
:1029A0000000000000000000000000000000000027
:1029B0000000000000000000000000000000000017
:1029C0000000000000000000000000000000000007
:1029D00000C02010080402010000000000000102F5
:1029E00003070F0F0F0F0F1F0F070300000000005A
:1029F000010102040C1830C080000000000000003B
:102A000000000000000000000000000000000000C6
:102A100000000000000000000000000000000000B6
:102A200000000000000000000080780601000000A7
:102A30000000000000000000000000000000000096
:102A400000000000F8F0000000000000000000009E
:102A500000000000030EF000000000000000000075
:102A60000000000000000000000000000000000066
:102A70000000000000000000000000000000000056
:102A800000000000F01F0000000000000000000037
:102A90000000000000000000000000000000000036
:102AA000010700000000000000000000000000001E
:102AB0000000017E80000000000000000000000017
:102AC0000000000000000000000000000000000006
:102AD00000000000000000000000000000000000F6
:102AE00000000000000000000000000000000000E6
:102AF00000000000000000804020D0E8ECF6FAFA68
:102B0000FC7DBE3C1C0D050100000101010000021E
:102B10000102040830C000000000000000000000B6
:102B200000000000000000000000000000000000A5
:102B30000000000000000000000000000000000095
:102B40000000000000000000000000000000E01095
:102B50000CE2F9FD7F3F1F0F078180C0C0E1E1E07B
:102B6000E0E0E0E0E0C0C080000000000000000005
:102B7000C038070000000000000000000000000056
:102B80000000000000000000000000000000000045
:102B90000000000000000000000000000000000035
:102BA0000000000000000000F00F00000301000022
:102BB0000000FCFEFFFFFFFFFFFFFFFFFFFFFFFF27
:102BC000FFFFFFFFFFFC0000A0701C0701000000DA
:102BD00000000000000000000000000000000000F5
:102BE00000000000000000000000000000000000E5
:102BF00000000000000000000000000000000000D5
:102C0000000000000F708000000000F8FEFFFFF7DA
:102C1000E5E5E4E5E5E3E3FFFFFFFFFFF7F7F7FF97
:102C2000FFCF380701000000000000000000000096
:102C30000000000000000000000000000000000094
:102C40000000000000000000000000000000000084
:102C50000000000000000000000000000000000074
:102C60000000010304068E9F7FBF7FFFFFFFEFDFA1
:102C7000DDDFDFFFFFFFFFFFFFFFFFFF7F0700003C
:102C80000000000000000000000000000000000044
:102C90000000000000000000000000000000000034
:102CA0000000000000000000000000000000000024
:102CB0000000000000000000008040201008040612
:102CC00002010100000001060C1C39393B7B7F7FAB
:102CD0007F7F7F1F030304070C0810302040800013
:102CE00000000000000000000000000000000000E4
:102CF00000000000000000000000000000000000D4
:102D000000000000000000000000000000000000C3
:102D100080701806030000000000000000000000A2
:102D20000000000000000000000000000000108013
:102D30000000000000000000000001067880000094
:102D40000000000000000000000000000000000083
:102D50000000000000000000000000000000000073
:102D600000000000000000000000E01C0300000064
:102D70000000000000000000000000000000000053
:102D800000000000000000000000001F7E000000A6
:102D9000000000000000000000FF00000000000034
:102DA0000000000000000000000000000000000023
:102DB0000000000000000000000000000000000013
:102DC0000000000000000000000000000000000003
:102DD00000000000000000000000000000000000F3
:102DE0000000000000000080C060301008080404EB
:102DF00002020281C1E1F1F97D7C1E17070303067F
:102E000002000000000000000000000000000000C0
:102E100000000000000000C17E0000000000000073
:102E200000000000000000000000000000000000A2
:102E30000000000000000000000000000000000092
:102E4000E03806010000000000002030181C0F07C9
:102E500007C3C1E0E0F0F0F8F8F8FCFCFCFCFCFC77
:102E6000F8F8F8F0F0E0C00000000000000080C0BA
:102E700070180E03000000000000000000000000B9
:102E80000000000000000000000000000000000042
:102E900000000000000000000000E03E0100000013
:102EA00000000000000000008080D0FEFFFFFFFF58
:102EB000FFFFFFFFFFFFFFFFFFFFFFFFFFFFFFFF22
:102EC000FFFFFFFFA070380C0603010000000000A8
:102ED00000000000000000000000000000000000F2
:102EE00000000000000000000000000000000000E2
:102EF0000000000000000738C000000000000000D3
:102F000080F8FEFFFFFFFFFFFFE7E7E7C4CCCCCD73
:102F1000C1C1C3E7FFFFFFFFFFDFDFDFFFFFF70FE9
:102F200001000000000000000000000000000000A0
:102F30000000000000000000000000000000000091
:102F40000000000000000000000000000000000081
:102F5000000000000001060C143E7EEE7EFFFFFF25
:102F6000FFFFFFFFFFFFFFFF7F7FFFEFEFEFEFEFC1
:102F7000FFFFFFFFFFFFFFFFFFFF7F0000000000DC
:102F80000000000000000000000000000000000041
:102F90000000000000000000000000000000000031
:102FA0000000000000000000000000000000804061
:102FB00060301804060202012344C09123E3C38356
:102FC000878F8F9FBEBEFEFCFCFAFEFEFE7F7FBF9A
:102FD000FFBF0F0703010000000000000000000019
:102FE00000000000000000000000000000000000E1
:102FF00000000000000000000000000000000000D1
:10300000000000804030180C0601000000000000A5
:103010000000000000000001030205070F0F1F1F42
:103020001F1F1F1F1F0000000000000001010306FA
:103030000C18F0000000000000000000000000007C
:103040000000000000000000000000000000000080
:10305000000000000000000000000000E01C07016C
:103060000000000000000000000000000000000060
:103070000000000000000000000000000000000050
:10308000080818800000000000000000000007FC95
:103090000000000000000000000000000000000030
:1030A0000000000000000000000000000000000020
:1030B0000000000000000000000000000000000010
:1030C0000000000000000000000000000000000000
:1030D0000000000000000000000080601C040201ED
:1030E00000000000000000000000000000000000E0
:1030F00000000000000000000000000000000000D0
:1031000000000000000000000000000000000000BF
:1031100000000000000000000000000000000000AF
:10312000000000000000000000000000000000009F
:1031300000000000F00E030000000000000000008E
:10314000000000000000000000000000000000007F
:10315000000000000000000000000000000000006F
:10316000000000000000000000000000000000005F
:10317000000000000000000000000000000000004F
:10318000000000000000000000000000000000FF40
:10319000000000000000000000000000000000002F
:1031A000000000000000000000000000000000001F
:1031B000000000000000000000000000000000000F
:1031C00000000000000000000000000000000000FF
:1031D00000000000000000000000000000000000EF
:1031E00000000000000000000000000F30C00000E0
:1031F00000000000000000000000000000000000CF
:10320000000000000000000000000000C0E000001E
:1032100000000000000000000000000000000000AE
:10322000000000000000000000000000000000009E
:10323000000000000000000000000000000000008E
:10324000000000000000000000000306183060C00D
:10325000800000000000808040C0000000000000EE
:1032600000000000000001FFFFFF00000000000060
:10327000000000000000000000000000000000004E
:10328000000000000000000000000000000000003E
:10329000000000000000000000000000000000002E
:1032A0000000000000000000000080808041423DDE
:1032B0004C000101030303030000000000000000B4
:1032C00000000007070700000000000000000000E9
:1032D00000000000000000000000000000000000EE
:1032E00000000000000000000000000000000000DE
:1032F00000000000000000000000000000000000CE
:10330000E0300C020101000000000000000000009D
:1033100000000000000000000000000000000000AD
:10332000000000000000000000000000000000009D
:10333000000000000000000000000000000000008D
:10334000000000000000000000000000000000007D
:103350000000000000C02010080C02010100000065
:10336000000000000000000000000000000000005D
:10337000000000002020707878FCFCFEFEFC080BAA
:103380000002020200000904000001020200000520
:10339000240010010524010101042402060524066D
:1033A00000010705810310004009040100020A0022
:1033B00000000705020240000007058302400000EC
:1033C0000403090412010002EF0201404123368088
:1033D00000010102030141726475696E6F204C4C5B
:1033E000430041726475626F79000030003A00005A
:1033F000B12511241FBECFEFDAE0DEBFCDBF12E052
:10340000A0E0B1E0E0E1FDE502C005900D92A4303E
:10341000B107D9F726E0A4E0B2E001C01D92A03ABE
:10342000B207E1F719E1C9EFD9E104C02197FE0124
:103430000E945B2DC83FD107C9F70E9405260C9456
:10344000862E0C940000809104020895480F592F95
:10345000511D1416150684F5803891056CF597FFFB
:1034600002C090E080E04138510514F040E850E09F
:10347000481BFB01E770FF2721E001C0220FEA95FE
:10348000EAF777FF02C0695F7F4FFB0133E0F595F4
:10349000E7953A95E1F7F695FE2FEE27F795E79534
:1034A000E80FF91FE757FD4F415030F08191DF01E0
:1034B0001197822B8C93F8CF08958F929F92AF92A1
:1034C000BF92CF92DF92EF92FF920F931F93CF9311
:1034D000DF93DC01FA01F4903196949131964F2DEF
:1034E00050E02223E1F001E010E0892F877011F411
:1034F00010E000E0C92FC695C695C695C00FD12F24
:10350000D11DC49F8001C59F100DD49F100D1124A3
:10351000209FE001219FD00D1124EC0FFD1F4A0FC9
:103520005B1F141615060CF0A5C09B01290F311D59
:10353000121613060CF09EC0603471050CF09AC090
:10354000309709F497C0062F07709B0177FF02C0E0
:10355000295F3F4F83E0359527958A95E1F7122F34
:1035600077FF04C0002311F01FEF120F222733272B
:103570002A1B3B0BB7FD02C030E020E0403851056C
:103580000CF470C050E85A1B521B612F012E000C26
:10359000770BE62EE0941F3F0CF0E12C41E0892FE1
:1035A000877009F440E0969596959695940F690F6B
:1035B000711D6930710514F098E0911B4E2D410F7B
:1035C00060E84603E0011124AC0FBD1FA20FB31F3A
:1035D000C02F002E000CDD0BAF2CA51AFE9C200D79
:1035E000311D11242E0F3F1F6FEF70E0002E02C01F
:1035F000660F771F0A94E2F760957095962E872ED6
:10360000910FA50EBB24BB1C9417A1F1FD01E75738
:10361000FD4F7F01D12CC12CC51630F5F901EC0D01
:10362000FD1D649170E00C2E02C0660F771F0A9496
:10363000E2F747FD05C0F70180818921862B808351
:10364000002349F047303CF4F701E058FF4F8081F8
:103650008821872B8083FFEFCF1ADF0A6FEFE61AEE
:10366000F60ADACF5F2D90CF4F5F2A0D3B1DA05891
:10367000BF4FCACFDF91CF911F910F91FF90EF9075
:10368000DF90CF90BF90AF909F908F900895E9E822
:10369000F2E0A0E0B8E000800EBC8111012C11978F
:1036A000A0FDFDCF0192B9F70DB40895FC01809102
:1036B0003802882311F13FB7F89482E08093E90043
:1036C0002091F200822F90E01816190614F481E080
:1036D00090E0882339F0289844E6409337024091DF
:1036E000F1004083222339F02091F200211103C020
:1036F0002BE62093E8003FBF08958FEF9FEF0895DA
:103700002FB7F89483E08093E9009091E800892F27
:10371000807295FF04C09091F20080E4891B2FBF56
:10372000089580912F0281110DC082E080932B02B9
:1037300084E080932C0210922E0210922D0281E0E0
:1037400080932F028BE292E00895CF93DF931F9234
:10375000CDB7DEB76983DC01ED91FC910280F38186
:10376000E02D41E050E0BE016F5F7F4F09950F9063
:10377000DF91CF91089583E08093E9008091F2007A
:10378000882319F08AE38093E80008950E94801B43
:1037900090E00895CF93DF931F92CDB7DEB7FC0181
:1037A0008485958597FD08C02FEF3FEF35872487E7
:1037B0000F90DF91CF910895CE0101960E94561B84
:1037C000019719F4898190E0F3CF8FEF9FEFF0CF4D
:1037D0000F931F93CF93DF931F92CDB7DEB78C016A
:1037E000FC018485958597FF0BC0CE0101960E9450
:1037F000561B019771F4898190E0F80195878487C1
:10380000F801848595850F90DF91CF911F910F91DD
:1038100008958FEF9FEFF1CFFC018485958597FD8B
:103820000BC09FB7F89482E08093E9008091F2008A
:103830009FBF90E0019608959FB7F89482E080932F
:10384000E9008091F2009FBF90E008954091250229
:1038500050912602209123023091240242175307EF
:10386000B4F49091E8009570E1F39091E80092FD36
:1038700019C08093F1008091250290912602019653
:103880008F739927892B19F48EEF8093E80080912C
:10389000250290912602019690932602809325029C
:1038A00081E0089580E00895DF92EF92FF920F93F8
:1038B0001F93CF93DF93D82E8A01EB017B01E40E97
:1038C000F51ECE15DF0559F0D7FE12C0FE0184911A
:1038D0000E94261C21968111F4CF0FEF1FEFC80123
:1038E000DF91CF911F910F91FF90EF90DF9008959E
:1038F0008881EECF0F931F93CF93DF931F92CDB7A5
:10390000DEB782E0898342E450E06EE773E380E84B
:103910000E94541C0E94911BDC0112960D911C9177
:103920000115110589F0D801ED91FC910280F38118
:10393000E02DBE016F5F7F4FC801099597FD04C060
:10394000F80100851185ECCF89810F90DF91CF912F
:103950001F910F910895615030F02091F100FC010A
:1039600020830196F8CF289884E680933702089543
:10397000EF92FF920F931F93CF93DF938C017B0104
:10398000D0E0C0E0F701EC0FFD1F6491662361F009
:10399000D801ED91FC910190F081E02DC8010995CD
:1039A000892B11F02196EECFCE01DF91CF911F919F
:1039B0000F91FF90EF900895AF92BF92CF92DF9258
:1039C000EF92FF920F931F93CF93DF936C017B01D4
:1039D0008B01040F151FEB015E01AE18BF08C01765
:1039E000D10759F06991D601ED91FC910190F081D8
:1039F000E02DC6010995892B79F7C501DF91CF919B
:103A00001F910F91FF90EF90DF90CF90BF90AF90FC
:103A100008953FB7F8948091180290911902A091EF
:103A20001A02B0911B0226B5A89B05C02F3F19F0C2
:103A30000196A11DB11D3FBFBA2FA92F982F88272E
:103A4000BC01CD01620F711D811D911D42E0660F09
:103A5000771F881F991F4A95D1F708958F929F92DB
:103A6000AF92BF92CF92DF92EF92FF926B017C01F7
:103A70000E94091D4B015C01C114D104E104F10451
:103A8000B9F00E94091D681979098A099B09683EE5
:103A900073408105910580F321E0C21AD108E10845
:103AA000F10888EE880E83E0981EA11CB11CE4CFBB
:103AB000FF90EF90DF90CF90BF90AF909F908F904E
:103AC00008958F929F92AF92BF92CF92DF92EF9222
:103AD000FF920F931F93CF93DF936C017B018A01B9
:103AE00080910C01882309F45CC0809138028823FE
:103AF00009F457C080912A0280FF05C08091E00040
:103B000082608093E000E801B12C8AEFA82E93E058
:103B1000892E2AE3922E209711F4BB20D9F10E941E
:103B2000801B81110AC0AA94AA20D9F161E070E03B
:103B300080E090E00E942E1DEECF8C171D0611F044
:103B40000CF08C2F9FB7F8948092E9002091E80048
:103B500025FD02C09FBFDFCF282F30E0C21BD30B53
:103B6000F701815020F041914093F100FACFE20E2D
:103B7000F31EBB2021F09092E800B12CEBCF809196
:103B8000E80085FDE7CF9092E800BB24B39420972E
:103B900009F3F3CF5D9884E680932902101611068D
:103BA0003CF081E090E0F6019383828310E000E036
:103BB000C801DF91CF911F910F91FF90EF90DF909F
:103BC000CF90BF90AF909F908F9008952FB7F894AB
:103BD0006091140270911502809116029091170263
:103BE0002FBF089580911601882351F00E94E61D91
:103BF0002091100130911101CB01821B930B08958C
:103C000090E080E008956F927F928F929F92AF92A2
:103C1000BF92CF92DF92EF92FF920F931F93CF93B9
:103C2000DF934C017B01C22F102F98E0A92EB12CFD
:103C3000642E669466946694712CCA0187709927E5
:103C4000892B79F5D40117962D913C91C7019927BD
:103C5000B9010E94472D269DF001279DF00D369D4C
:103C6000F00D11248E0F9F1FD4011596ED91FC913C
:103C7000E80FF91F2081111112C0C095C223C08323
:103C8000DF91CF911F910F91FF90EF90DF90CF9038
:103C9000BF90AF909F908F907F906F900895C22BB0
:103CA000EECFD0E04770C42ED12C83E0660C771C99
:103CB0008A95E1F79E0101C0220F4A95EAF7012F8C
:103CC000A301B701C4010E94031EA301485F5F4F17
:103CD000C5018C199D0902C0D595C7958A95E2F753
:103CE000A7CF5F926F927F928F929F92AF92BF9277
:103CF000CF92DF92EF92FF920F931F93CF93DF93B8
:103D0000EC016A30F1F48D859E859C878B878C89C8
:103D10002F853889820F932F911D988B8F8781E093
:103D200090E0DF91CF911F910F91FF90EF90DF9086
:103D3000CF90BF90AF909F908F907F906F905F904B
:103D40000895AB84BC84693031F429E0A20EB11C23
:103D5000BC86AB86E4CF3DEFA3163FEFB3060CF471
:103D60005DC08F819885A816B9060CF057C0CF8426
:103D7000D8888DEFC8168FEFD8060CF44FC0898510
:103D80009A85C816D9060CF049C0603208F46FE76E
:103D900080EE860F9FE9960F9A3118F49FEFC91AAB
:103DA000D90A8C3011F08B3119F42FEFC21AD20AD4
:103DB000869534E0839FC00111249C012C503E4E17
:103DC0007901912C812C162F1170F701E80DF91D46
:103DD000549011112DC0352D3F70532E3501680CB4
:103DE000791C8C81882361F001E089899A89892B6B
:103DF00009F000E02FE0A601B301CE010E94031EEE
:103E00000989252DA601B301CE010E94031E8FEF63
:103E1000881A980A94E089169104B9F68B8990E083
:103E200004962B853C85820F931F9C878B8777CFC9
:103E300052948FE05822D2CF20910C02E0910A02D6
:103E4000F0910B02CF01029690930B0280930A022D
:103E5000222319F08591949108958081918108958C
:103E6000E1E7F0E080818D7F808310929100469899
:103E70004798109209020895CF92DF92EF92FF9235
:103E8000CF93DF930E941C1F811520E8920741F415
:103E9000DF91CF91FF90EF90DF90CF900C94301F87
:103EA00021E020930902813020E8920751F48091AB
:103EB00007029091080290930B0280930A020E94DD
:103EC0001C1F97FD05C020910602222309F45BC048
:103ED00020910502211157C021E020930D02EC0131
:103EE000DF77209709F052C081E080930E02469858
:103EF0003FE9C32E3FE0D32EE12CF12CCAEFD0E0F6
:103F0000E0919706F09198060995811103C081E030
:103F100080930E0280910D02882329F080910E0279
:103F2000882309F446C047980E941C1F009709F493
:103F300044C09C01DE010E94882BDC01CB0129E0FA
:103F4000B595A795979587952A95D1F710929000EA
:103F50002AE020939100D0929900C092980080931B
:103F60000F0290931002A0931102B093120280915D
:103F70007100826080937100DF91CF91FF90EF908C
:103F8000DF90CF90089510920D02A9CF9E0150E0CE
:103F900040E060E472E48FE090E00E94342B69011D
:103FA0007A0181E0C81AD108E108F10810920E02E6
:103FB000A7CF4699B8CF479AB7CF8FEF9FEFDC01D5
:103FC000C5CF2D9A0895BC0190E080E00C942E1D81
:103FD0008FB18095807F669B88601C9B846008956C
:103FE000109204023E983F9808953E9A3F9A81E0CD
:103FF00080930402089590912102982329F49091CE
:104000002202982381E009F480E00895CF93DF93A2
:10401000FC01460F572F511D77FF02C070E060E092
:1040200030E1CA014134510514F080E490E0681792
:104030007907ECF4E038F105A0F4EB0181E0C1FD73
:1040400084E0C0FD880FC2FD8295C87F3C9FD001EF
:104050001124AE0FA757BD4F9C91222329F0982B16
:104060009C936F5F7F4FDDCF80959823F9CFDF91D1
:10407000CF910895EF92FF920F931F93CF93DF9309
:104080007C018B01C42FD22F6034710510F40E9483
:10409000261AB8016D0F711D6150710960347105E8
:1040A00020F44C2FC7010E94261A21E04D2FB801A1
:1040B000C7010E940620C7018C0F911D21E04D2FE2
:1040C000B8010197DF91CF911F910F91FF90EF9071
:1040D0000C940620CF92DF92EF92FF920F931F93E2
:1040E000CF93DF936B01122FEC017C01E40EF11CE6
:1040F000CE15DF0544F4202F412FB601CE010E94DA
:1041000006202196F5CFDF91CF911F910F91FF905F
:10411000EF90DF90CF900895089590E080E00895AB
:10412000CF93DF93CDE0D1E0EA810E2E000CFF0BA0
:10413000E357FE4FE081EE0FFF0BEF5DFE4F208156
:104140003181E1E7F0E080818D7F808381E08093A1
:104150000C0230930B0220930A0230930802209342
:1041600007020E943C1F0E94E61D6B837C838D83A7
:104170009E83DF91CF91089597FF16C0109215018D
:10418000109214010E94F01F80911401909115016A
:104190000297E9F081E01092050210920602813048
:1041A000C1F4809305020895833091054CF082E0BC
:1041B00090E090931501809314010E94F51FE4CFC5
:1041C0009093150180931401892BB9F7DBCF82E01E
:1041D000E2CF81E080930602089580E80E94FB1FF1
:1041E000882339F0809114019091150101960C9467
:1041F000BC2080E10E94FB1F882331F080911401D4
:10420000909115010197F3CF089580930F0180914C
:10421000160181110C9490200895CF93DF93CDE087
:10422000D1E0998388830E94E61D6B837C838D8314
:104230009E8319861092990680E0DF91CF910C94AD
:104240000521CF92DF92EF92FF9289E0C82ED12C08
:10425000E12CF12C0E94C62AA70196010E94342B62
:10426000809199068617B1F360939906FF90EF90BD
:10427000DF90CF9008958F929F92AF92BF92EF926E
:10428000FF920F931F93CF93DF93CDB7DEB7A19724
:104290000FB6F894DEBF0FBECDBF7C01FA01CB0193
:1042A00019A2223008F42AE08E010F5D1F4F822EE2
:1042B000912CB12CA12CBF01A50194010E94662B69
:1042C000F901CA016A3074F5605DD8016E938D0101
:1042D000232B242B252B79F790E080E0109789F091
:1042E000FD0101900020E9F73197AF014A1B5B0BFC
:1042F000D701ED91FC910280F381E02DB801C70157
:104300000995A1960FB6F894DEBF0FBECDBFDF9121
:10431000CF911F910F91FF90EF90BF90AF909F9022
:104320008F900895695CD1CFEF92FF920F931F9306
:10433000CF93DF93C82F9B01CB0168EE73E00E94FF
:10434000332D8B01E0919A06F0919B060C2E000C08
:10435000DD0BD687C587D487C38788E390E0908B31
:10436000878741E050E020363A4E10F450E040E0BC
:1043700070E060E02AE0CF010E943B21E0919A06C4
:10438000F0919B06CE010496968785879487838754
:1043900088E3E82EF12CF08AE7866DEE73E3CF0117
:1043A0000E94B81CE0919A06F0919B062796D6874A
:1043B000C587D487C387F08AE7866AEE73E30A303D
:1043C000110510F46BEE73E3CF010E94B81CA80135
:1043D00070E060E02AE080919A0690919B06DF9160
:1043E000CF911F910F91FF90EF900C943B21CF92B2
:1043F000DF92EF92FF920F931F93CF93DF936B01A6
:10440000072E000CEE08FF0877FF1FC0EC01E881C3
:10441000F9810190F081E02D6DE209958C0144272E
:104420005527BA014C195D096E097F092AE0CE01B2
:104430000E943B21800F911FDF91CF911F910F911F
:10444000FF90EF90DF90CF9008952AE0B701A6018A
:10445000DF91CF911F910F91FF90EF90DF90CF9060
:104460000C943B211F920F920FB60F9211248F9341
:104470009F938091E1009091E100937F9093E10000
:1044800083FF0FC01092E90091E09093EB0010922F
:10449000EC0092E39093ED001092380298E0909334
:1044A000F00082FF22C093E09093E9009091F20027
:1044B000992319F09AE39093E800909129029923A7
:1044C00041F090912902915090932902911101C0DD
:1044D0005D9A90913702992341F090913702915063
:1044E00090933702911101C0289A84FF18C08091DF
:1044F000E2008E7E81608093E2008091E1008F7EF9
:104500008093E10080912A028E7E806180932A024E
:104510009F918F910F900FBE0F901F90189580FF65
:10452000F7CF8091E2008E7E80618093E2008091DF
:10453000E1008E7E8093E10080912A028E7E816070
:10454000E5CF1F920F920FB60F921124CF92DF92F8
:10455000EF92FF920F931F932F933F934F935F938D
:104560006F937F938F939F93AF93BF93EF93FF933B
:10457000CF93DF93CDB7DEB76C97DEBFCDBF109280
:10458000E9008091E80083FF25C068E0CE014596F0
:104590000E94AB1C82EF8093E8008D8987FF39C0B1
:1045A0009091E80090FFFCCF982F907609F034C1ED
:1045B0009E894F89588D2F89F88C911131C0803890
:1045C00061F5809128028093F1001092F1008EEF46
:1045D0008093E8006C960FB6F894DEBF0FBECDBF97
:1045E000DF91CF91FF91EF91BF91AF919F918F910B
:1045F0007F916F915F914F913F912F911F910F91FB
:10460000FF90EF90DF90CF900F900FBE0F901F9014
:1046100018959EEF9093E800C7CF1092F100D5CF88
:10462000913059F48111D3CF4130510581F68091F9
:1046300028028D7F80932802CACF933049F48111DC
:10464000C6CF4130510519F6809128028260F2CF21
:10465000953041F48091E80080FFFCCF20682093E2
:10466000E300B5CF963009F0A9C00B8D1C8D22E078
:104670001092E9001092260210922502F2122EC02A
:1046800010922402109223020E947A1C1F8299E049
:104690009983FA8291E09E8390EA98879AEF9987AE
:1046A0002091250230912602275F3F4F3C832B83C8
:1046B0008D831092E9001092260210922502109329
:1046C00024020093230249E050E0BE016F5F7F4F58
:1046D00080E00E94541C0E947A1C79CF109324021F
:1046E000009323020E94911BDC0112960D911C91F4
:1046F0000115110509F451C1D801ED91FC91048017
:10470000F581E02DBE016B5E7F4FC80109950097D2
:1047100009F03EC1F80100851185EACFF3E0FF12F0
:104720000EC08F89882309F440C0823061F440E8CC
:1047300067E082EE93E30E947E25811148CF81E2FB
:104740008093EB0047CF813029F440E86BE086EDA1
:1047500093E3F1CF833099F70E94911BDC0112960D
:10476000ED90FC908E010F5F1F4F6801E114F10482
:1047700079F0D701ED91FC910680F781E02DB80129
:10478000C7010995080F111DF701E084F184EECFF0
:10479000D8011C92F60101900020E9F73197BF0182
:1047A0006C197D0940E0C601C6CF60EC73E3FB01E4
:1047B000449150E080E80E94541C09CF973009F4DE
:1047C000BECF983021F481E08093F10000CF993082
:1047D00009F0FDCE837009F0B2CFEFEDF1E081E09A
:1047E00031E096E32191222371F08093E900309328
:1047F000EB00DF0111972C912093EC009093ED00DA
:104800008F5F873079F78EE78093EA001092EA0095
:104810008F8980933802DBCE8B8D9C8D1092E900BE
:104820001092260210922502909324028093230274
:10483000898D811192C08E899D89913A49F4813286
:1048400009F07DCF47E050E065E071E080E0B3CF54
:10485000913209F074CF833269F48F89988DB0E07A
:10486000A0E08093010190930201A0930301B09313
:104870000401ADCE803269F48091E80082FFFCCF64
:1048800067E085E091E00E94AB1C8BEF8093E8002D
:104890009ECE823209F09BCE8F8980930C01EEEF81
:1048A000FFE7859194918B3F9C4D51F1E0E0F8E05A
:1048B0008091050190910601A0910701B091080136
:1048C000803B9440A105B105F1F480910C0180FD7D
:1048D0001AC0EE3F8AE0F80789F587E797E79183EA
:1048E0008083809160008093270288E19BE00FB66F
:1048F000F894A895809360000FBE9093600067CEF7
:10490000EEEFFAE0D5CF808191818737974709F0A4
:104910005ECEA89580916000886180936000809150
:10492000270280936000EE3F2AE0F20789F0809131
:10493000FE0A9091FF0A9183808349CE8081918104
:104940008737980751F29093FF0A8093FE0AC5CFEC
:104950001092FF0A1092FE0A3ACE0E94911BDC01CF
:1049600012960D911C910115110509F4E8CED8019C
:10497000ED91FC910190F081E02DBE016B5E7F4FC7
:10498000C8010995811123CEF80100851185EBCF6F
:10499000181619060CF41BCED2CEF1E0FF12BECED3
:1049A00064EC73E304CF1F920F920FB60F921124A1
:1049B0002F933F938F939F93AF93BF938091140254
:1049C00090911502A0911602B09117023091130236
:1049D00023E0230F2D3758F50196A11DB11D20931B
:1049E00013028093140290931502A0931602B093C1
:1049F00017028091180290911902A0911A02B091A9
:104A00001B020196A11DB11D8093180290931902FB
:104A1000A0931A02B0931B02BF91AF919F918F9107
:104A20003F912F910F900FBE0F901F90189526E881
:104A3000230F0296A11DB11DD2CF1F920F920FB668
:104A40000F9211242F933F934F935F936F937F9314
:104A50008F939F93AF93BF93EF93FF9380910F0238
:104A600090911002A0911102B0911202892B8A2B11
:104A70008B2B09F440C080910E0281110BC088B1CC
:104A800090E4892788B980910D02882319F088B1B4
:104A9000805888B980910F0290911002A091110264
:104AA000B0911202181619061A061B069CF4809182
:104AB0000F0290911002A0911102B0911202019781
:104AC000A109B10980930F0290931002A0931102E3
:104AD000B0931202FF91EF91BF91AF919F918F918F
:104AE0007F916F915F914F913F912F910F900FBEEA
:104AF0000F901F9018950E943C1FECCFEF92FF92F1
:104B00000F931F93CF93DF93F82E192FE62E042FC8
:104B100081E0860F880F0E94261C83E00E94261CDD
:104B2000CF2DD12FEC0EFD2EF11CCE15DF05B9F0E7
:104B300007FF13C0FE0184910E94261C182F80E0FD
:104B40000E94261C812321968111EFCFDF91CF9106
:104B50001F910F91FF90EF9008958881EDCF81E034
:104B6000F5CFCF93DF93E9E3F2E01382128288EE70
:104B700093E0A0E0B0E084839583A683B78389EEB9
:104B800091E0918380838FEF9FEF9587848783E205
:104B90009AE1909398068093970680E090E890932E
:104BA00096068093950646983E9A47983F9AC9E99B
:104BB000D6E0188285E190E00E94612DFC0113820D
:104BC00012828BEF91E09183808389E892E0968353
:104BD000858380E890E09087878380E490E09287E7
:104BE000818785E0848B81E0838B16861586108A09
:104BF00017861486138681E090E0928B818B148255
:104C0000FA83E983DF91CF910895789484B5826027
:104C100084BD84B5816084BD85B5826085BD85B560
:104C2000816085BD80916E00816080936E001092DE
:104C30008100809181008260809381008091810059
:104C400081608093810080918000816080938000EA
:104C500080919100826080939100809191008160A9
:104C6000809391008091900081608093900080916A
:104C7000C10084608093C1008091C10082608093F4
:104C8000C1008091C10081608093C1008091C30008
:104C900081608093C3008091C00082608093C000D7
:104CA0008091C20081608093C20080917A0084600C
:104CB00080937A0080917A00826080937A0080915C
:104CC0007A00816080937A0080917A008068809376
:104CD0007A00109238021092280210922A028091D3
:104CE000D70081608093D70080EA8093D80089B58F
:104CF000806189BD89B5826089BD09B400FEFDCFA0
:104D000061E070E080E090E00E942E1D8091D8006C
:104D10008F7C80618093D8008091E000807F8093B9
:104D2000E0008091E1008E7E8093E1008DE0809331
:104D3000E200559A209A81EC80937C0085B1806FC7
:104D400085B984B1877E84B984B1876E84B95E9A4F
:104D50005F988AB1806D8AB9769A6E9881B3806FB8
:104D600081BB899880B38D7080BB80E58CBD81E06C
:104D70008DBD85E090E00E94E31F5F9A85E090E0A2
:104D80000E94E31F5E985C98E4EBF2E184918EBD93
:104D900000000DB407FEFDCF319622E1E13CF207A1
:104DA000A9F75C9A81E88093640080916500816036
:104DB0008093650080E00E94471B0E94E81F87FFE8
:104DC00015C05C9885EA8EBD00000DB407FEFDCFCE
:104DD0005C9A2E982F982D98809164008062809321
:104DE000640081E083BF889513BEFCCF0E94E81F5A
:104DF00082FF48C02D980E94E81F84788438E1F42F
:104E00000E94E11F88EC90E00E94E31F2F9882E04F
:104E100090E00E941E2B8F3F29F06FEF82E090E020
:104E20000E94262B84EF91E00E94E31F2F9A0E949C
:104E3000E81F84788438D9F30E94E81F8471843194
:104E4000E1F40E94E11F88EC90E00E94E31F2E989D
:104E500082E090E00E941E2B882329F060E082E02F
:104E600090E00E94262B84EF91E00E94E31F2E9A8F
:104E70000E94E81F84718431D9F388EC90E00E948D
:104E8000E31FB4CF0E94E11F82E090E00E941E2B3E
:104E9000882309F453C00E94F51F81E090E00E942E
:104EA0001E2B8470B82E81E090E00E941E2B81FFA3
:104EB00010C0B1102E98C1EFDFEF08E010E0B8E5A8
:104EC000AB2E0E94E81F86FF3CC02E9A2F9A0E94AC
:104ED000E11F82E390E00E94E31F0E94E81F81111E
:104EE000F8CF83E58093000190E080E00E940D21DF
:104EF00038E3A32EB12C48EE442E43E0542E612C0F
:104F0000712C59E6852E912C11E020E0222E20E014
:104F1000322E80911601811102C00E94301F0E9422
:104F2000E61D00911C02002309F49DC010921C0292
:104F30002114310471F30E940000E6CF0E94F01F9B
:104F4000ACCFBB2029F0C430D10511F42E9A2F9894
:104F500081E00E94471B9E01D7FF04C02227332710
:104F60002C1B3D0B27703327CE01D7FD0796A3E0FE
:104F700095958795AA95E1F7D7FF05C00197A801F8
:104F8000421B530B9A01BC017695762F66277795C5
:104F9000679567577D4FF12CE12C3801621A730A2F
:104FA0008E3F5FEF950709F43DC0AE9CD001AF9CEA
:104FB000B00D112450E040E0AF53BD4E4B01E0E88E
:104FC0008E0E911C8F3F980791F0FD01E40FF51FA5
:104FD000E4916B01C40ED51EF0E02F01022E01C03A
:104FE000440C0A94EAF7F60154884528448A2115AE
:104FF000310599F0FD01E40FF51FE4916401C40E41
:10500000D51EF0E02F01062C02C0559447940A9457
:10501000E2F7F60154884528448A4F5F5F4F4835D0
:10502000510581F6019660587F4FEA94EF28B9F454
:1050300080E00E94471B8FE090E00E94E31F2196D2
:10504000C931D10509F03DCFBB2011F02F9A2D9821
:1050500080E991E00E94E31F0E94E11F3ACFEE2415
:10506000E394F12C9DCF80911D02262F281B822FC7
:1050700090910001291740F48F5F891708F058CFED
:1050800013BF889513BE54CF10931C0260931D026A
:10509000C0911F02D09120022196D0932002C0938C
:1050A0001F0280912202809321020E94E81F8093B8
:1050B0002202E9E8F2E001110FEF002401930193CD
:1050C000019301930394D1F780910D0190910E010A
:1050D000892B09F086C0C0FD05C0809199068F5FBD
:1050E00080939906209199062B3044F44CED53E1BE
:1050F00070E060E084E290E00E945D1AE0919A0620
:10510000F0919B0684E090E096878587948783875B
:10511000908B87876AEC73E1CF010E94B81C2091C5
:10512000140143EB53E164E070E085E790E00E94F6
:105130005D1A809199068B308CF0E0919A06F0917F
:105140009B06968685869486838643E350E0508B43
:10515000478769EA73E1CF010E94B81C88E00E948A
:10516000FB1F81110AC084E00E94FB1F811105C052
:1051700080E40E94FB1F882339F181E090E00E94C7
:105180000D210E94ED2080E00E94471B80910D01BF
:1051900090910E01892B09F0CBCE0E94E61DC090A4
:1051A0001001D0901101E0901201F09013016C19E0
:1051B0007D098E099F09683B7B408105910508F4B4
:1051C000B7CE81E090E075C180E20E94FB1F88238A
:1051D000C1F281E090E00E940D218AE10E94052148
:1051E000D0CF0E94F21D7C0180910F01E82F082E84
:1051F000000CFF0BE357FE4FE081EE0FFF0BE95A67
:10520000FE4FC081D18190911601992361F09E01DA
:105210002C503E4FE216F30630F08A310CF047C1B5
:105220008F5F0E94052180911601882309F445C0F3
:10523000EC16FD0608F041C0E0910F010E2E000CA7
:10524000FF0BE357FE4FE081EE0FFF0BE855FE4FDB
:10525000C081D181CC0FDD1F0E94F21DB0E0A0E023
:105260006C017D019AE0CC0CDD1CEE1CFF1C9A95B4
:10527000D1F79E0150E040E060E67AEE80E090E0F9
:105280000E94342BC701B6010E94662BCA01B901E6
:10529000A30192010E94662B21703327232B09F072
:1052A0000BC180911601882321F080911E0281118B
:1052B00004C00E94212110931E02209199064CEDFA
:1052C00053E170E060E08CEF9FEF0E945D1A20E3F5
:1052D00040E364E070E084E090E00E943A2000E067
:1052E00024E040E870E060E090E080E00E946A2006
:1052F00020E344E064E070E090E080E00E946A20F7
:1053000020E34CE464E070E084E390E00E946A20D3
:105310002CE040E864E370E090E080E00E946A20C6
:10532000E0919A06F0919B06B686A586B486A38680
:1053300084E090E0908B878760910F01062E000C2F
:10534000770B6F5F7F4FCF010E94F72167EA73E110
:1053500080919A0690919B060E94B81C6BE170E0C8
:1053600080919A0690919B060E94F721A0919A063F
:10537000B0919B061E96BC92AE921D971C96BC9255
:10538000AE921B978CE090E050969C938E931F9763
:10539000E0910F010E2E000CFF0BE357FE4FE08152
:1053A000EE0FFF0BEF58FC4E65917491CD010E94FA
:1053B000B81C2091140143EB53E164E070E085E7F1
:1053C00090E00E945D1A0E94F21DBC0184E00E94E0
:1053D0009421E0910F010E2E000CFF0BE357FE4FBE
:1053E000E081EE0FFF0BE95AFE4F608171816C5036
:1053F0007E4F8CE60E94942124E046E568E370E04D
:1054000085E190E00E943A200E94F21DBC0190E0EC
:1054100080E00E94382C20E030E04CEA52E40E9408
:10542000C62C6B017C01E0910F010E2E000CFF0BCE
:10543000E357FE4FE081EE0FFF0BE95AFE4F60810C
:1054400071816C507E4F90E080E00E94382C9B016F
:10545000AC01C701B6010E94972B0E94092C462F70
:1054600001E024E068E370E085E190E00E946A20BA
:1054700088E00E94FB1F882311F11092160180E43E
:105480000E94FB1F882329F180910F018F5F0E94EA
:1054900005210E9421210E94ED2080910F018B3176
:1054A00008F471CE90E080E00E940D216CCE90E077
:1054B00080E00E940D213CCD10921E02FECE84E0C1
:1054C0000E94FB1F8823D9F2109316010E9490209E
:1054D000D6CF80E20E94FB1F8823E9F20E94F21DD2
:1054E00020910F01883E934018F48FEF820FCFCFA9
:1054F000822FCDCF8F929F92AF92BF92CF92DF92A9
:10550000EF92FF92CF93DF93EC01688179818A81DA
:105510009B81611571058105910521F464E279EDA6
:105520008BE597E02DE133EF41E050E00E94342B12
:1055300049015A019B01AC01A7EAB1E40E94532B37
:105540006B017C01ACEEB4EFA50194010E94612BCC
:10555000C60ED71EE81EF91EF7FE06C081E0C81A67
:10556000D108E10880E8F80AC882D982EA82FB8281
:10557000C701B6019F77DF91CF91FF90EF90DF9049
:10558000CF90BF90AF909F908F9008958F929F92F1
:10559000AF92BF92CF92DF92EF92FF92609117018C
:1055A000709118018091190190911A01611571058E
:1055B0008105910521F464E279ED8BE597E02DE119
:1055C00033EF41E050E00E94342B49015A019B0126
:1055D000AC01A7EAB1E40E94532B6B017C01ACEE55
:1055E000B4EFA50194010E94612BC60ED71EE81EE0
:1055F000F91EF7FE06C081E0C81AD108E10880E86C
:10560000F80AC0921701D0921801E0921901F092A5
:105610001A01C701B6019F77FF90EF90DF90CF90FE
:10562000BF90AF909F908F900895609317017093F3
:1056300018018093190190931A010895F999FECFEA
:1056400092BD81BDF89A992780B50895262FF999C2
:10565000FECF1FBA92BD81BD20BD0FB6F894FA9A55
:10566000F99A0FBE01960895052E97FB1EF400943B
:105670000E944B2B57FD07D00E94662B07FC03D0DE
:105680004EF40C944B2B50954095309521953F4FFF
:105690004F4F5F4F089590958095709561957F4F1E
:1056A0008F4F9F4F08950E94882BA59F900DB49F08
:1056B000900DA49F800D911D11240895B7FF0C94A7
:1056C000532B0E94532B821B930B0895A1E21A2E99
:1056D000AA1BBB1BFD010DC0AA1FBB1FEE1FFF1F96
:1056E000A217B307E407F50720F0A21BB30BE40BE6
:1056F000F50B661F771F881F991F1A9469F760952D
:105700007095809590959B01AC01BD01CF010895E6
:10571000A29FB001B39FC001A39F700D811D1124F2
:10572000911DB29F700D811D1124911D08950E943D
:10573000AB2B0C948C2C0E94852C58F00E947E2C54
:1057400040F029F45F3F29F00C94752C51110C9412
:10575000C02C0C947B2C0E949D2C68F39923B1F3F0
:10576000552391F3951B550BBB27AA276217730787
:10577000840738F09F5F5F4F220F331F441FAA1F1B
:10578000A9F335D00E2E3AF0E0E832D091505040D7
:10579000E695001CCAF72BD0FE2F29D0660F771F85
:1057A000881FBB1F261737074807AB07B0E809F06B
:1057B000BB0B802DBF01FF2793585F4F3AF09E3FF0
:1057C000510578F00C94752C0C94C02C5F3FE4F3D9
:1057D000983ED4F3869577956795B795F7959F5F33
:1057E000C9F7880F911D9695879597F90895E1E07F
:1057F000660F771F881FBB1F621773078407BA07DE
:1058000020F0621B730B840BBA0BEE1F88F7E09538
:1058100008950E94A52C88F09F5798F0B92F9927DA
:10582000B751B0F0E1F0660F771F881F991F1AF08B
:10583000BA95C9F714C0B13091F00E94BF2CB1E005
:1058400008950C94BF2C672F782F8827B85F39F004
:10585000B93FCCF3869577956795B395D9F73EF424
:1058600090958095709561957F4F8F4F9F4F0895CC
:10587000E89409C097FB3EF49095809570956195EA
:105880007F4F8F4F9F4F9923A9F0F92F96E9BB27A0
:105890009395F695879577956795B795F111F8CF1C
:1058A000FAF4BB0F11F460FF1BC06F5F7F4F8F4F87
:1058B0009F4F16C0882311F096E911C0772321F07D
:1058C0009EE8872F762F05C0662371F096E8862F15
:1058D00070E060E02AF09A95660F771F881FDAF76C
:1058E000880F9695879597F9089597F99F6780E8AF
:1058F00070E060E008959FEF80EC089500240A9422
:105900001616170618060906089500240A9412169A
:105910001306140605060895092E0394000C11F4CD
:10592000882352F0BB0F40F4BF2B11F460FF04C07A
:105930006F5F7F4F8F4F9F4F089557FD9058440FD3
:10594000551F59F05F3F71F04795880F97FB991FDE
:1059500061F09F3F79F0879508951216130614069B
:10596000551FF2CF4695F1DF08C016161706180628
:10597000991FF1CF86957105610508940895E89403
:10598000BB2766277727CB0197F908950E94D92C6A
:105990000C948C2C0E947E2C38F00E94852C20F0D8
:1059A000952311F00C94752C0C947B2C11240C94E1
:1059B000C02C0E949D2C70F3959FC1F3950F50E071
:1059C000551F629FF001729FBB27F00DB11D639FB1
:1059D000AA27F00DB11DAA1F649F6627B00DA11D57
:1059E000661F829F2227B00DA11D621F739FB00DFD
:1059F000A11D621F839FA00D611D221F749F33276D
:105A0000A00D611D231F849F600D211D822F762F05
:105A10006A2F11249F5750409AF0F1F088234AF0E2
:105A2000EE0FFF1FBB1F661F771F881F915050404E
:105A3000A9F79E3F510580F00C94752C0C94C02C56
:105A40005F3FE4F3983ED4F3869577956795B795D5
:105A5000F795E7959F5FC1F7FE2B880F911D9695EF
:105A6000879597F90895AA1BBB1B51E107C0AA1F90
:105A7000BB1FA617B70710F0A61BB70B881F991FEF
:105A80005A95A9F780959095BC01CD01089597FB93
:105A9000072E16F4009407D077FD09D00E94332D0D
:105AA00007FC05D03EF4909581959F4F0895709521
:105AB00061957F4F0895EE0FFF1F0590F491E02D43
:105AC00009940F931F93CF93DF938230910510F4C5
:105AD00082E090E0E0919E06F0919F0630E020E0A9
